:020000040800F2
:1000000030B50020390800083D0600083F0600080A
:1000100043060008470600084B06000800000000E1
:100020000000000000000000000000004F06000873
:10003000510600080000000053060008550600089D
:100040005308000853080008530800085308000824
:100050005308000853080008530800085308000814
:100060005308000853080008530800085308000804
:1000700053080008530800085308000853080008F4
:1000800053080008530800085308000853080008E4
:100090005308000853080008530800085F8200084E
:1000A00053080008530800085308000853080008C4
:1000B000530800084D840008ED8A00085308000822
:1000C00053080008530800085308000853080008A4
:1000D00053080008432E000853080008530800087E
:1000E0005308000853080008530800085308000884
:1000F0005308000853080008530800085308000874
:100100005308000853080008530800085308000863
:100110005308000853080008530800085308000853
:100120005308000853080008530800085308000843
:1001300000F002F800F06BF80AA090E8000C82448E
:100140008344AAF10107DA4501D100F060F8AFF26B
:10015000090EBAE80F0013F0010F18BFFB1A43F0A5
:100160000103184714670100346701000A444FF087
:10017000000C10F8013B13F0070408BF10F8014B06
:100180001D1108BF10F8015B641E05D010F8016B4B
:10019000641E01F8016BF9D113F0080F1EBF10F8AF
:1001A000014BAD1C0C1B09D16D1E58BF01F801CBD2
:1001B000FAD505E014F8016B01F8016B6D1EF9D555
:1001C0009142D6D37047000000230024002500266A
:1001D000103A28BF78C1FBD8520728BF30C148BFAA
:1001E0000B607047642914F03F81752914F03C813D
:1001F000782914F07581632914F0BF83732914F0F2
:10020000C483002070471FB51FBD10B510BD14F08A
:1002100009FC1146FFF7F7FF00F0D3F814F027FCB4
:1002200003B4FFF7F2FF03BC02F0B0FD10B58CB0D1
:100230000446012C62D1B7484079B6490979B54ADC
:10024000D278B44B9B78CDE90032CDE90210B148A9
:1002500043780278B0A104A814F0A2F804A81021F1
:100260000B46D222CDE9001082211E2007F0C8FBE8
:10027000A848407BA749097BCDE90010A548C37A6F
:10028000827AACA104A814F08BF804A810210B46C4
:10029000D222CDE9001096211E2007F0B1FB9D4827
:1002A000407D9C49097DCDE900109A48C37C827C41
:1002B000A5A104A814F074F804A810210B46D222BA
:1002C000CDE90010AA211E2007F09AFB9148407C3E
:1002D0009049097CCDE900108E48C37B827B95A1B3
:1002E00004A814F05DF804A810210B46D222CDE931
:1002F0000010BE211E2007F083FB60E08548427994
:1003000000798449C978834B9B78CDE90031CDE9E8
:10031000020280484378027890A104A814F040F8C3
:1003200004A810210B46D222CDE9001082211E2004
:1003300007F066FB7748407B7649097BCDE90010E2
:100340007448C37A827A8CA104A814F029F804A80E
:1003500010210B46D222CDE9001096211E2007F075
:100360004FFB6C48407D6B49097DCDE90010694821
:10037000C37C827C86A104A814F012F804A8102182
:100380000B46D222CDE90010AA211E2007F038FB2F
:100390006048407C5F49097CCDE900105D48C37B23
:1003A000827B75A104A813F0FBFF04A810210B4663
:1003B000D222CDE90010BE211E2007F021FB0CB097
:1003C00010BD1CB502F072FC4FF4A06000F054FAAE
:1003D0004FF4E13002F0E9FC02F078FD02F09CFD00
:1003E00003F0C1FC40F2CF214FF47A7008F002F81C
:1003F0006D4841684820884707F070FF002009F0E9
:1004000002F9012009F0FFF84FF4784067490880AD
:1004100067A010210B46C822CDE900101E21084616
:1004200007F0EEFA66A010210B46C822CDE90010B5
:1004300032211E2007F0E4FA64A010210B46C822E6
:10044000CDE9001046211E2007F0DAFA63A0102142
:100450000B46C822CDE900105A211E2007F0D0FA21
:1004600020E061A010211423C822CDE900106E21E4
:100470001E2007F0C5FA4FF4966002F054FC4FF6C8
:10048000FF708223E6226E2100901E2007F01DF8E7
:100490005AA010210B46C822CDE900106E211E2063
:1004A00007F0AEFA09F00FFA0028DAD156A01021B1
:1004B0001423C822CDE900106E211E2007F0A0FAF7
:1004C00056A010210B46C822CDE9001082211E2023
:1004D00007F096FA01E009F006FB0E48807D02283D
:1004E00003D00C48807DFF28F5D10A49887DFFF7AD
:1004F0009DFE0DE009F0F7FA641C4CF25030844286
:1005000006D14C480068C0434B49C1F8940100240F
:10051000F0E7000040AD00204D4143202020203A6C
:1005200025642E25642E25642E25642E25642E2513
:1005300064000000444843502049503A25642E2569
:10054000642E25642E256400444843502047573AC2
:1005500025642E25642E25642E2564004D414320FC
:1005600020202020203A25642E25642E25642E2567
:10057000642E25642E2564005374617469632049D8
:10058000503A25642E25642E25642E256400000033
:100590005374617469632047573A25642E25642E8D
:1005A00025642E2564000000940000203400002003
:1005B000454E4332384A36302B53544D33320000C7
:1005C0004C574950205465737421000041544F4DDD
:1005D00040414C49454E54454B00000032303135C6
:1005E0002F342F32370000004C57495020496E6994
:1005F000742046616C696564210000005265747264
:1006000079696E672E2E2E004C57495020496E692D
:10061000742053756363657373210000444843502D
:1006200020495020636F6E666967696E672E2E2EB3
:10063000000000009481214200802142704700BFE9
:10064000FEE700BFFEE700BFFEE700BFFEE7704722
:1006500070477047704700000CB500200190009073
:100660006C48006840F480306A49086000BF6948FF
:10067000006800F4003000900198401C0190009840
:1006800018B90198B0F5A06FF1D16248006800F484
:10069000003010B10120009001E00020009000988F
:1006A000012843D15C48006840F010005A490860B6
:1006B0000846006820F0030008600846006840F023
:1006C0000200086053484068524948600846406844
:1006D00048600846406840F48060486008464068CA
:1006E00020F47C1048600846406840F4E8104860F8
:1006F0000846006840F08070086000BF4548006808
:1007000000F000700028F9D04248406820F0030053
:10071000404948600846406840F00200486000BF19
:100720003C48406800F00C000828F9D10CBD10B519
:10073000FFF792FF10BD10B53648006840F0010089
:1007400034490860084640683449084031494860E7
:1007500008460068324908402E490860084600688B
:1007600020F4802008600846406820F4FE004860BD
:100770004FF41F008860FFF7DAFF4FF0006029494F
:10078000086010BD10B5002100200022214B5B68DD
:1007900003F00C0121B1042906D0082928D107E073
:1007A000214B224C236027E01F4B204C236023E089
:1007B000184B5B6803F47010164B5B6803F48032CF
:1007C000022303EB904022B9194B4343174C23609B
:1007D0000DE0104B5B6803F4003323B1144B43432B
:1007E000124C236003E0104B4343104C236003E0A2
:1007F0000D4B0E4C236000BF00BF064B5B68C3F37C
:1008000003130C4CE15C094B1B68CB40074C236085
:1008100010BD000000100240002002400000FFF860
:10082000FFFFF6FE08ED00E000127A000000002055
:1008300000093D000400002009488047094800479E
:10084000FEE7FEE7FEE7FEE7FEE7FEE7FEE7FEE780
:10085000FEE7FEE704480549054A064B70470000DD
:10086000370700083101000830AF002030B5002004
:1008700030B1002030B1002031490143314A1160CC
:10088000704770B5002100230F22C47804B32D4CAB
:10089000246804F4E064C4F5E064210AC1F10403AF
:1008A000CA40447804FA03F18478144021430901D2
:1008B000254C0678A155047804F01F050124AC40AE
:1008C00005786D11AD0005F1E025C5F8004109E09E
:1008D000047804F01F050124AC401C4D0678761105
:1008E00045F8264070BD1A4A0A400243154B1B1FAB
:1008F0001A60704739B1134A121D12680243114B36
:100900001B1D1A6006E00F4A121D126882430D4B30
:100910001B1D1A607047042808D14FF0E0210969B7
:1009200041F004014FF0E022116107E04FF0E021B7
:10093000096921F004014FF0E022116170470000C5
:100940000000FA050CED00E000E400E080E100E0CA
:1009500080FFFF1FDF48006840F00100DD490860AC
:1009600008464068DC490840DA49486008460068A3
:10097000DA490840D74908600846006820F480201A
:1009800008600846406820F4FE0048604FF41F00ED
:1009900088607047CF49096821F48031CD4A1160E1
:1009A0001146096821F480211160B0F5803F03D021
:1009B000B0F5802F0ED106E0C649096841F48031B8
:1009C000C44A116007E0C349096841F4A021C14A43
:1009D000116000E000BF00BF704710B50146002263
:1009E000002300204A11012A02D1BA4C236806E0F4
:1009F000022A02D1B74C236A01E0B64C636A01F0C7
:100A00001F02012494401C400CB1012000E0002092
:100A100010BD38B5002000900024002500BF312013
:100A2000FFF7DBFF05460098401C00900098B0F5EA
:100A3000A06F01D0002DF2D03120FFF7CEFF08B11A
:100A4000012400E00024204638BD01460020A14AD0
:100A5000106820F0F80040EAC10010607047A0491B
:100A600008607047024600209A4B586820F47C10BA
:100A700042EA01031843974B58607047984908664B
:100A8000704701460020934A506820F00300084355
:100A9000506070478F48406800F00C007047014676
:100AA00000208C4A506820F0F000084350607047E6
:100AB00001460020874A506820F4E06008435060F7
:100AC000704701460020834A506820F4605040EA95
:100AD000C1005060704729B17E4A527A02437D4B73
:100AE0005A7204E07B4A527A82437A4B5A727047B8
:100AF0007B49D8310860704701460020754A50682C
:100B000020F440400843506070470021714A203271
:100B10001170704A82F82010012802D004280AD1EE
:100B200004E001216B4A2032117005E00521694A79
:100B30002032117000E000BF00BF704769490860B3
:100B400070476449096A0143624A11627047654906
:100B500044390860704730B500210022002400238A
:100B60005C4D6D6805F00C0121B1042905D0082900
:100B700023D105E05C4D056022E05B4D05601FE080
:100B8000544D6D6805F47012524D6D6805F4803453
:100B9000022505EB92421CB9544D554305600BE00C
:100BA0004C4D6D6805F400351DB1504D5543056041
:100BB00002E04D4D5543056002E04B4D056000BF1E
:100BC00000BF444D6D6805F0F0010909484D6B5CAC
:100BD0000568DD4045603F4D6D6805F4E061090A38
:100BE000434D6B5C4568DD4085603A4D6D6805F4AA
:100BF0006051C90A3E4D6B5C4568DD40C560354DAE
:100C00006D6805F44041890B3A4D6B5CC568B5FBD6
:100C1000F3F5056130BD29B12E4A526902432D4BCF
:100C20005A6104E02B4A526982432A4B5A61704749
:100C300029B1284A92690243264B9A6104E0254A69
:100C400092698243234B9A61704729B1214AD26944
:100C50000243204BDA6104E01E4AD26982431D4BF5
:100C6000DA61704729B11B4AD2680243194BDA6036
:100C700004E0184AD2688243164BDA60704729B103
:100C8000144A12690243134B1A6104E0114A1269B3
:100C90008243104B1A61704712494039086070470F
:100CA0000F49C86470470B49C87170470948406ACA
:100CB00040F0807007494862704701460020054AAD
:100CC00092680A400AB1012000E000207047014903
:100CD00088727047001002400000FFF8FFFFF6FE28
:100CE000000042428004424200127A0000093D00A6
:100CF000140000202400002010B50446BE488442A1
:100D000008D101218014FFF7ADFF0021A014FFF7E7
:100D1000A9FF16E0B948844208D101210014FFF769
:100D2000AEFF00212014FFF7AAFF0AE0B448844276
:100D300007D10121C013FFF7A2FF0021E013FFF745
:100D40009EFF10BD10B50022028802F441520B88AC
:100D50004C8823438C882343CC8823430C8923432A
:100D60004C8923438C892343CC8923431A43028033
:100D7000838B4FF2FF74234083830B8A038210BD61
:100D80002DE9F04F85B005460C464FF000090227CB
:100D90004FF000084FF0010B0026B246A88B4FF22F
:100DA00040010840A88302202884B5F81C90A06860
:100DB000022801D100BF38E0A08810B94FF0010B24
:100DC00001E04FF0020B8D48854200D100E000BFEA
:100DD0006846FFF7C0FEDDF800A0E088B0F5007FB0
:100DE0000AD14FEA1A2000EB80004000A168B0FB56
:100DF000F1F0401D86B20BE04FEA4B10BAFBF0F069
:100E000000EB80004000A168B0FBF1F0401D86B20D
:100E10000A20B6FBF0F606F00108A6EB0800C0F3C6
:100E20004F074FF6FF7000EA0828022F01DBFF2F63
:100E300002DD02274FF00008E08840EA080038434E
:100E40002884A088A1890843618808432188084331
:100E500040F4006040EA0909A5F81C9005B0BDE81F
:100E6000F08F0021018041808180C180018141811A
:100E70008181C18107210182704700210180418069
:100E80008180C1800221816000218181704721B170
:100E9000028842F04002028004E002884FF6BF73ED
:100EA0001A400280704721B1828B42F480628283B3
:100EB00004E0828B4FF6FF331A408283704730B5CF
:100EC000002400230C110125A540ABB21AB185887E
:100ED0001D43858002E085889D43858030BD1AB121
:100EE00083880B43838002E083888B438380704731
:100EF000818170470146888970474FF6FF629142B1
:100F000004D0028842F48072028004E002884FF626
:100F1000FF631A400280704721B1828842F00402C8
:100F2000828004E082884FF6FB731A40828070470B
:100F300002884FF2FF731A40028002880A4302803F
:100F40007047018841F480510180704721B10288C7
:100F500042F40052028004E002884DF6FF731A400A
:100F60000280704702460020012901D0108B00E06A
:100F7000908A70470146088A7047B1F5804F04D1C6
:100F8000028842F48042028004E002884BF6FF733C
:100F90001A40028070470246002013890B400BB1B3
:100FA000012000E000207047CA4302817047F0B57D
:100FB0000246002000240023002501F00F0701262F
:100FC000BE40B4B20B1101269E40B3B2968806EA29
:100FD00003051689264016B10DB1012000E000205E
:100FE000F0BD10B5002201F00F040123A3409AB216
:100FF000D343038110BD00000030014000380040A1
:10100000003C004010B50446FB48844209D1012150
:101010008803FFF727FE00214FF48040FFF722FEF0
:1010200032E0F648844209D101214804FFF727FE47
:1010300000214FF40030FFF722FE25E0F048844203
:1010400009D101218804FFF71AFE00214FF4802006
:10105000FFF715FE18E0EB48844209D10121C804CE
:10106000FFF70DFE00214FF40020FFF708FE0BE014
:10107000E548844208D101210805FFF700FE002160
:101080004FF48010FFF7FBFD10BD2DE9F04786B04F
:1010900005460E460024A24600BFA1460027B0899F
:1010A00000B100BF2F462C8A4CF6FF700440F08838
:1010B00004432C82AC894EF6F3100440B088318989
:1010C0000843718908430443AC81AC8A4FF6FF4062
:1010D0000440B0890443AC8201A8FFF73CFDC64838
:1010E000874202D1DDF810A001E0DDF80CA0A8894C
:1010F00000F4004040B10AEBCA0000EB0A1031686E
:101100004900B0FBF1F807E00AEBCA0000EB0A1057
:1011100031688900B0FBF1F86420B8FBF0F00401FD
:101120002009642101FB1089A88900F4004040B126
:10113000322000EBC900B0FBF1F000F007000443DF
:1011400008E0322000EB09106421B0FBF1F000F060
:101150000F0004432C8106B0BDE8F0874FF4165110
:10116000016000218180C18001810C214181002129
:101170008181704710B502460020108A4FF2FF03AC
:1011800018400B884C8823438C882343CC88234306
:101190001843108210BD0021018041808180C180F0
:1011A000704721B1828942F40052828104E0828931
:1011B0004DF6FF731A4082817047F0B50346002454
:1011C00000260025002040F66A17B94200D100BF72
:1011D0001846C1F3421401F01F06012707FA06F56D
:1011E000012C01D10C3004E0022C01D1103000E0C0
:1011F00014301AB107682F43076002E00768AF4355
:101200000760F0BD1AB1838A0B43838202E0838AB0
:101210008B4383827047028A4FF6F0731A40028232
:10122000028A0A430282704782894FF2FF731A4092
:10123000828182890A438281704721B1828942F08A
:101240000202828104E082894FF6FD731A40828196
:101250007047028A4FF6DF731A400282028A0A43FD
:101260000282704721B1028A42F48042028204E085
:10127000028A4BF6FF731A4002827047C1F30802DC
:101280008280704701468888C0F3080070478189D2
:1012900041F0010181817047028BD2B20283028B3F
:1012A00042EA012202837047028B02F47F420283EA
:1012B000028B0A430283704721B1828A42F02002E6
:1012C000828204E0828A4FF6DF731A40828270477E
:1012D00021B1828A42F01002828204E0828A4FF6B3
:1012E000EF731A408282704721B1828A42F008026D
:1012F000828204E0828A4FF6F7731A408282704736
:1013000021B1828942F40042828103E08289C2F3E2
:101310000E028281704721B1828A42F40062828289
:1013200004E0828A4FF2FF731A4082827047828AF9
:101330004FF6FB731A408282828A0A438282704788
:1013400021B1828A42F00202828204E0828A4FF650
:10135000FD731A408282704702460020B1F5007F7B
:1013600000D100BF13880B400BB1012000E000202A
:10137000704701F40072B2F5007F00D100BFCA438C
:101380000280704770B5024600240023002500202B
:1013900040F66A16B14200D100BFC1F3421501F018
:1013A0001F03012606FA03F3012D02D1968933406B
:1013B00006E0022D02D1168A334001E0968A3340BE
:1013C0000C12012606FA04F41688344013B10CB14D
:1013D000012000E0002070BD10B50022002340F67F
:1013E0006A14A14200D100BF0A1201249440A3B2A2
:1013F000DC43048010BD0000003801400044004080
:1014000000480040004C00400050004010B5044629
:10141000CC48844208D101210420FFF723FC00219D
:101420000420FFF71FFC46E0C748844208D1012191
:101430000820FFF717FC00210820FFF713FC3AE013
:10144000C248844208D101211020FFF70BFC002183
:101450001020FFF707FC2EE0BD48844208D101218F
:101460002020FFF7FFFB00212020FFF7FBFB22E0FD
:10147000B848844208D101214020FFF7F3FB002146
:101480004020FFF7EFFB16E0B348844208D101216A
:101490008020FFF7E7FB00218020FFF7E3FB0AE055
:1014A000AE48844207D101218015FFF7DBFB002104
:1014B000A015FFF7D7FB10BD10B501210846FFF7B7
:1014C000D1FB00210120FFF7CDFB10BD2DE9F0413C
:1014D000024600250026002000230024002791F862
:1014E00003C00CF00F0591F803C00CF0100CBCF118
:1014F000000F03D091F802C04CEA050591F800C036
:10150000BCF1000F31D0146800202BE04FF0010C2B
:101510000CFA00F3B1F800C00CEA03069E4220D199
:1015200083004FF00F0C0CFA03F7BC4305FA03FCE1
:101530004CEA040491F803C0BCF1280F06D14FF027
:10154000010C0CFA00FCC2F814C00AE091F803C0C8
:10155000BCF1480F05D14FF0010C0CFA00FCC2F8A9
:1015600010C0401C0828D1D31460B1F800C0BCF1F1
:10157000FF0F34DD546800202EE000F1080C4FF01E
:10158000010808FA0CF3B1F800C00CEA03069E4209
:1015900021D183004FF00F0C0CFA03F7BC4305FA7E
:1015A00003FC4CEA040491F803C0BCF1280F05D1F8
:1015B00000F1080C08FA0CF8C2F8148091F803C086
:1015C000BCF1480F07D100F1080C4FF0010808FAF0
:1015D0000CF8C2F81080401C0828CED35460BDE837
:1015E000F0814FF6FF710180022181700421C170EA
:1015F00070470246002093680B400BB1012000E0C9
:10160000002070470146886880B27047024600207B
:10161000D3680B400BB1012000E000207047014669
:10162000C86880B2704701617047416170470AB174
:10163000016100E041617047C16070474FF4803242
:101640000A438261816182618269826970470246D0
:101650000020434B18684FF68073184040EA021090
:1016600008433F4B186070473E49C8617047F0B56A
:101670000A46002300240021002500F00046B6F1B0
:10168000004F02D1364EF16901E0354E7168C0F36A
:10169000034583B200F44016B6F5401F08D121F08F
:1016A00070612F4E766826F070662D4F7E6012E0D6
:1016B00000F48016B6F5801F06D1032606FA05F45D
:1016C000A14341F0706106E0460D360103FA06F6CB
:1016D000B14341F0706122B1460D360103FA06F6BE
:1016E000314300F00046B6F1004F02D11C4EF161CB
:1016F00001E01B4E7160F0BD30B500228B071C0F5E
:101700000F2303FA04F2164B08338C1053F82430DD
:101710009343134C08348D1044F8253023468C1025
:1017200053F824308C07240F00FA04F423430C4CA4
:1017300008348D1044F8253030BD0A49DC3108608A
:101740007047000000080140000C014000100140FB
:101750000014014000180140001C0140002001401D
:10176000000001400000204230B943F2DB0281005A
:10177000A1F1C0410A6005E043F2D2028100A1F16B
:10178000C0410A606FF07042411C8900A1F1C04164
:101790000A608100A1F1C041C1F8042170471028FE
:1017A0000AD118214FF020421166402151664FF0B6
:1017B000FC319166D16610E01821F74A1160402192
:1017C0004FF02042C2F884104FF0FC31F24A083248
:1017D00011604FF02042C2F88C1070471820EE497B
:1017E0002031086000200906C1F8A4004FF0FC3049
:1017F000E94928310860091D0860091D0860704723
:10180000D0E901121143C2681143026911434269D0
:10181000114382691143C2691143026A1143426A4A
:101820001143826A1143C26A1143026B1143026879
:101830009200A2F1C0421160816808290BD10168B1
:101840008900A1F1C041096841F0400201688900A6
:10185000A1F1C0410A60416B0968426B526841EADC
:101860000211426B926841EA0221426B928941EA7D
:101870000241426B128A41EA0251426B127D41EAF7
:101880000261426B926911430268521C9200A2F1FC
:10189000C0421160C16AB1F5804F1BD1816B0968EC
:1018A000826B526841EA0211826B926841EA02211E
:1018B000826B128A41EA0251826B127D41EA026117
:1018C000826B9269114302689200A2F1C042C2F891
:1018D000041107E06FF0704201688900A1F1C04176
:1018E000C1F80421704730B500210022002344686C
:1018F00044F0080485682C43C5682C4305692C43D3
:10190000456944EA4524856944EA4531C469246847
:10191000C5696D6844EA0524C5692D8944EA054412
:10192000C5692D7B44EA0562046A2468056A6D680E
:1019300044EA0524056A2D8944EA0544056A2D7B9D
:1019400044EA05630468102C05D14FF02044216659
:10195000A266E36608E0904C21604FF02044C4F892
:1019600088208D4C0C34236030BD016841F010019B
:10197000426841EA4221826841EA4231864A203285
:101980001160C1680968C268526841EA0221C268F0
:10199000128941EA0241C268127B41EA02617E4A31
:1019A00028321160016909680269526841EA02211E
:1019B0000269128941EA02410269127B41EA02612D
:1019C000754A2C321160416909684269526841EADE
:1019D00002214269128941EA02414269127B41EACD
:1019E00002614FF02042C2F8B01070470021016040
:1019F0000221416000218160C1600161416181611A
:101A0000C16101624FF4805141624900816200214D
:101A1000C16201630F21426B1160426B5160FF2173
:101A2000426B91600F21426BD160426B1161426B3E
:101A300051610021426B91610F21826B1160826BB9
:101A40005160FF21826B91600F21826BD160826BAC
:101A50001161826B51610021826B9161704710218D
:101A60000160002141608160C1600161416181616B
:101A7000FC21C2691160C2695160C2699160C2698A
:101A8000D160026A1160026A5160026A9160026A62
:101A9000D16070470021016041608160FC21C26813
:101AA0001160C2685160C2689160C268D160026909
:101AB000116002695160026991600269D1604269F6
:101AC000116042695160426991604269D16070471A
:101AD00051B18200A2F1C042126842F001038200BB
:101AE000A2F1C042136009E08200A2F1C042126874
:101AF0002A4B1A408300A3F1C0431A60704799B182
:101B0000102808D14FF02042126E42F004024FF02C
:101B100020431A661DE0204A126842F004024FF08A
:101B20002043C3F8802014E0102809D14FF0204250
:101B3000126E1A4BDB1E1A404FF020431A6608E063
:101B4000154A1268154BDB1E1A404FF02043C3F8AC
:101B50008020704748B110492031096841F00401E4
:101B60004FF02042C2F8A01009E00B49203109686B
:101B70000A4AD21E11404FF02042C2F8A01070470E
:101B8000B9B110280CD14FF02042126E42F0400241
:101B90004FF020431A661FE0800000A0FEFF0F00F8
:101BA000724A126842F040024FF02043C3F880208E
:101BB00012E0102808D14FF02042126E6C4B1A40F0
:101BC0004FF020431A6607E0684A1268684B1A40D3
:101BD0004FF02043C3F880207047014600201029B1
:101BE00003D14FF02042506F02E0604A1432106877
:101BF000704710B5F2B1102807D14FF020435B6E4B
:101C00000B434FF02044636632E0B0F5807F08D18B
:101C1000564B1B1D1B680B434FF02044C4F8843007
:101C200026E0524B24331B680B434FF02044C4F88A
:101C3000A4301DE0102807D14FF020435B6E8B438A
:101C40004FF02044636613E0B0F5807F08D1474B26
:101C50001B1D1B688B434FF02044C4F8843007E001
:101C6000424B24331B688B434FF02044C4F8A4300C
:101C700010BD10B5024600200023102A03D14FF0FA
:101C80002044636E09E0B2F5807F03D1374C241DF8
:101C9000236802E0354C2434236803EA01040CB1C4
:101CA000012000E0002010BD102807D14FF0204295
:101CB000526E8A434FF020435A6613E0B0F5807F9E
:101CC00008D12A4A121D12688A434FF02043C3F8F4
:101CD000842007E0254A243212688A434FF02043CB
:101CE000C3F8A420704770B50246002000230024EA
:101CF0000025102A03D14FF02046736E09E0B2F59B
:101D0000807F03D1194E361D336802E0174E24360A
:101D1000336803EA010403EAD10514B10DB10120CF
:101D200000E0002070BD102808D14FF02042526E14
:101D300022EAD1024FF020435A6615E0B0F5807FC9
:101D400009D10A4A121D126822EAD1024FF020433B
:101D5000C3F8842008E0054A2432126822EAD1023E
:101D60004FF02043C3F8A42070470000800000A07B
:101D7000BFFF0F0010B50446FE48844208D1012180
:101D8000C014FEF76FFF0021E014FEF76BFFC4E004
:101D9000B4F1804F08D101210846FEF770FF002101
:101DA0000120FEF76CFFB8E0F348844208D101211E
:101DB0000220FEF764FF00210220FEF760FFACE086
:101DC000EE48844208D101210420FEF758FF00218B
:101DD0000420FEF754FFA0E0E948844208D1012125
:101DE0000820FEF74CFF00210820FEF748FF94E092
:101DF000E448844208D101211020FEF740FF002171
:101E00001020FEF73CFF88E0DF48844208D1012122
:101E10002020FEF734FF00212020FEF730FF7CE079
:101E2000DA48844208D101214014FEF71BFF00214B
:101E30006014FEF717FF70E0D548844209D10121F4
:101E4000C804FEF70FFF00214FF40020FEF70AFF41
:101E500063E0D048844209D101210805FEF702FF62
:101E600000214FF48010FEF7FDFE56E0CA48844280
:101E700009D101214805FEF7F5FE00214FF40010BD
:101E8000FEF7F0FE49E0C548844208D10121402018
:101E9000FEF7F5FE00214020FEF7F1FE3DE0C048D0
:101EA000844208D101218020FEF7E9FE0021802034
:101EB000FEF7E5FE31E0BB48844208D101218015E0
:101EC000FEF7DDFE0021A015FEF7D9FE25E0B6489D
:101ED000844209D101210804FEF7C4FE00214FF419
:101EE0008030FEF7BFFE18E0B048844209D10121DE
:101EF0004804FEF7B7FE00214FF40030FEF7B2FEB3
:101F00000BE0AB48844208D101218804FEF7AAFE09
:101F100000214FF48020FEF7A5FE10BD00220288AC
:101F2000944B98420ED0994B98420BD0B0F1804F11
:101F300008D0914B984205D0904B984202D0904BDC
:101F4000984204D14FF68F731A404B881A438D4B39
:101F5000984207D08C4B984204D04FF6FF431A406A
:101F6000CB881A4302808B8883850B880385814B3D
:101F700098420BD0854B984208D08B4B984205D0A5
:101F80008A4B984202D08A4B984201D10B7A038641
:101F900001238382704770B5002400220023058C42
:101FA0004FF6FE7635400584028C8388048B4FF60D
:101FB0008F752C40B51E2C400D882C43751E2A4071
:101FC0000D892A434D882A436A4DA8420BD06F4D94
:101FD000A84208D0744DA84205D0744DA84202D042
:101FE000734DA84213D14FF6F7752A404D892A4305
:101FF0004FF6FB752A408D882A434FF6FF652B402C
:102000004FF6FF552B408D892B43CD892B43838081
:102010000483CD888586028470BD70B500240022BB
:102020000023058C4FF6EF7635400584028C8388BB
:10203000048B48F6FF752C404FF6FF452C400D8869
:102040004FF6FF7606EA05252C434FF6DF752A404A
:102050000D8906EA05152A434D8806EA05152A4327
:10206000444DA84202D0494DA8421DD14FF67F757C
:102070002A404D894FF6FF7606EA05152A434FF6AA
:10208000BF752A408D8806EA05152A434FF6FF35AD
:102090002B404FF2FF752B408D8906EA85052B43B7
:1020A000CD8906EA85052B4383800483CD88058787
:1020B000028470BD70B5002400220023058C4FF609
:1020C000FF6635400584028C8388848B4FF68F75BC
:1020D0002C404FF6FC752C400D882C434FF6FF55D5
:1020E0002A400D894FF6FF7606EA05252A434D88DA
:1020F00006EA05252A431F4DA84202D0234DA842D7
:102100001DD14FF2FF752A404D894FF6FF7606EA42
:1021100005252A434FF6FF352A408D8806EA052516
:102120002A434EF6FF752B404DF6FF752B408D89E7
:1021300006EA05152B43CD8906EA05152B43838056
:102140008483CD888587028470BD70B5002200230A
:102150000024058C4EF6FF7635400584038C848878
:10216000828B48F6FF752A404FF6FF452A400D88BE
:1021700020E00000002C0140000400400008004066
:10218000000C0040001000400014004000340140EA
:10219000004C014000500140005401400018004034
:1021A000001C00400020004000400140004401406D
:1021B000004801404FF6FF7606EA05252A434DF612
:1021C000FF752B400D8906EA05352B434D8806EA3D
:1021D00005352B43FA4DA84202D0FA4DA84208D14A
:1021E0004BF6FF752C408D894FF6FF7606EA851574
:1021F0002C4384808283CD88A0F84050038470BD36
:10220000828B4FF2FF331A408283828B4FF6FF732B
:1022100003EA01231A4382837047F0B50C46154642
:10222000002200210026078C4EF6FF7C07EA0C07EF
:102230000784828B018C4FF6FF7707EA043640F65D
:10224000FF473A404FF6FF7707EA05273A434FF634
:10225000FF7707EA03373A43D94FB8420ED0D94F38
:10226000B8420BD0B0F1804F08D0D74FB84205D05C
:10227000D64FB84202D0D64FB84206D14DF6FF77BE
:10228000394046F48057394305E047F6FF57394057
:1022900044F48057394382830184F0BD828B4FF62A
:1022A000F3731A408283828B0A4382837047F0B5AE
:1022B0000C461546002200210026078C4FF6FF6CC5
:1022C00007EA0C070784828B018C4FF6FF7707EA39
:1022D00004264FF60C773A404FF6FF7707EA0317CC
:1022E0002F433A43B64FB8420ED0B64FB8420BD048
:1022F000B0F1804F08D0B44FB84205D0B34FB842C8
:1023000002D0B34FB84206D14FF6FF57394046F4DA
:102310008077394305E04FF2FF57394044F4807726
:10232000394382830184F0BD028B4FF2FF331A40A0
:102330000283028B4FF6FF7303EA01231A430283E1
:102340007047F0B50C461546002200210026078C88
:102350004FF6EF7C07EA0C070784028B018C4FF6DF
:10236000FF7707EA041640F6FF473A404FF6FF773B
:1023700007EA03373A434FF6FF7707EA05273A4360
:102380008F4FB8420ED08F4FB8420BD0B0F1804F74
:1023900008D08D4FB84205D08C4FB84202D08C4F38
:1023A000B84206D14FF6DF77394046F0100739437F
:1023B00005E04FF65F77394044F010073943028358
:1023C0000184F0BD028B4FF6F3731A400283028B37
:1023D0000A4302837047F0B50C46154600220021DF
:1023E000068C4FF6FE773E400684028B018C4FF63A
:1023F0000C7632407E1C06EA03162E433243704EA2
:10240000B0420ED06F4EB0420BD0B0F1804F08D02A
:102410006D4EB04205D06D4EB04202D06C4EB0420F
:1024200006D14FF6FD76314044F00106314305E018
:102430004FF6F576314044F00106314302830184C2
:10244000F0BD70B505460C465D4885420ED05D482E
:1024500085420BD0B5F1804F08D05B48854205D04E
:102460005A48854202D05A48854200D100E000BF58
:10247000208850B92389A28861882846FFF7ABFFDE
:10248000E1882846FFF79EFF25E0208804280AD12E
:102490002389A28861882846FFF753FFE1882846F0
:1024A000FFF742FF17E0208808280AD12389A28875
:1024B00061882846FFF7FBFEE1882846FFF7EEFE1D
:1024C00009E02389A28861882846FFF7A6FEE188F3
:1024D0002846FFF795FE70BD2DE9F04105460C46F4
:1024E00000260127608808B9022600E00026A0889F
:1024F000012801D1022700E001272088A0B9238903
:10250000A28861882846FFF766FFE1882846FFF722
:1025100059FF23893A4631462846FFF712FFE188E2
:102520002846FFF701FF13E02389A2886188284627
:10253000FFF707FFE1882846FFF7F6FE23893A46B2
:1025400031462846FFF747FFE1882846FFF73AFF64
:10255000BDE8F0810A884B881A438B881A43CB88E0
:102560001A430B891A434B891A438B891A43A0F8E3
:10257000442070474FF6FF71818000210180C180A7
:102580004180017270470021018041808180C180BB
:10259000018141818181C181704700210180418099
:1025A000012181800021C1800181704700210180CB
:1025B00041808180C180018141818181704700001B
:1025C000002C01400034014000040040000800409D
:1025D000000C004021B1028842F00102028004E0B8
:1025E00002884FF6FE731A400280704731B1B0F88E
:1025F000442042F40042A0F8442005E0B0F8442012
:10260000C2F30E02A0F8442070471AB183890B432D
:10261000838102E083898B43838170478182704785
:1026200041EA0203A0F8483070471AB183890B438E
:10263000838102E083898B438381704701894FF650
:10264000F8721140018170470A46002101894FF656
:102650008F73194011430181704730B504460D4610
:1026600029462046FFF7F0FF208940F0070020812F
:1026700030BD2DE9F04104460D4616461F46602D3B
:1026800006D13B46012231462046FFF75AFE05E0BF
:102690003B46012231462046FFF79DFE2946204653
:1026A000FFF7D2FF208940F007002081BDE8F081CC
:1026B00030B50C4600210189C9B24FF6FF7505EA15
:1026C0000325154325432943018130BD2DE9F04100
:1026D00005460E4617469846002443463A4631467C
:1026E0002846FFF7E5FF2C894FF6F870044044F0C8
:1026F00007044FF68F70044044F070042C81BDE84D
:10270000F081F0B504460D4616461F463B4632465C
:1027100029462046FFF7CCFF208940F480402081E5
:10272000F0BD0185828270470A46002101884FF67C
:102730008F731940114301807047F0B50C46154660
:102740001E460021002200230189028B038C4FF6D4
:10275000F877394021434FF6FC473A4040F20117E1
:102760003A434FF6DD773B404FF6FF7707EA06170F
:102770002F433B43018102830384F0BD0A460021BD
:10278000018B4FF68F7319401143018370470A463E
:102790000021018B48F6FF7319404FF6FF7303EADF
:1027A00002231943018370470A460021818B4FF6AB
:1027B0008F7319401143818370470A460021818B32
:1027C00048F6FF7319404FF6FF7303EA02231943DB
:1027D0008183704721B1028842F08002028004E0C8
:1027E00002884FF67F731A400280704721B18288B9
:1027F00042F00402828004E082884FF6FB731A40A4
:102800008280704721B1828842F00802828004E011
:1028100082884FF6F7731A408280704721B1828810
:1028200042F00102828004E082884FF6FE731A4073
:10283000828070470A460021018B4FF6F7731940DA
:102840001143018370470A460021018B4FF2FF7349
:1028500019404FF6FF7303EA0223194301837047BF
:102860000A460021818B4FF6F7731940114381838B
:1028700070470A460021818B4FF2FF7319404FF6D3
:10288000FF7303EA02231943818370470A4600213C
:10289000018B4FF6FB7319401143018370470A46C1
:1028A0000021018B4FF6FF3319404FF6FF7303EA07
:1028B00002231943018370470A460021818B4FF69A
:1028C000FB7319401143818370470A460021818BB5
:1028D0004FF6FF3319404FF6FF7303EA0223194303
:1028E000818370470A460021018B4FF67F731940A0
:1028F0001143018370470A460021018BC1F30E0189
:102900004FF6FF7303EA02231943018370470A4617
:102910000021818B4FF67F731940114381837047EB
:102920000A460021818BC1F30E014FF6FF7303EAC3
:1029300002231943818370470A460021018C4FF618
:10294000FD7319401143018470470A460021018C30
:102950004FF6F77319401143018470470A4600216E
:10296000018C4FF6DF7319404FF6FF7303EA021331
:102970001943018470470A460021018C4FF67F738A
:1029800019404FF6FF7303EA02131943018470479D
:102990000A460021018C4FF6FF5319404FF6FF7392
:1029A00003EA02231943018470470A460021018C7F
:1029B0004FF2FF7319404FF6FF7303EA02231943E6
:1029C000018470470A460021018C4DF6FF731940BF
:1029D0004FF6FF7303EA023319430184704730B5A1
:1029E000002301248C40A3B2048C9C430484048CF7
:1029F00002FA01F5ADB22C43048430BD30B500239A
:102A000004248C40A3B2048C9C430484048C02FAFA
:102A100001F5ADB22C43048430BD70B503460020EF
:102A200000241846183001258D40ACB21D8CA543FA
:102A30001D8409B1082909D100EB6100056825F062
:102A4000700505600568154305600EE00D1FC5F3B0
:102A50004E052844056825F4E045056005684FF6F5
:102A6000FF7606EA02263543056070BD21B1028873
:102A700042F00202028004E002884FF6FD731A4021
:102A80000280704721B1028842F00402028004E013
:102A900002884FF6FB731A400280704721B182888A
:102AA00042F08002828004E082884FF67F731A40F1
:102AB0008280704702884FF6F7731A4002800288BE
:102AC0000A430280704782884FF68F731A408280D3
:102AD00082880A438280704702894FF6F8731A4051
:102AE000028102890A430281704702894FF67F738F
:102AF0001A40028102890A4302817047818470472B
:102B0000818570478186704701877047818770474C
:102B1000A0F84010704702884FF6FF431A40028029
:102B200002880A43028070470146888E704701463A
:102B3000088F70470146888F70470146B1F8400002
:102B400070470146888C70470146088D70470246E1
:102B50000020138A0B400BB1012000E000207047D9
:102B6000CA430282704730B5024600200023002489
:102B7000158A05EA0103958905EA010413B10CB130
:102B8000012000E0002030BDCA43028270470000EF
:102B9000002044490860091D0860091D0860091DDE
:102BA000086041483F4914310860704700213D49A1
:102BB0008279002A3AD00A46126803689A430B4683
:102BC0001A600A1D126803689A430B1D1A60027985
:102BD00011440A6803681A430A60324A08321268CC
:102BE00003689A432F4B08331A601A1D1268036852
:102BF0009A432C4B0C331A604279102A0ED11A1FBB
:102C0000126803681A43274B08331A601A1D1268AA
:102C100003681A43234B0C331A600DE021494279B3
:102C200011440A6803681A430A6005E002791144F6
:102C30000A6803689A430A607047002101600171C5
:102C40000C214171002181717047164910310968CA
:102C50000143144A10321160704701460020114AA6
:102C6000143212680A400AB1012000E000207047C7
:102C70000C49143108607047014600200022094BBE
:102C80001B6803EA0102074B14331B680B4013B1A6
:102C90000AB1012000E000207047024914310860A9
:102CA0007047000000040140FFFF0F0010B56FF0F7
:102CB0000400FDF730FE2E4800682E49B0FBF1F00D
:102CC0002D4908700846007800EB4001C1EBC010A8
:102CD0004FF6FF7101EAC0002849088010BD014687
:102CE000254A12784A434FF0E0235A6100229A6144
:102CF0001A46126942F001021A6100BF4FF0E02249
:102D0000106900F001021AB100F48032002AF5D0F7
:102D10004FF0E022126922F001024FF0E0231A6125
:102D200000229A6170470146144A12884A434FF0C4
:102D3000E0235A6100229A611A46126942F00102A8
:102D40001A6100BF4FF0E022106900F001021AB1D1
:102D500000F48032002AF5D04FF0E022126922F010
:102D600001024FF0E0231A6100229A6170470000CF
:102D70000000002000127A00280000202A00002015
:102D800030BF704772B6704762B67047014600BFE9
:102D9000704700BF494A128802F04002002AF9D069
:102DA000C2B2464B1B1D1A80704710B586B0044650
:102DB000012144F20400FDF73BFF4FF40070ADF831
:102DC000140003208DF8160018208DF8170005A9AF
:102DD0003B48FEF77BFB4FF48060ADF81400042005
:102DE0008DF8170005A93648FEF770FB25208DF8F1
:102DF000000003208DF801008DF8020001208DF8FD
:102E000003006846FDF73DFD01940020ADF8080081
:102E1000ADF80A00ADF80C00ADF810000C20ADF8CC
:102E20000E0001A92548FEF730F9012240F2255194
:102E30002248FEF7C2F901212048FEF7B2F906B098
:102E400010BD10B540F225511C48FEF79BFA10B397
:102E50001A48FEF717FAC4B21A48008800F4004076
:102E6000C8B91848008800F4804060B10A2C03D02B
:102E700000201449088020E01248008840F40040F7
:102E80001049088019E00D2C06D10E48008840F446
:102E900080400C49088010E00A480088C0F30D000B
:102EA00009490C5407480088401C06490880084618
:102EB0000088C72801DD0020088010BD00380140CF
:102EC00000080140300000205802002008B5012110
:102ED0004820FDF7ADFE2020ADF8000010208DF851
:102EE000030003208DF8020069460948FEF7EEFA58
:102EF00020210748FEF797FB2020ADF80000694627
:102F00000448FEF7E3FA20210248FEF78CFB08BDD7
:102F1000000C01400018014008B501214420FDF7D4
:102F200087FE1C20ADF8000048208DF8030069469C
:102F30003548FEF7CBFA0120ADF8000028208DF8C7
:102F4000030069463148FEF7C1FA08BD10B50446D2
:102F500014B101202E4908702D480078002837D080
:102F600010212948FEF745FB78B108212648FEF7D5
:102F700040FB50B104212448FEF73BFB28B101215E
:102F80002248FEF736FB012822D10A20FFF7CBFEAC
:102F900000201F49087010211B48FEF72AFB08B9C2
:102FA000012010BD08211848FEF723FB08B90220B4
:102FB000F7E704211448FEF71CFB08B90320F0E7EB
:102FC00001211248FEF715FB01281BD10420E8E778
:102FD00010210D48FEF70DFB012813D108210A48E6
:102FE000FEF707FB01280DD104210748FEF701FB7E
:102FF000012807D101210548FEF7FBFA10B901208D
:10300000034908700020CCE7001801400008014087
:1030100032000020F74908807047F649891C088073
:10302000704708B5F348801C00880090BDF8000088
:1030300008BDF04A1080921C1180704710B50446FC
:103040002046FFF7E7FF0520FFF749FEFFF7E9FFFE
:1030500010BDE9480089E74908807047E549891CA7
:103060000880704730B5014601F01F04C1F34513D5
:10307000CA0AE50205EB43151544A8B230BD00BFEE
:10308000011EA0F10102D0B2FAD1704710B503467B
:103090000C46D948808849F24131884205D0D6484B
:1030A000808845F21031884214D1D3494889FFF70E
:1030B000B1FF1812FFF7B1FFD8B2FFF7AEFFCE494C
:1030C0008889FFF7A7FF2012FFF7A7FFE0B2FFF7FD
:1030D000A4FFABE0C848808846F6040188421DD1B1
:1030E000C5488079012804D1C3480088401EC01A11
:1030F00083B2C1494889FFF78DFF1812FFF78DFF92
:10310000D8B2FFF78AFFBC498889FFF783FF2012F6
:10311000FFF783FFE0B2FFF780FF87E0B6488088C3
:1031200041F66311884247D1B3488079A8B9B248C3
:103130000088401EC01A83B2AF494889FFF76AFF72
:103140000020FFF76AFF0020FFF767FF1812FFF764
:1031500064FFD8B2FFF761FF16E0A7494889FFF77F
:1031600059FF1812FFF759FFD8B2FFF756FFA249CF
:103170000988491EC1F30F20FFF74FFF9E490978C8
:10318000491EC8B2FFF749FF9B498889FFF742FFF4
:103190002012FFF742FFE0B2FFF73FFF9649498850
:1031A000491EC1F30F20FFF738FF93498978491E64
:1031B000C8B2FFF732FF39E08F48808845F21051DE
:1031C000884220D18C494889FFF724FF1812FFF765
:1031D00024FF89494989491C88B2FFF71BFFD8B2EF
:1031E000FFF71BFF84498889FFF714FF2012FFF7C0
:1031F00014FF81498989491C88B2FFF70BFFE0B2AF
:10320000FFF70BFF12E07C488079012804D17A484F
:103210000088401EC01A83B2774948891946FFF7D3
:1032200008FF754988892146FFF703FF10BD2DE986
:10323000F04105460E4600240027A0466E4800884F
:10324000A84203DD6C484088B04202DC0020BDE8A3
:10325000F08131462846FFF719FF6748808849F218
:103260004131884211D06448808846F60401884282
:103270000BD06148808845F21031884205D05E4805
:10328000808841F66311884203D12E20FFF7C2FEE9
:103290000DE05948808845F21051884204D14FF41E
:1032A0003850FFF7B7FE02E02220FFF7B3FE524886
:1032B000808849F22031884202D10220FFF7DFFEE8
:1032C000FFF7AFFE04464C48808841F66311884200
:1032D00001D12046BBE70220FFF7D1FEFFF7A1FE98
:1032E00004464548808849F2413188420BD0424823
:1032F000808845F21031884205D03F48808845F2E9
:10330000105188420AD10220FFF7B9FEFFF789FE6B
:103310008046E7B24FF6FF7000EA072736488088FC
:1033200049F22531884216D03348808844F235511D
:10333000884210D030488088091F88420BD02E4820
:1033400080884BF20551884205D02B4880884CF28A
:103350000551884201D1204679E72748808849F203
:10336000413188420BD02448808845F21031884290
:1033700005D02148808845F21051884207D1E012DB
:10338000C002B91240EA411040EAE8205FE7204657
:10339000FFF768FE5BE700B51748808849F24131C6
:1033A000884211D01448808846F6040188420BD028
:1033B0001148808845F21031884205D00E48808837
:1033C00041F66311884203D12920FFF723FE0FE065
:1033D0000948808845F21051884204D14FF42450A6
:1033E000FFF718FE04E040F273110720FFF721FEFB
:1033F00000BD0000FE07006C2003002000B5FD4862
:10340000808849F24131884211D0FA48808846F6D6
:10341000040188420BD0F748808845F21031884279
:1034200005D0F448808841F66311884203D12820F2
:10343000FFF7F0FD0EE0EF48808845F2105188421A
:1034400004D14FF42050FFF7E5FD03E000210720F1
:10345000FFF7EFFD00BD70B5044600230026E548E8
:10346000807901280BD1E348808846F60401884220
:1034700005D0E048808841F66311884208D1DD48D4
:103480008079F0B9DB48808841F66311884218D111
:10349000082C15D2DFE804F00406080A0C0E1012FE
:1034A00006240DE007240BE0042409E0052407E0CE
:1034B000012405E0002403E0032401E0022400BF0E
:1034C00000BFCC48808849F24131884217D0C948B2
:1034D000808846F60401884211D0C648808845F2AB
:1034E000103188420BD0C348808845F21051884281
:1034F00005D0C048808841F6631188427ED1082CEF
:103500001CD2DFE804F00406090C0F12151800BFE6
:1035100014E043F0800311E043F040030EE043F079
:10352000C0030BE043F0200308E043F0600305E034
:1035300043F0A00302E043F0E00300BF00BFAD484A
:10354000808845F21051884202D14FF4585600E06D
:103550003626A848808845F2103188420DD0A5480B
:10356000808845F21051884207D0A248808841F6F1
:103570006311884201D043F008039E48808846F6D4
:103580000401884201D143F0020319463046FFF797
:1035900050FD9848808841F6631188421DD003F0A1
:1035A000200068B19348008892494988884214DA1B
:1035B0009048058840888F490880084645800CE07F
:1035C0008C4800888B494988884206DD89480588EF
:1035D000408888490880084645808648808845F2AA
:1035E0001051884254D183494889FFF713FD0020C8
:1035F000FFF713FD7F494989491C00E077E088B255
:10360000FFF708FD0020FFF708FD7A494989891C6A
:1036100088B2FFF7FFFC77490988491EC1F30F20E4
:10362000FFF7FBFC73494989C91C88B2FFF7F2FC1C
:1036300070490978491EC8B2FFF7EFFC6D498889C7
:10364000FFF7E8FC0020FFF7E8FC6A498989491C7C
:1036500088B2FFF7DFFC0020FFF7DFFC65498989AE
:10366000891C88B2FFF7D6FC62494988491EC1F31C
:103670000F20FFF7D2FC5F498989C91C88B2FFF788
:10368000C9FC5C498978491EC8B2FFF7C6FC55E001
:1036900058494889FFF7BEFC0020FFF7BEFC002018
:1036A000FFF7BBFC53490988491EC1F30F20FFF700
:1036B000B4FC50490978491EC8B2FFF7AEFC4D4929
:1036C0008889FFF7A7FC0020FFF7A7FC0020FFF781
:1036D000A4FC48494988491EC1F30F20FFF79DFC0F
:1036E00044498978491EC8B2FFF797FC26E0082CA8
:1036F0001CD2DFE804F004070A0D0F12151843F07E
:10370000300313E043F0100310E043F020030DE01A
:1037100000BF0BE043F0380308E043F0280305E066
:1037200043F0180302E043F0080300BF00BF032684
:1037300043F4805319463046FFF77BFC70BD30B52B
:1037400004460D4629462046FFF7A0FCFFF781FC02
:10375000294800882949088030BD30B503460C4609
:1037600015462448808849F24131884205D02148D5
:10377000808845F21031884214D11E494889FFF7EC
:1037800049FC1812FFF749FCD8B2FFF746FC19496B
:103790008889FFF73FFC2012FFF73FFCE0B2FFF7FC
:1037A0003CFC93E01348808845F21051884227D1B1
:1037B00010494889FFF72EFC1812FFF72EFC0D491F
:1037C0004989491C88B2FFF725FCD8B2FFF725FCD0
:1037D00008498889FFF71EFC2012FFF71EFC0549E7
:1037E0008989491C88B2FFF715FCE0B2FFF715FC88
:1037F0006CE0000020030020340000200008006C72
:10380000FC48808841F66311884228D1F9488079C4
:1038100020B9F8480088401EC01A83B2F54948898B
:10382000FFF7F8FB1812FFF7F8FBD8B2FFF7F5FB2C
:103830001812FFF7F2FBD8B2FFF7EFFBED498889CA
:10384000FFF7E8FB2012FFF7E8FBE0B2FFF7E5FB2C
:103850002012FFF7E2FBE0B2FFF7DFFB36E0E548BE
:10386000808846F6040188421DD1E248807901280B
:1038700004D1E0480088401EC01A83B2DD4948895F
:10388000FFF7C8FB1812FFF7C8FBD8B2FFF7C5FB5C
:10389000D8498889FFF7BEFB2012FFF7BEFBE0B2D4
:1038A000FFF7BBFB12E0D3488079012804D1D1484F
:1038B0000088401EC01A83B2CE4948891946FFF7D6
:1038C000B8FBCC4988892146FFF7B3FBC94800897A
:1038D000C9490880881C058030BD2DE9F0470446A1
:1038E000BE20FFF797FB0520FFF797FB204611F05E
:1038F00000F907464FF06632C04B11F00DF905464E
:1039000011F0CAF81FFA80F94846FFF786FB01203C
:10391000FFF783FBFF20FFF780FB0020FFF77DFB15
:103920000020FFF77AFBBDE8F08710B50446002CB5
:1039300066D1B0498871F02008804FF4A0704880AB
:103940000846808849F2413188420BD0A9488088D6
:1039500046F60401884205D0A648808845F2103119
:1039600088421AD12C20A34908812A2048812B2083
:1039700088810846808846F60401884205D09D4823
:10398000808845F21031884206D14FF4A0709949E1
:1039900008804FF4F0704880A1E09648808845F296
:1039A0001051884210D14FF43050924908814FF4A1
:1039B000285048814FF42C5088814FF4F0700880D3
:1039C0004FF4487048808AE08A48808841F6631145
:1039D00088420DD12C20874908812B2048812A203C
:1039E00088814FF4F07008804FF44870488076E08A
:1039F00022208049088120204881212088816EE092
:103A000001207C4988714FF4A0700880F020488024
:103A10000846808849F24131884205D0754880883F
:103A200045F21031884207D12C20724908812A20A2
:103A300048812B2088813FE06E48808846F604014B
:103A4000884207D12C206B4908812B2048812A20ED
:103A5000888131E06748808845F21051884210D152
:103A60004FF43050634908814FF4285048814FF497
:103A70002C5088814FF4487008804FF4F0704880D3
:103A80001AE05C48808841F6631188420DD12C20F1
:103A9000584908812A2048812B2088814FF448709A
:103AA00008804FF4F070488006E0222051490881D8
:103AB00021204881202088814E48808846F60401D4
:103AC000884205D04B48808845F21031884206D1A3
:103AD0004FF4F070474908804FF4A07048800020F0
:103AE000FFF7B9FC10BD2DE9F04F86B004460D4636
:103AF0009046994604EB0800401E86B205EB09008B
:103B0000401E87B23B48808849F24131884215D037
:103B10003848808845F2103188420FD03548808877
:103B200046F60401884209D032488079012826D11E
:103B30003048808841F66311884220D12D49488958
:103B4000FFF768FA2012FFF768FAE0B2FFF765FAAC
:103B50003012FFF762FAF0B2FFF75FFA2549888961
:103B6000FFF758FA2812FFF758FAE8B2FFF755FAAC
:103B70003812FFF752FAF8B2FFF74FFABEE01D48CD
:103B8000808841F6631188423AD11A480088A0EB38
:103B90000800001B84B205EB0900401E1FFA80F9E3
:103BA00014494889FFF736FA2012FFF736FAE0B2D7
:103BB000FFF733FA04EB0801491EC1F30F20FFF7AA
:103BC0002CFA04EB0801491EC8B2FFF726FA09498E
:103BD0008889FFF71FFA2812FFF71FFAE8B2FFF7EC
:103BE0001CFA4FEA2920FFF718FA09F0FF00FFF747
:103BF00014FA83E020030020FE07006C6666044090
:103C0000FE48808845F21051884244D1FB494889DA
:103C1000FFF700FA2012FFF700FAF8494989491C1A
:103C200088B2FFF7F7F9E0B2FFF7F7F9F3494989EE
:103C3000891C88B2FFF7EEF93012FFF7EEF9EF4971
:103C40004989C91C88B2FFF7E5F9F0B2FFF7E5F939
:103C5000EA498889FFF7DEF92812FFF7DEF9E7491C
:103C60008989491C88B2FFF7D5F9E8B2FFF7D5F981
:103C7000E2498989891C88B2FFF7CCF93812FFF72D
:103C8000CCF9DE498989C91C88B2FFF7C3F9F8B2BB
:103C9000FFF7C3F932E0D948807901280ED1AA464E
:103CA000BB46D6480088801B401E80B20190D34896
:103CB0000088001B401E80B2009003E0A246B3467D
:103CC00001950097502005905120049052200390B8
:103CD0005320029051460598FFF7ABF959460498D6
:103CE000FFF7A7F901990398FFF7A3F90099029844
:103CF000FFF79FF929462046FFF7C8F906B0BDE84F
:103D0000F08F70B504460026BC48058840884543BE
:103D1000BA48808846F60401884216D1B7488079AF
:103D2000012812D10020B54988712A2048812B2012
:103D3000888100210846FFF7A9F90120AF49887161
:103D40002B2048812A20888103E000210846FFF7C4
:103D50009DF9FFF77EF9002602E0A9480480761C51
:103D6000AE42FAD370BD00B59FB001210802FCF746
:103D700052FF01214FF4B470FCF75AFF0120ADF857
:103D8000780010208DF87B0003208DF87A001EA9A2
:103D90009C48FDF79BFB4CF23370ADF8780018207F
:103DA0008DF87B0003208DF87A001EA99648FDF758
:103DB0008DFB4FF68070ADF8780018208DF87B00F1
:103DC00003208DF87A001EA99048FDF77FFB41F291
:103DD0000100ADF8780018208DF87B0003208DF8E5
:103DE0007A001EA98A48FDF771FB01200890002087
:103DF00009900F200A9000200B900C900D900E90CF
:103E000001900290032003900020049005900690FA
:103E1000079006200F900020109011901020129013
:103E20000020139015901490169017904FF4805026
:103E30001890002019904FF480401A9000201B9099
:103E400008A81C9001A81D900FA8FDF7D9FC01211E
:103E50000620FDF73DFE3220FEF765FF0020FFF74C
:103E6000EDF86649888008468088FF280ADB084606
:103E700080884FF6FF71884204D060488088B0F592
:103E8000134F7CD1D320FFF7C5F8FFF7CAF85B4981
:103E90008880FFF7C6F859498880FFF7C2F857496C
:103EA0008880084680884FF6FF7101EA0020534958
:103EB0008880FFF7B6F85149898808434F498880C0
:103EC0000846808849F24131884258D0BF20FFF728
:103ED000A1F8FFF7A6F849498880FFF7A2F84749FB
:103EE0008880FFF79EF845498880FFF79AF8434994
:103EF0008880084680884FF6FF7101EA00203F491C
:103F00008880FFF78EF83D49898808433B498880BF
:103F10000846808846F60401884230D0D420FFF756
:103F200079F8FFF77EF835498880FFF77AF833494A
:103F30008880FFF776F831498880084680884FF6F8
:103F4000FF7101EA00202D498880FFF76AF82B49AC
:103F500089880843294988800846808845F21031BD
:103F6000884263D04FF45A40FFF754F8FFF759F8EE
:103F7000224988804FF45B40FFF74CF800E055E0A1
:103F8000FFF74FF81D498880084680884FF6FF717B
:103F900001EA0020194988804FF45C40FFF73AF8A5
:103FA000FFF73FF815498988084314498880084677
:103FB0008088B0F5004F02D145F2105088800F483C
:103FC000808845F21051884230D0A120FFF722F8B6
:103FD000FFF727F809498880FFF723F80749888009
:103FE000084680884FF6FF7101EA00200349888067
:103FF000FFF717F80149898808430BE020030020E8
:104000000008006C000C0140001401400018014041
:1040100000200140FE4988800846808845F2617191
:10402000884203D141F66310F9498880F8488188B5
:10403000F8A010F0A9F9F648808849F24131884289
:104040007ED1CF20FEF7E6FF0020FEF7E6FFC1207D
:10405000FEF7E3FF3020FEF7E0FFED20FEF7DAFF8A
:104060006420FEF7DAFF0320FEF7D7FF1220FEF7E9
:10407000D4FF8120FEF7D1FFE820FEF7CBFF85209B
:10408000FEF7CBFF1020FEF7C8FF7A20FEF7C5FF32
:10409000CB20FEF7BFFF3920FEF7BFFF2C20FEF735
:1040A000BCFF0020FEF7B9FF3420FEF7B6FF022068
:1040B000FEF7B3FFF720FEF7ADFF2020FEF7ADFFC0
:1040C000EA20FEF7A7FF0020FEF7A7FF0020FEF77B
:1040D000A4FFC020FEF79EFF1B20FEF79EFFC1201D
:1040E000FEF798FF0120FEF798FFC520FEF792FF2C
:1040F0003020FEF792FF3020FEF78FFFC720FEF73B
:1041000089FFB720FEF789FF3620FEF783FF48209E
:10411000FEF783FF3A20FEF77DFF5520FEF77DFF77
:10412000B120FEF777FF0020FEF777FF1A20FEF799
:1041300074FFB620FEF76EFF0A20FEF76EFF00E068
:1041400097E0A220FEF769FFF220FEF763FF002050
:10415000FEF763FF2620FEF75DFF0120FEF75DFFFF
:10416000E020FEF757FF0F20FEF757FF2A20FEF74B
:1041700054FF2820FEF751FF0820FEF74EFF0E20C7
:10418000FEF74BFF0820FEF748FF5420FEF745FFDF
:10419000A920FEF742FF4320FEF73FFF0A20FEF76B
:1041A0003CFF0F20FEF739FF0020FEF736FF00200E
:1041B000FEF733FF0020FEF730FF0020FEF72DFF53
:1041C000E120FEF727FF0020FEF727FF1520FEF76E
:1041D00024FF1720FEF721FF0720FEF71EFF112006
:1041E000FEF71BFF0620FEF718FF2B20FEF715FF3A
:1041F0005620FEF712FF3C20FEF70FFF0520FEF7CA
:104200000CFF1020FEF709FF0F20FEF706FF3F20EE
:10421000FEF703FF3F20FEF700FF0F20FEF7FDFE35
:104220002B20FEF7F7FE0020FEF7F7FE0020FEF73A
:10423000F4FE0120FEF7F1FE3F20FEF7EEFE2A20FD
:10424000FEF7E8FE0020FEF7E8FE0020FEF7E5FEA0
:104250000020FEF7E2FEEF20FEF7DFFE1120FEF762
:10426000D9FE7820FEF75FFD2920FEF7D3FE03F08C
:1042700020B96748808846F6040188427ED1112023
:10428000FEF7C8FE1420FEF74EFDD020FEF7C2FE5A
:104290000720FEF7C2FE4220FEF7BFFE1D20FEF7FC
:1042A000BCFED120FEF7B6FE0020FEF7B6FE1A20B7
:1042B000FEF7B3FE0920FEF7B0FED220FEF7AAFEFD
:1042C0000120FEF7AAFE2220FEF7A7FEC020FEF77F
:1042D000A1FE1020FEF7A1FE3B20FEF79EFE00206F
:1042E000FEF79BFE0220FEF798FE1120FEF795FEDA
:1042F000C520FEF78FFE0320FEF78FFEC820FEF7D5
:1043000089FE0020FEF789FE2520FEF786FE21208B
:10431000FEF783FE0520FEF780FE0020FEF77DFEFF
:104320000A20FEF77AFE6520FEF777FE2520FEF7CD
:1043300074FE7720FEF771FE5020FEF76EFE0F2010
:10434000FEF76BFE0020FEF768FEF820FEF762FE27
:104350000120FEF762FEFE20FEF75CFE0020FEF765
:104360005CFE0220FEF759FE2020FEF753FE3620A9
:10437000FEF750FE0820FEF750FE00E02AE03A204B
:10438000FEF748FE5520FEF748FE2B20FEF742FEC2
:104390000020FEF742FE0020FEF73FFE0120FEF760
:1043A0003CFE3F20FEF739FE2A20FEF733FE0020B8
:1043B000FEF733FE0020FEF730FE0120FEF72DFE53
:1043C000DF20FEF72AFE7820FEF7ADFC2920FEF75D
:1043D00021FE4CE70E48808845F21031884240F0BB
:1043E0008287ED20FEF716FE0120FEF716FEFE2066
:1043F000FEF713FEEE20FEF70DFEDE20FEF70DFEAB
:104400002120FEF70AFEF120FEF704FE012007E05E
:10441000200300204C43442049443A25780D0A00EB
:10442000FEF7FBFDDF20FEF7F5FD1020FEF7F5FDA2
:10443000C420FEF7EFFD8F20FEF7EFFDC620FEF74C
:10444000E9FD0020FEF7E9FDE220FEF7E6FDE220AF
:10445000FEF7E3FDE220FEF7E0FDBF20FEF7DAFD08
:10446000AA20FEF7DAFDB020FEF7D4FD0D20FEF7FE
:10447000D4FD0020FEF7D1FD0D20FEF7CEFD00207B
:10448000FEF7CBFD1120FEF7C8FD0020FEF7C5FDAD
:104490001920FEF7C2FD0020FEF7BFFD2120FEF728
:1044A000BCFD0020FEF7B9FD2D20FEF7B6FD002073
:1044B000FEF7B3FD3D20FEF7B0FD0020FEF7ADFD99
:1044C0005D20FEF7AAFD0020FEF7A7FD5D20FEF7A8
:1044D000A4FD0020FEF7A1FDB120FEF79BFD80208A
:1044E000FEF79BFD0020FEF798FD8B20FEF795FD63
:1044F0000020FEF792FD9620FEF78FFD0020FEF7CC
:104500008CFDB220FEF786FD0020FEF786FD002020
:10451000FEF783FD0220FEF780FD0020FEF77DFD03
:104520000320FEF77AFD0020FEF777FDB320FEF7AB
:1045300071FD0020FEF771FD0020FEF76EFD0020EA
:10454000FEF76BFD0020FEF768FD0020FEF765FD1D
:104550000020FEF762FD0020FEF75FFD0020FEF761
:104560005CFD0020FEF759FD0020FEF756FD0020FF
:10457000FEF753FD0020FEF750FD0020FEF74DFD35
:104580000020FEF74AFD0020FEF747FD0020FEF761
:1045900044FD0020FEF741FD0020FEF73EFD002017
:1045A000FEF73BFD0020FEF738FD0020FEF735FD4D
:1045B0000020FEF732FD0020FEF72FFD0020FEF761
:1045C0002CFDB420FEF726FD8B20FEF726FD0020F3
:1045D000FEF723FD9620FEF720FD0020FEF71DFDCF
:1045E000A120FEF71AFD0020FEF717FDB520FEF70B
:1045F00011FD0220FEF711FD0020FEF70EFD032045
:10460000FEF70BFD0020FEF708FD0420FEF705FD78
:104610000020FEF702FDB620FEF7FCFC0020FEF7AE
:10462000FCFC0020FEF7F9FCB720FEF7F3FC0020AD
:10463000FEF7F3FC0020FEF7F0FC3F20FEF7EDFC58
:104640000020FEF7EAFC5E20FEF7E7FC0020FEF704
:10465000E4FC6420FEF7E1FC0020FEF7DEFC8C2089
:10466000FEF7DBFC0020FEF7D8FCAC20FEF7D5FC03
:104670000020FEF7D2FCDC20FEF7CFFC0020FEF786
:10468000CCFC7020FEF7C9FC0020FEF7C6FC902091
:10469000FEF7C3FC0020FEF7C0FCEB20FEF7BDFCDC
:1046A0000020FEF7BAFCDC20FEF7B7FC0020FEF786
:1046B000B4FCB820FEF7AEFC0020FEF7AEFC0020F4
:1046C000FEF7ABFC0020FEF7A8FC0020FEF7A5FCDF
:1046D0000020FEF7A2FC0020FEF79FFC0020FEF762
:1046E0009CFC0020FEF799FCBA20FEF793FC2420E6
:1046F000FEF793FC0020FEF790FC0020FEF78DFCF7
:104700000020FEF78AFCC120FEF784FC2020FEF783
:1047100084FC0020FEF781FC5420FEF77EFC002084
:10472000FEF77BFCFF20FEF778FC0020FEF775FC0F
:10473000C220FEF76FFC0A20FEF76FFC0020FEF798
:104740006CFC0420FEF769FC0020FEF766FCC32029
:10475000FEF760FC3C20FEF760FC0020FEF75DFCED
:104760003A20FEF75AFC0020FEF757FC3920FEF7EE
:1047700054FC0020FEF751FC3720FEF74EFC0020D1
:10478000FEF74BFC3C20FEF748FC0020FEF745FC02
:104790003620FEF742FC0020FEF73FFC3220FEF7F9
:1047A0003CFC0020FEF739FC2F20FEF736FC0020F1
:1047B000FEF733FC2C20FEF730FC0020FEF72DFC2A
:1047C0002920FEF72AFC0020FEF727FC2620FEF712
:1047D00024FC0020FEF721FC2420FEF71EFC002014
:1047E000FEF71BFC2420FEF718FC0020FEF715FC4A
:1047F0002320FEF712FC0020FEF70FFC3C20FEF702
:104800000CFC0020FEF709FC3620FEF706FC002019
:10481000FEF703FC3220FEF700FC0020FEF7FDFB54
:104820002F20FEF7FAFB0020FEF7F7FB2C20FEF707
:10483000F4FB0020FEF7F1FB2920FEF7EEFB002041
:10484000FEF7EBFB2620FEF7E8FB0020FEF7E5FB7A
:104850002420FEF7E2FB0020FEF7DFFB2420FEF71A
:10486000DCFB0020FEF7D9FB2320FEF7D6FB00205F
:10487000FEF7D3FBC420FEF7CDFB6220FEF7CDFB95
:104880000020FEF7CAFB0520FEF7C7FB0020FEF75D
:10489000C4FB8420FEF7C1FB0020FEF7BEFBF02026
:1048A000FEF7BBFB0020FEF7B8FB1820FEF7B5FBB8
:1048B0000020FEF7B2FBA420FEF7AFFB0020FEF7BE
:1048C000ACFB1820FEF7A9FB0020FEF7A6FB50204A
:1048D000FEF7A3FB0020FEF7A0FB0C20FEF79DFBDC
:1048E0000020FEF79AFB1720FEF797FB0020FEF74B
:1048F00094FB9520FEF791FB0020FEF78EFBF32042
:10490000FEF78BFB0020FEF788FBE620FEF785FB19
:104910000020FEF782FBC520FEF77CFB3220FEF76D
:104920007CFB0020FEF779FB4420FEF776FB00209D
:10493000FEF773FB6520FEF770FB0020FEF76DFBB2
:104940007620FEF76AFB0020FEF767FB8820FEF763
:1049500064FB0020FEF761FBC620FEF75BFB202016
:10496000FEF75BFB0020FEF758FB1720FEF755FB18
:104970000020FEF752FB0120FEF74FFB0020FEF760
:104980004CFBC720FEF746FB0020FEF746FB00204D
:10499000FEF743FB0020FEF740FB0020FEF73DFB47
:1049A000C820FEF737FB0020FEF737FB0020FEF79C
:1049B00034FB0020FEF731FB0020FEF72EFBC92060
:1049C000FEF728FB0020FEF728FB0020FEF725FB62
:1049D0000020FEF722FB0020FEF71FFB0020FEF761
:1049E0001CFB0020FEF719FB0020FEF716FB002041
:1049F000FEF713FB0020FEF710FB0020FEF70DFB77
:104A00000020FEF70AFB0020FEF707FB0020FEF760
:104A100004FB0020FEF701FB0020FEF7FEFA002059
:104A2000FEF7FBFAE020FEF7F5FA1620FEF7F5FA9E
:104A30000020FEF7F2FA1C20FEF7EFFA0020FEF746
:104A4000ECFA2120FEF7E9FA0020FEF7E6FA36201C
:104A5000FEF7E3FA0020FEF7E0FA4620FEF7DDFA63
:104A60000020FEF7DAFA5220FEF7D7FA0020FEF710
:104A7000D4FA6420FEF7D1FA0020FEF7CEFA7A20AD
:104A8000FEF7CBFA0020FEF7C8FA8B20FEF7C5FA36
:104A90000020FEF7C2FA9920FEF7BFFA0020FEF7C9
:104AA000BCFAA820FEF7B9FA0020FEF7B6FAB92042
:104AB000FEF7B3FA0020FEF7B0FAC420FEF7ADFA15
:104AC0000020FEF7AAFACA20FEF7A7FA0020FEF798
:104AD000A4FAD220FEF7A1FA0020FEF79EFAD92010
:104AE000FEF79BFA0020FEF798FAE020FEF795FA11
:104AF0000020FEF792FAF320FEF78FFA0020FEF76F
:104B00008CFAE120FEF786FA1620FEF786FA0020DE
:104B1000FEF783FA1C20FEF780FA0020FEF77DFAEC
:104B20002220FEF77AFA0020FEF777FA3620FEF709
:104B300074FA0020FEF771FA4520FEF76EFA0020A5
:104B4000FEF76BFA5220FEF768FA0020FEF765FACE
:104B50006420FEF762FA0020FEF75FFA7A20FEF783
:104B60005CFA0020FEF759FA8B20FEF756FA002077
:104B7000FEF753FA9920FEF750FA0020FEF74DFA9F
:104B8000A820FEF74AFA0020FEF747FAB920FEF700
:104B900044FA0020FEF741FAC420FEF73EFA002056
:104BA000FEF73BFACA20FEF738FA0020FEF735FA86
:104BB000D220FEF732FA0020FEF72FFAD820FEF7B7
:104BC0002CFA0020FEF729FAE020FEF726FA002052
:104BD000FEF723FAF320FEF720FA0020FEF71DFA75
:104BE000E220FEF717FA0520FEF717FA0020FEF77D
:104BF00014FA0B20FEF711FA0020FEF70EFA1B2024
:104C0000FEF70BFA0020FEF708FA3420FEF705FA4B
:104C10000020FEF702FA4420FEF7FFF90020FEF71D
:104C2000FCF94F20FEF7F9F90020FEF7F6F96120B4
:104C3000FEF7F3F90020FEF7F0F97920FEF7EDF921
:104C40000020FEF7EAF98820FEF7E7F90020FEF7DA
:104C5000E4F99720FEF7E1F90020FEF7DEF9A6203F
:104C6000FEF7DBF90020FEF7D8F9B720FEF7D5F9FB
:104C70000020FEF7D2F9C220FEF7CFF90020FEF7A0
:104C8000CCF9C720FEF7C9F90020FEF7C6F9D120FC
:104C9000FEF7C3F90020FEF7C0F9D620FEF7BDF9F4
:104CA0000020FEF7BAF9DD20FEF7B7F90020FEF785
:104CB000B4F9F320FEF7B1F90020FEF7AEF9E320D6
:104CC000FEF7A8F90520FEF7A8F90020FEF7A5F9E0
:104CD0000A20FEF7A2F90020FEF79FF91C20FEF73C
:104CE0009CF90020FEF799F93320FEF796F9002091
:104CF000FEF793F94420FEF790F90020FEF78DF9B6
:104D00005020FEF78AF90020FEF787F96220FEF7AF
:104D100084F90020FEF781F97820FEF77EF9002063
:104D2000FEF77BF98820FEF778F90020FEF775F989
:104D30009720FEF772F90020FEF76FF9A620FEF724
:104D40006CF90020FEF769F9B720FEF766F900203C
:104D5000FEF763F9C220FEF760F90020FEF75DF967
:104D6000C720FEF75AF90020FEF757F9D120FEF7C9
:104D700054F90020FEF751F9D520FEF74EF9002036
:104D8000FEF74BF9DD20FEF748F90020FEF745F964
:104D9000F320FEF742F90020FEF73FF9E420FEF78A
:104DA00039F90120FEF739F90020FEF736F9012024
:104DB000FEF733F90020FEF730F90220FEF72DF957
:104DC0000020FEF72AF92A20FEF727F90020FEF737
:104DD00024F93C20FEF721F90020FEF71EF94B20B4
:104DE000FEF71BF90020FEF718F95D20FEF715F914
:104DF0000020FEF712F97420FEF70FF90020FEF7ED
:104E00000CF98420FEF709F90020FEF706F993203B
:104E1000FEF703F90020FEF700F9A220FEF7FDF8E7
:104E20000020FEF7FAF8B320FEF7F7F80020FEF7AF
:104E3000F4F8BE20FEF7F1F80020FEF7EEF8C420EB
:104E4000FEF7EBF80020FEF7E8F8CD20FEF7E5F8D6
:104E50000020FEF7E2F8D320FEF7DFF80020FEF78F
:104E6000DCF8DD20FEF7D9F80020FEF7D6F8F320B5
:104E7000FEF7D3F80020FEF7D0F8E520FEF7CAF8D9
:104E80000020FEF7CAF80020FEF7C7F80020FEF762
:104E9000C4F80020FEF7C1F80220FEF7BEF800209B
:104EA000FEF7BBF82920FEF7B8F80020FEF7B5F8AA
:104EB0003C20FEF7B2F80020FEF7AFF84B20FEF7DB
:104EC000ACF80020FEF7A9F85D20FEF7A6F8002058
:104ED000FEF7A3F87420FEF7A0F80020FEF79DF877
:104EE0008420FEF79AF80020FEF797F89320FEF74B
:104EF00094F80020FEF791F8A220FEF78EF800202B
:104F0000FEF78BF8B320FEF788F80020FEF785F84F
:104F1000BE20FEF782F80020FEF77FF8C420FEF7DF
:104F20007CF80020FEF779F8CD20FEF776F8002017
:104F3000FEF773F8D320FEF770F80020FEF76DF847
:104F4000DC20FEF76AF80020FEF767F8F320FEF792
:104F500064F80020FEF761F8E620FEF75BF8112008
:104F6000FEF75BF80020FEF758F83420FEF755F8FE
:104F70000020FEF752F85620FEF74FF80020FEF70B
:104F80004CF87620FEF749F80020FEF746F8772027
:104F9000FEF743F80020FEF740F86620FEF73DF8E4
:104FA0000020FEF73AF88820FEF737F80020FEF7D9
:104FB00034F89920FEF731F80020FEF72EF8BB20D8
:104FC000FEF72BF80020FEF728F89920FEF725F8C9
:104FD0000020FEF722F86620FEF71FF80020FEF7FB
:104FE0001CF85520FEF719F80020FEF716F855209A
:104FF000FEF713F80020FEF710F84520FEF70DF835
:105000000020FEF70AF84320FEF707F80020FEF71D
:1050100004F84420FEF701F80020FDF7FEFFE7202A
:10502000FDF7F8FF3220FDF7F8FF0020FDF7F5FF50
:105030005520FDF7F2FF0020FDF7EFFF7620FDF78A
:10504000ECFF0020FDF7E9FF6620FDF7E6FF0020FA
:10505000FDF7E3FF6720FDF7E0FF0020FDF7DDFF30
:105060006720FDF7DAFF0020FDF7D7FF8720FDF767
:10507000D4FF0020FDF7D1FF9920FDF7CEFF0020DF
:10508000FDF7CBFFBB20FDF7C8FF0020FDF7C5FFF4
:105090009920FDF7C2FF0020FDF7BFFF7720FDF745
:1050A000BCFF0020FDF7B9FF4420FDF7B6FF00204C
:1050B000FDF7B3FF5620FDF7B0FF0020FDF7ADFF71
:1050C0002320FDF7AAFF0020FDF7A7FF3320FDF7FF
:1050D000A4FF0020FDF7A1FF4520FDF79EFF002063
:1050E000FDF79BFFE820FDF795FF0020FDF795FFFA
:1050F0000020FDF792FF9920FDF78FFF0020FDF7BC
:105100008CFF8720FDF789FF0020FDF786FF8820B0
:10511000FDF783FF0020FDF780FF7720FDF77DFF7F
:105120000020FDF77AFF6620FDF777FF0020FDF7EE
:1051300074FF8820FDF771FF0020FDF76EFFAA20A5
:10514000FDF76BFF0020FDF768FFBB20FDF765FF53
:105150000020FDF762FF9920FDF75FFF0020FDF7BB
:105160005CFF6620FDF759FF0020FDF756FF552034
:10517000FDF753FF0020FDF750FF5520FDF74DFFD1
:105180000020FDF74AFF4420FDF747FF0020FDF710
:1051900044FF4420FDF741FF0020FDF73EFF55206E
:1051A000FDF73BFF0020FDF738FFE920FDF732FF58
:1051B000AA20FDF732FF0020FDF72FFF0020FDF7AA
:1051C0002CFF0020FDF729FF0020FDF723FFAA2078
:1051D000FDF723FFCF20FDF71DFF0020FDF71DFF8A
:1051E0000020FDF71AFF0020FDF717FF0020FDF754
:1051F00014FF0020FDF711FF0020FDF70EFF002037
:10520000FDF70BFF0020FDF708FF0020FDF705FF6D
:105210000020FDF702FF0020FDF7FFFE0020FDF754
:10522000FCFE0020FDF7F9FE0020FDF7F6FE002051
:10523000FDF7F3FE0020FDF7F0FE0020FDF7EDFE88
:10524000F020FDF7E7FE0020FDF7E7FE5020FDF718
:10525000E4FE0020FDF7E1FE0020FDF7DEFE002069
:10526000FDF7DBFEF320FDF7D5FE0020FDF7D5FEB0
:10527000F920FDF7CFFE0620FDF7CFFE1020FDF749
:10528000CCFE2920FDF7C9FE0020FDF7C6FE3A201E
:10529000FDF7C0FE5520FDF7C0FE1120FDF7BAFE58
:1052A0006420FDF740FD2920FDF7B4FE3520FDF711
:1052B000B1FE0020FDF7B1FE5120FDF7ABFEFF204F
:1052C000FDF7ABFE5320FDF7A5FE2C20FDF7A5FE54
:1052D0005520FDF79FFE8220FDF79FFE2C20FDF755
:1052E00099FE02F0E6B8FE48808845F210518842E7
:1052F0007ED155214FF47040FDF79BFEAA214FF25D
:105300000100FDF796FE52214FF20200FDF791FEDB
:1053100008214FF20300FDF78CFE01214FF204003B
:10532000FDF787FE0D214FF43040FDF782FE0D2181
:105330004BF20100FDF77DFE0D214BF20200FDF75F
:1053400078FE34214FF43640FDF773FE34214BF2E2
:105350000160FDF76EFE34214BF20260FDF769FE3D
:105360000D214FF43140FDF764FE0D214BF2011089
:10537000FDF75FFE0D214BF20210FDF75AFE3421BE
:105380004FF43740FDF755FE34214BF20170FDF725
:1053900050FE34214BF20270FDF74BFE00214FF41A
:1053A0003240FDF746FE00214BF20120FDF741FEA1
:1053B00000214BF20220FDF73CFE24214FF438403F
:1053C000FDF737FE24214BF60100FDF732FE2421C4
:1053D0004BF60200FDF72DFE01214FF43F40FDF793
:1053E00028FE0F214FF43340FDF723FE0F2100E08C
:1053F000FEE34BF20130FDF71CFE0F214BF20230B1
:10540000FDF717FE34214FF43940FDF712FE342129
:105410004BF60110FDF70DFE34214BF60210FDF79F
:1054200008FE08214FF43540FDF703FE08214BF23A
:105430000150FDF7FEFD08214BF20250FDF7F9FD8A
:1054400003214FF44240FDF7F4FD24214FF43A408C
:10545000FDF7EFFD24214BF60120FDF7EAFD2421A5
:105460004BF60220FDF7E5FD00214FF43C40FDF72F
:10547000E0FD78214BF60140FDF7DBFD00214BF606
:105480000240FDF7D6FD00214FF43D40FDF7D1FD70
:1054900078214BF60150FDF7CCFD00214BF6025070
:1054A000FDF7C7FD00214FF43E40FDF7C2FD64212A
:1054B0004BF60160FDF7BDFD00214FF45140FDF7B3
:1054C000B8FD33214DF20110FDF7B3FD00214DF27F
:1054D0000210FDF7AEFD34214DF20310FDF7A9FDDA
:1054E00000214DF20410FDF7A4FD3A214DF2051004
:1054F000FDF79FFD00214DF20610FDF79AFD4A21B0
:105500004DF20710FDF795FD00214DF20810FDF753
:1055100090FD5C214DF20910FDF78BFD00214DF24D
:105520000A10FDF786FD81214DF20B10FDF781FD7C
:1055300000214DF20C10FDF77CFDA6214DF20D105F
:10554000FDF777FD00214DF20E10FDF772FDE5210C
:105550004DF20F10FDF76DFD01214DF21010FDF71A
:1055600068FD13214DF21110FDF763FD01214DF28D
:105570001210FDF75EFD54214DF21310FDF759FD99
:1055800001214DF21410FDF754FD82214DF215104A
:10559000FDF74FFD01214DF21610FDF74AFDCA211E
:1055A0004DF21710FDF745FD02214DF21810FDF7E1
:1055B00040FD00214DF21910FDF73BFD02214DF297
:1055C0001A10FDF736FD01214DF21B10FDF731FDDC
:1055D00002214DF21C10FDF72CFD34214DF21D105F
:1055E000FDF727FD02214DF21E10FDF722FD672178
:1055F0004DF21F10FDF71DFD02214DF22010FDF7A9
:1056000018FD84214DF22110FDF713FD02214DF20A
:105610002210FDF70EFDA4214DF22310FDF709FD28
:1056200002214DF22410FDF704FDB7214DF22510A3
:10563000FDF7FFFC02214DF22610FDF7FAFCCF2109
:105640004DF22710FDF7F5FC02214DF22810FDF771
:10565000F0FCDE214DF22910FDF7EBFC02214DF2AA
:105660002A10FDF7E6FCF2214DF22B10FDF7E1FCCC
:1056700002214DF22C10FDF7DCFCFE214DF22D1025
:10568000FDF7D7FC03214DF22E10FDF7D2FC1021BF
:105690004DF22F10FDF7CDFC03214DF23010FDF738
:1056A000C8FC33214DF23110FDF7C3FC03214DF24C
:1056B0003210FDF7BEFC6D214DF23310FDF7B9FC41
:1056C00000214FF45240FDF7B4FC33214DF201208C
:1056D000FDF7AFFC00214DF20220FDF7AAFC01E02E
:1056E0002003002034214DF20320FDF7A2FC00210D
:1056F0004DF20420FDF79DFC3A214DF20520FDF707
:1057000098FC00214DF20620FDF793FC4A214DF252
:105710000720FDF78EFC00214DF20820FDF789FCE3
:105720005C214DF20920FDF784FC00214DF20A2096
:10573000FDF77FFC81214DF20B20FDF77AFC002163
:105740004DF20C20FDF775FCA6214DF20D20FDF762
:1057500070FC00214DF20E20FDF76BFCE5214DF2AF
:105760000F20FDF766FC01214DF21020FDF761FCD2
:1057700013214DF21120FDF75CFC01214DF21220A6
:10578000FDF757FC54214DF21320FDF752FC012187
:105790004DF21420FDF74DFC82214DF21520FDF74E
:1057A00048FC01214DF21620FDF743FCCA214DF2C1
:1057B0001720FDF73EFC02214DF21820FDF739FCC1
:1057C00000214DF21920FDF734FC02214DF21A2080
:1057D000FDF72FFC01214DF21B20FDF72AFC0221D1
:1057E0004DF21C20FDF725FC34214DF21D20FDF764
:1057F00020FC02214DF21E20FDF71BFC67214DF21B
:105800001F20FDF716FC02214DF22020FDF711FCB0
:1058100084214DF22120FDF70CFC02214DF22220C3
:10582000FDF707FCA4214DF22320FDF702FC022125
:105830004DF22420FDF7FDFBB7214DF22520FDF7A9
:10584000F8FB02214DF22620FDF7F3FBCF214DF2AC
:105850002720FDF7EEFB02214DF22820FDF7E9FBA2
:10586000DE214DF22920FDF7E4FB02214DF22A2032
:10587000FDF7DFFBF2214DF22B20FDF7DAFB0221D1
:105880004DF22C20FDF7D5FBFE214DF22D20FDF72A
:10589000D0FB03214DF22E20FDF7CBFB10214DF262
:1058A0002F20FDF7C6FB03214DF23020FDF7C1FB91
:1058B00033214DF23120FDF7BCFB03214DF23220A4
:1058C000FDF7B7FB6D214DF23320FDF7B2FB002150
:1058D0004FF45340FDF7ADFB33214DF20130FDF79E
:1058E000A8FB00214DF20230FDF7A3FB34214DF25D
:1058F0000330FDF79EFB00214DF20430FDF799FBCC
:105900003A214DF20530FDF794FB00214DF20630AF
:10591000FDF78FFB4A214DF20730FDF78AFB00218E
:105920004DF20830FDF785FB5C214DF20930FDF7A3
:1059300080FB00214DF20A30FDF77BFB81214DF207
:105940000B30FDF776FB00214DF20C30FDF771FBBB
:10595000A6214DF20D30FDF76CFB00214DF20E300B
:10596000FDF767FBE5214DF20F30FDF762FB0121EA
:105970004DF21030FDF75DFB13214DF21130FDF7B4
:1059800058FB01214DF21230FDF753FB54214DF22B
:105990001330FDF74EFB01214DF21430FDF749FBAA
:1059A00082214DF21530FDF744FB01214DF21630F6
:1059B000FDF73FFBCA214DF21730FDF73AFB0221FC
:1059C0004DF21830FDF735FB00214DF21930FDF78F
:1059D00030FB02214DF21A30FDF72BFB01214DF275
:1059E0001B30FDF726FB02214DF21C30FDF721FB99
:1059F00034214DF21D30FDF71CFB02214DF21E300B
:105A0000FDF717FB67214DF21F30FDF712FB022156
:105A10004DF22030FDF70DFB84214DF22130FDF7D2
:105A200008FB02214DF22230FDF703FBA4214DF2C9
:105A30002330FDF7FEFA02214DF22430FDF7F9FA8A
:105A4000B7214DF22530FDF7F4FA02214DF2263050
:105A5000FDF7EFFACF214DF22730FDF7EAFA0221E8
:105A60004DF22830FDF7E5FADE214DF22930FDF741
:105A7000E0FA02214DF22A30FDF7DBFAF2214DF275
:105A80002B30FDF7D6FA02214DF22C30FDF7D1FA7A
:105A9000FE214DF22D30FDF7CCFA03214DF22E30D0
:105AA000FDF7C7FA10214DF22F30FDF7C2FA03219E
:105AB0004DF23030FDF7BDFA33214DF23130FDF7B4
:105AC000B8FA03214DF23230FDF7B3FA6D214DF2F1
:105AD0003330FDF7AEFA00214FF45440FDF7A9FA38
