:020000040800F2
:1000000028640020750200087B1800089717000874
:1000100079180008550800081D1C000800000000A1
:10002000000000000000000000000000DD010008EA
:10003000570800080000000021020008C519000848
:100040008F0200088F0200088F0200088F0200084C
:100050008F0200088F0200088F0200088F0200083C
:100060008F0200088F0200088F0200088F0200082C
:100070008F0200088F0200088F0200088F0200081C
:100080008F0200088F0200088F0200088F0200080C
:100090008F0200088F0200088F0200088F020008FC
:1000A0008F0200088F0200088F0200088F020008EC
:1000B0008F0200088F0200088F0200088F020008DC
:1000C0008F0200088F0200088F0200088F020008CC
:1000D0008F020008F11B00088F0200088F02000841
:1000E0008F0200088F0200088F0200088F020008AC
:1000F0008F0200088F0200088F0200088F0200089C
:100100008F0200088F0200088F0200088F0200088B
:100110008F0200088F0200088F0200088F0200087B
:100120008F0200088F0200088F0200088F0200086B
:1001300000F002F800F042F80AA090E8000C8244B7
:100140008344AAF10107DA4501D100F037F8AFF294
:10015000090EBAE80F0013F0010F18BFFB1A43F0A5
:1001600001031847A0410000C0410000103A24BF1D
:1001700078C878C1FAD8520724BF30C830C144BF0C
:1001800004680C607047000000230024002500264E
:10019000103A28BF78C1FBD8520728BF30C148BFEA
:1001A0000B607047642900F0BD80732900F0E28283
:1001B000002070471FB51FBD10B510BD00F01BFB20
:1001C0001146FFF7F7FF01F0CBFE00F039FB03B457
:1001D000FFF7F2FF03BC01F066FD0000224B196837
:1001E0000868B0E8F00F80F30988BFF36F8F4FF015
:1001F000000080F311884EF00D0E704700000000E3
:1002000006480068006880F3088862B661B6BFF3EC
:100210004F8FBFF36F8F00DF00BF00BF08ED00E01E
:10022000EFF30980BFF36F8F0F4B1A6820E9F00FCF
:10023000106008B54FF0500080F31188BFF34F8F66
:10024000BFF36F8F03F05CF94FF0000080F311886B
:10025000BDE8084019680868B0E8F00F80F3098825
:10026000BFF36F8F704700BF3C000020EFF30580A5
:10027000704700000948804709480047FEE7FEE74D
:10028000FEE7FEE7FEE7FEE7FEE7FEE7FEE7FEE746
:1002900004480549054A064B70470000C919000883
:1002A00031010008285E002028640020286000201A
:1002B00028600020704700000FB4044910B503AA5D
:1002C000029800F05BFA10BC5DF814FBC40000203B
:1002D00070B50C460546012A05D02878800600D561
:1002E000EA69002302E0012305E05B1C934202D28D
:1002F000E05C0028F9D1A869E618C01AA861286A4C
:10030000184428622846AFF3008004E0D5E90121B3
:1003100014F8010B9047B442F8D32846AFF300809D
:1003200070BD00002DE9F0410646002410687529D3
:10033000314616A510D0AFF30080002802DA404203
:1003400013A507E031688A0701D512A502E0490725
:1003500004D511A5012401E0AFF3008000210A2299
:1003600006F1240709E0B0FBF2FCB0FBF2F302FB5C
:100370001C00303078541846491C0028F3D123461D
:100380002A463046BDE8F04100F071B90000000097
:100390002D0000002B000000200000002DE9F05F80
:1003A000894604464FF0000ADFF874B1FB44C0F8F8
:1003B00020A02046E1688847002874D0252806D070
:1003C000D4E901219047206A401C2062F1E7002611
:1003D0005F462046E16888472028054607DB312D27
:1003E00005D2781910F8200C08B10643F1E7B007E0
:1003F00001D526F00406C4F81CA00027C4F818A0F4
:100400002A2D09D0284601F047FC38B304EB8708B1
:10041000303DC8F8185019E059F8041B204604EB89
:1004200087029161E1688847012F054618D1E0698C
:10043000002820DA26F020061DE0D8F8180000EB8E
:10044000800005EB40003038C8F818002046E1680D
:100450008847054601F020FC0028EED1012F0AD084
:100460002E2D08D12046E16888477F1C0546022FC3
:1004700046F02006C4DBA069002803DA404246F0BB
:100480000106A061F00701D026F010066C2D0BD0FC
:10049000682D09D04C2D39D06A2D35D0742D35D02A
:1004A0007A2D33D016E038E0E1682F4620468847A1
:1004B000B842054609D16C2F26D04FF48060E16820
:1004C000064320468847054604E06C2F1AD04FF4B7
:1004D000807006430DB3A5F14100192802D82035DC
:1004E00046F400664A462946204626604E46FFF7F7
:1004F00059FE80B101280BD0F61D26F0070000F14F
:10050000080956E74020E4E78020D8E70020D6E736
:1005100006F104094DE7284652E7206ABDE8F09F3E
:10052000403F0000032A40F2308010F0030C00F03E
:10053000158011F8013BBCF1020F624498BF11F81D
:1005400001CB00F8013B38BF11F8013BA2F10402D6
:1005500098BF00F801CB38BF00F8013B11F003034E
:1005600000F02580083AC0F0088051F8043B083AB2
:1005700051F804CBA0E80810F5E7121D5CBF51F854
:10058000043B40F8043BAFF30080D20724BF11F8CE
:10059000013B11F801CB48BF11F8012B24BF00F833
:1005A000013B00F801CB48BF00F8012B704710B5A4
:1005B000203AC0F00B80B1E81850203AA0E818505B
:1005C000B1E81850A0E81850BFF4F5AF5FEA027C1C
:1005D00024BFB1E81850A0E8185044BF18C918C08B
:1005E000BDE810405FEA827C24BF51F8043B40F82C
:1005F000043B08BF7047D20728BF31F8023B48BF11
:1006000011F8012B28BF20F8023B48BF00F8012B4E
:10061000704702F0FF0343EA032242EA024200F07D
:1006200002B84FF000020429C0F0128010F0030C51
:1006300000F0B880CCF1040CBCF1020F18BF00F838
:10064000012BA8BF20F8022BA1EB0C0100F0AAB8E7
:100650005FEAC17C24BF00F8012B00F8012B48BFE2
:1006600000F8012B704770477047704770472DE9BD
:10067000F0470D4699469246044600F12408016869
:10068000880604D5E06921F01001216000E0012016
:10069000A84201DD471B00E00027A1697A1902EB9F
:1006A0000900081AA0612078C00602D42046AFF3E2
:1006B0000080002608E0D4E901211AF806009047DE
:1006C000206A401C761C20624E45F4DB2078C00670
:1006D0000AD52046AFF3008006E0D4E9012130209E
:1006E0009047206A401C2062381EA7F10107F4DC05
:1006F00007E0D4E9012118F805009047206A401C62
:100700002062281EA5F10105F3DC2046AFF300802E
:100710002078000602D50220BDE8F0870120FBE723
:1007200001694A1C02610878704700B58FB0CDE9B5
:1007300001310021059105497944CDE903101146A5
:100740006846FFF72BFE0FB000BD0000E5FFFFFF7E
:1007500010B5436913B1AFF3008001E0FFF7B8FDB6
:10076000012010BD127800F124010A7000224A70A5
:100770000122EDE711684FF0FF32E9E7074B70B552
:100780000D467B44FFF7D1FF0446284600F02FF8C2
:1007900010B14FF0FF3070BD204670BD9B160000B9
:1007A0004FF0000200B5134694469646203922BF0A
:1007B000A0E80C50A0E80C50B1F12001BFF4F7AF55
:1007C000090728BFA0E80C5048BF0CC05DF804EB37
:1007D000890028BF40F8042B08BF704748BF20F8A5
:1007E000022B11F0804F18BF00F8012B7047007BDF
:1007F00000F080007047754600F028F8AE4605000E
:100800006946534620F00700854618B020B5FFF72B
:100810003FFDBDE820404FF000064FF000074FF0CD
:1008200000084FF0000B21F00701AC46ACE8C0090E
:10083000ACE8C009ACE8C009ACE8C0098D46704717
:100840000446AFF300802046FFF7C1FC0048704724
:10085000C45D0020FEE770470849498848434FF0CF
:10086000E021486100238B61012008610869C2070B
:1008700001D0C003FAD50B618B61704738000020AE
:100880000849097848434FF0E021486100238B6113
:10089000012008610869C20701D0C003FAD50B61C5
:1008A0008B61704738000020124800B5816985B01F
:1008B00041F008018161816901F0080104918169B9
:1008C00041F0400181618069694600F04000049078
:1008D0002020009001200190029003200390064800
:1008E00000F0A6F8062000906946044800F0A0F841
:1008F00005B000BD00100240000C0140001801408E
:100900002DE9F05F90F821100024022903D0042182
:100910008163012485E001680A6822F00E020A6002
:1009200001680A6822F001020A603F4E3E4FB2158C
:10093000DFF8F4C0DFF8F090DFF8ECA0DFF8E8B003
:10094000DFF8E4E00168783F13011502ACF1640CB4
:10095000A9F15009AAF13C0AABF1280BAEF1140E33
:100960004FF48018B14227D9B9420ED0614512D058
:1009700049451DD0514518D0594518D0714501D170
:10098000424615E0294EB14201D1012210E0274E26
:100990001436B14201D110220AE0244E2836B14269
:1009A00006D0224A3C32914201D11A4600E02A4642
:1009B0001E49091F0A602BE0B94213D0614517D0C8
:1009C000494522D051451DD059451DD0714501D111
:1009D00042461AE0B14202D14FF0807215E0134E48
:1009E000B14201D1012210E0104E1436B14201D1C2
:1009F00010220AE00D4E2836B14206D00B4A3C3296
:100A0000914201D11A4600E02A46074980394A60DE
:100A1000012180F82110002180F82010416B01B1E4
:100A200088472046BDE8F09F80000240080402404D
:100A30002DE9F84FDFF8C091002409F1040A0AF10A
:100A4000040B23464FF00F080BF1040ECCE00127F6
:100A5000A7403A40BA4272D1DFF8A0C14D68A5EB79
:100A60000C0665452BD00DDC032D34D005DC35B3E9
:100A7000012D19D0022D2FD11BE0112D16D0122DD2
:100A80002AD119E0B6F5881F19D006DCB6F5803FEB
:100A900015D0B6F5801F1FD111E0B6F5001F0ED09E
:100AA000B6F5041F18D10AE0CB6815E0CB681B1D12
:100AB00012E0CB6808330FE0CB680C330CE08B6896
:100AC0002BB1012B4FF0080303D0476104E004234E
:100AD00002E0076100E00023FF2A01D8064601E09A
:100AE00000F104064FEA840501D9A5F12005376815
:100AF00008FA05FC27EA0C0703FA05F547EA05079B
:100B000037604D68ED006ED53D4DAE6946F001068B
:100B1000AE61AD6924F0030605F001050095394D7D
:100B20007719BE68A5072D0F08FA05FC26EA0C0602
:100B3000DFF8D4C0604503D14FF0000C25E052E04F
:100B4000DFF8C8C0604502D14FF0010C1DE0DFF8AE
:100B5000C0C0604502D14FF0020C16E0DFF8B4C00F
:100B6000604502D14FF0030C0FE0DFF8ACC06045E8
:100B700002D14FF0040C08E0DFF8A0C0604502D1BC
:100B80004FF0050C01E04FF0060C0CFA05FC4CEAA6
:100B9000060CC7F808C04D68D9F80060ED034D4653
:100BA00001D5164300E096432E604D68DAF80060E8
:100BB000AD03554601D5164300E096432E604D68BF
:100BC000DBF80060ED025D4601D5164300E0964378
:100BD0002E604D68DEF80060AD02754601D5164303
:100BE00000E096432E60641C0A6832FA04F57FF434
:100BF0002EAFBDE8F88F0000000401400000111086
:100C0000001002400000014000080140000C0140BB
:100C1000001001400014014000180140001C014078
:100C20000AB1016170470904FBE7000001488068D0
:100C300070470000B000002002488168027811442B
:100C400081607047B0000020074810B5016841F08E
:100C500010010160032000F057F80F2000F006F8A3
:100C600000F024F8002010BD0020024070B50D4DAA
:100C700004464FF47A712878B1FBF0F00A4909680C
:100C8000B1FBF0F000F015FC48B9102C07D200229F
:100C90002146501E00F018F800206C6070BD012045
:100CA00070BD0000B00000200C000020704700283C
:100CB00009DB00F01F02012191404009800000F192
:100CC000E020C0F800117047F0B40E4B1B68C3F36E
:100CD0000223C3F10704042C00D904241D1D072D91
:100CE00001D2002300E0DB1E012606FA04F56D1E8A
:100CF0000D409D409E40761E164045EA0601F0BC20
:100D000000F0BABF0CED00E0064A00F007011068E1
:100D10004FF6FF03184040EA0120034908431060E2
:100D2000704700000CED00E00000FA052DE9F047E7
:100D30000D46040067D0DFF81881D8F8000000F0F5
:100D40000700A8420CD2D8F8001021F0070129436F
:100D5000C8F80010D8F8000000F00700A84252D1EF
:100D600020683C4E810712D5400703D5706840F4D7
:100D7000E06070602078000703D5706840F4605030
:100D800070607068A16820F0F000084370602078FF
:100D9000C00727D06068012810D03168022810D021
:100DA000890700292FDA716821F00301014371607E
:100DB000FFF73CFF074641F288390CE031688903B0
:100DC000EFE78901EDE7FFF731FFC11B494502D984
:100DD0000320BDE8F0877068616800F00C00B0EB9C
:100DE000810FF0D1D8F80010404601F00701A94268
:100DF0000BD9016821F0070129430160006800F068
:100E00000700A84201D00120E3E72078400705D57C
:100E10007068E16820F4E0600843706020780007A3
:100E200006D57068216920F4605040EAC100706006
:100E300000F038F87168084AC1F30311515CC840EA
:100E40000649086006480068FFF710FF0020C0E769
:100E50000020024000100240D84200080C00002090
:100E6000B40000200448054900684968044AC1F3F9
:100E70000221515CC84070470C0000200010024065
:100E8000E84200080448054900684968044AC1F37B
:100E9000C221515CC84070470C0000200010024085
:100EA000E842000812A085B00FC88DE80F0014A01A
:100EB000144B006804905968134801F00C02042A8E
:100EC00010D0082A0ED1C1F38342C9031DF80200D5
:100ED0000AD5596804AAC1F34041515C0A4A5043FB
:100EE000B0FBF1F005B0704708494843FAE700004D
:100EF00002030405060708090A0B0C0D0E0F10105B
:100F0000010200000010024000127A0000093D00BA
:100F10002DE9F84F04006FD02078BE4DC00747D0B0
:100F20006868C0F38100012807D06868C0F38100B9
:100F3000022809D16868C00306D52868800337D520
:100F400060680028E7D033E06068B0F5803F0BD0E0
:100F500010B1B0F5A02F11D0286820F4803028609F
:100F6000286820F4802002E0286840F4803028605F
:100F7000606888B1FFF75AFE064609E0286840F429
:100F800080202860F0E7FFF751FE801B642873D8AB
:100F900028688003F7D50BE0FFF748FE064604E01B
:100FA000FFF744FE801B6428F1D828688003F7D43B
:100FB0002078DFF8648280074FF0010A4FF00009C3
:100FC00039D5686810F00C0F07D06868C0F381004D
:100FD000022809D16868C00306D42868800714D5A0
:100FE0002069012808D110E02069B0B1C8F800A03C
:100FF000FFF71CFE064605E007E1FFF717FE801B22
:101000000228C4D828688007F7D52868616920F0CD
:10101000F80040EAC10028600DE0C8F80090FFF732
:1010200005FE064604E0FFF701FE801B022823D8D8
:1010300028688007F7D4207800072CD57748A16965
:10104000D9B1C0F800A0FFF7F1FD064604E0FFF7B4
:10105000EDFD801B02280FD8686A8007F7D570481D
:101060004FF4FA510068B0FBF1F0009000BF009817
:10107000411E0091FAD20EE07CE0C0F80090FFF72C
:10108000D5FD064604E0FFF7D1FD801B022871D88C
:10109000686A8007F7D4207840075BD5E8690027A5
:1010A000C00008D4E86940F08050E861E869012791
:1010B00000F0805000905B480168C90511D40168B8
:1010C000834641F480710160FFF7B0FD064604E0FD
:1010D000FFF7ACFD801B64284CD8DBF80000C0058E
:1010E000F6D5E06801280AD008B1052813D0286A8F
:1010F00020F001002862286A20F0040002E0286A3B
:1011000040F001002862E06841F2883B88B1FFF7B7
:101110008DFD064609E0286A40F004002862EEE7EB
:10112000FFF784FD811B59455BD8286A8007F7D5F6
:101130000BE0FFF77BFD064604E0FFF777FD811B20
:1011400059454ED8286A8007F7D41FB1E86920F0C6
:101150008050E861E069A8B36968C1F381010229A0
:1011600046D00228484606D0C8F86000FFF75EFD6A
:10117000044639E035E04746C8F86000FFF756FD01
:10118000064604E0FFF752FD801B022829D8286894
:101190008001F7D4206AB0F5803F05D16868A16866
:1011A00020F4003008436860D4E908010843696806
:1011B00021F4741108436860C7F860A0FFF736FD9A
:1011C000044605E023E0FFF731FD001B022808D8A4
:1011D00028688001F7D51AE0FFF728FD001B0228D8
:1011E00002D90320BDE8F88F28688001F4D40EE00E
:1011F0000128F7D06868226A00F48031914204D156
:10120000616A00F47010884201D00120EAE70020F2
:10121000E8E7000000100240000042428004424221
:101220000C000020007000402DE9F84F044690F8B3
:101230005000012500270A9E984692468B460128B9
:101240000FD0012084F85000FFF7F0FC94F8511003
:1012500081466268404601290CD0B2F5827F07D1F1
:1012600002E00220BDE8F88FA2680AB9042901D083
:1012700002270AE1BBF1000F3CD0BAF1000F39D0D0
:10128000B8F1000F36D094F85110042902D005218E
:1012900084F8511000216165C4F838A0A4F83E809C
:1012A000A4F83C80C4F830B0A4F83680A4F83480A8
:1012B00021646164A16A4FF40058414509D1216855
:1012C0000A6822F400520A6021680A6842F4005257
:1012D0000A6021680A68520603D40A6842F0400294
:1012E0000A60E168B1F5006F616805D0F1B30128CB
:1012F0004DD08DE00127C8E009B1012840D1206B15
:1013000021680088C860206B801C2063E08E401E2E
:10131000E08635E020688168890717D5E18EA9B19C
:10132000012D13D1216B0988C160206B801C2063C3
:10133000E08E401EE086E08E002538B9A06A404568
:1013400004D12068016841F48051016020688168FF
:10135000C9070DD0E18F59B1C068A16B0880A06B9F
:10136000801CA063E08F401EE08700E00FE00125B5
:10137000FFF75CFCA0EB0900B04201D3701C5DD10B
:10138000E08E0028C6D1E08F0028C3D146E0206B54
:10139000216800780873206B401C2063E08E401E9B
:1013A000E08635E020688168890717D5E18EA9B10C
:1013B000012D13D1216B09780173206B401C206330
:1013C000E08E401EE086E08E002538B9A06A4045D8
:1013D00004D12068016841F480510160206881686F
:1013E000C9070BD0E18F49B1C068A16B0870A06B31
:1013F000401CA063E08F401EE0870125FFF716FC2C
:10140000A0EB0900B04202D3701C01D016E0AEB1CF
:10141000E08E0028C6D1E08F0028C3D1A06A4045E5
:1014200010D10122334611462046CDF8009000F03D
:101430005DFA28B1606D40F002006065032724E08A
:101440002068C06820688168C943C9060DD4616DF1
:1014500041F002016165016821F4005101602068DA
:10146000016841F40051016001274A463146204697
:1014700000F02CFA18B101272020606505E0A06873
:1014800018B92068C16880680090012084F8510074
:10149000002084F850003846E4E64FF0E0210428AC
:1014A000086903D020F004000861704740F0040090
:1014B000FAE710B5401EB0F1807F01D3012010BDC6
:1014C0004FF0E02460610F21601700F0D5FB002091
:1014D000A06107202061002010BD704710F8391F5F
:1014E000407808437047000070B5026804461068F1
:1014F000D168536910F00F0F51D003F0010501F4CA
:10150000907635435DD0C20705D0CA0503D5E26B9E
:1015100042F00102E263420705D5DA0703D0E26B2D
:1015200042F00202E263820705D5DA0703D0E26BDC
:1015300042F00402E263020705D5DA0703D0E26B4A
:1015400042F00802E263E26B002A34D0800604D540
:10155000880602D5204600F071FA20684069E16BE8
:10156000C0F3801001F008010143204624D000F0B0
:1015700057FA2068416949061AD5416921F04001AE
:101580004161606BA0B11B494163606BFFF7B8F923
:10159000002810D0606B416BBDE87040084783069F
:1015A0000FD58B060DD52046BDE8704000F046BA39
:1015B0002046FFF792FF70BDFFF78FFF0020E0632A
:1015C00070BD030606D50B0604D52046BDE8704065
:1015D00000F0DCBA4006F3D54806F1D5D1682046C4
:1015E00021F04001D160202184F8391000F0D2F8B8
:1015F00070BD0000111A000870B5040004D094F802
:101600003900002510B106E0012070BD84F8385083
:10161000204600F023F8242084F839002068C168AF
:1016200021F40051C160204600F054FA206801699D
:1016300021F4904101612068416921F02A01416152
:101640002068C16841F40051C160E563202084F83E
:10165000390084F83A00002070BD000010B5006821
:101660001E4986B0884236D11D48816941F0040187
:101670008161816901F004010491816941F4804133
:101680008161816901F480410491816941F0010126
:1016900081618069134C00F0010004904FF40070E8
:1016A00000900220019001200290032003906946DF
:1016B0002046FFF7BDF921150091002101916946EF
:1016C0002046FFF7B5F92520FFF7F1FA032211466E
:1016D0002520FFF7F9FA06B010BD000000380140E0
:1016E000001002400008014090F83A30202B22D12F
:1016F000F9B1F2B190F83830012B1CD081628285AB
:10170000C2850021C163222280F83A2080F8381077
:101710000168CA6842F48072CA6001684A6942F08E
:1017200001024A610068C16841F02001C1600020E7
:1017300070470120704702207047000030B50068F4
:10174000114988420CD1114A5088010408D411462D
:10175000440409784FF0000306D50A2901D05380CC
:1017600030BD40F400400DE00D2909D0C0F30D0458
:10177000074D401C80B229555080C728EFD830BD96
:1017800040F48040508030BD00380140C00000204F
:10179000BC5C00207047FEE710B50446002000F056
:1017A0003FFAC4F3074000F081F8C4F3072000F0CB
:1017B0007DF804F0F80000F079F8002000F006F859
:1017C0000446012000F02CFA204610BD00F06EB84F
:1017D00070B504460D46002000F022FAC4F307401D
:1017E00000F064F8C4F3072000F060F804F0F8009B
:1017F000001DC0B200F05AF8284600F057F8BDE8C6
:101800007040012000F00CBA30B5184885B08169ED
:1018100041F008018161816901F008010491816949
:1018200041F0400181618069202400F04000049073
:101830000120CDE90040029003200D4D0390694640
:101840002846FFF7F5F800940A4C69462046FFF752
:10185000EFF8012220212846FFF7E2F9012220219A
:101860002046FFF7DDF905B030BD00000010024052
:10187000000C014000180140FEE7704710B50A4C0B
:10188000002202212046FFF7CBF90220FEF7F8FFE5
:10189000012202212046FFF7C3F9BDE810404FF4B2
:1018A000C860FEF7D9BF0000000C014001B582B04E
:1018B0004FF47A700090012301AA02A90248FFF7B1
:1018C000B3FC9DF804000EBD1809002038B50B4686
:1018D000009204460022802100F008F8002804D07D
:1018E000606D40F020006065032038BD2DE9F041B7
:1018F0001D4617460E460446DDF8188008E0681CB1
:1019000006D0FFF793F9A0EB0800A8420BD255B11F
:101910002068806836EA000030D00020B842EED15E
:101920000020BDE8F0812068416821F0E0014160BD
:101930006068B0F5827F0BD1A068B0F5004F02D08F
:10194000B0F5806F04D12068016821F0400101608A
:10195000A06AB0F5005F09D12068016821F4005148
:1019600001602068016841F400510160012084F8A1
:101970005100002084F850000320D2E70120CDE779
:1019800030B58FB00121009102250904002407958C
:10199000CDE90114CDE908106846FFF7B9FA00B1A6
:1019A000FEE70F20CDE90A054FF48060CDE90C4039
:1019B00002210AA80E94FFF7B9F9002800D0FEE72B
:1019C0000FB030BDFFF738B90D48016841F0010193
:1019D000016041680B4A1140416001680A4A1140A8
:1019E0000160016821F480210160416821F4FE0159
:1019F00041604FF41F0181600449C00308607047D3
:101A0000001002400000FFF8FFFFF6FE08ED00E0C6
:101A100010B5406A0021C185C184FFF75EFD10BD8D
:101A20000168CA6822F49072CA6001684A6922F0AB
:101A300001024A61202180F83A10704710B590F8F1
:101A40003A10222901D0022010BD8168B1F5805FD3
:101A500011D00169002901681FD0496801F07F0396
:101A6000816A4A1C82620B70C18D491E0904090CEF
:101A7000C18518D02BE00269816A002A0268526889
:101A800005D0D2B20A80816A491C8162ECE7C2F3B8
:101A900008020A80816A891CF7E74A68816A4B1C40
:101AA00083620A70E0E70168CA6822F02002CA6017
:101AB0000168CA6822F48072CA6001684A6922F02B
:101AC00001024A61202180F83A10FFF737FE00201A
:101AD00010BD00002DE9F041044600680169E2688C
:101AE00021F4405111430161A168206901436069FB
:101AF00001432068C26841F20C639A430A43C26002
:101B000020684169A26921F44071114341611E4975
:101B1000206864253226884202D1FFF7B3F901E03C
:101B2000FFF7A0F900EBC00101EB001160686FF056
:101B300018078000B1FBF0F2B2FBF5F2B1FBF0F355
:101B40007A4303EB8202B1FBF0F306EB0212B2FB25
:101B5000F5F2B3FBF5F302F0F00202EB0312B1FB76
:101B6000F0F3B1FBF0F0B0FBF5F0784303EB80004D
:101B700006EB0010B0FBF5F0216800F00F001044F8
:101B80008860BDE8F08100000038014090F839100D
:101B9000212901D0022070478168B1F5805F016A78
:101BA0000BD04A1C0262026809785160C18C491E40
:101BB0000904090CC1840ED017E009880268C1F33A
:101BC0000801516001690029016A02D0491C0162C3
:101BD000ECE7891CFBE70168CA6822F08002CA6052
:101BE0000068C16841F04001C160002070470000FA
:101BF00010B50848FFF778FC0648FFF76FFC20286F
:101C0000FAD1012204490348FFF76EFD0028F8D1FC
:101C100010BD0000845D0020C0000020FEE7000031
:101C2000044B08B1012804D1002220211846FEF7F8
:101C3000F7BF7047000C01400E480D4A4FF4827107
:101C4000C0E90021002102238160C0E903130123C0
:101C50004361531583613823C0E9073141628162D2
:101C60000721C162106840F040001060704700001A
:101C700000380040180900200907090E002804DB7D
:101C800000F1E02080F80014704700F00F0000F130
:101C9000E02080F8141D704730380A2801D2012056
:101CA000704700207047704770B505464FF4847048
:101CB00000EB451410212046FFF78AFD2046FFF770
:101CC0006BFD0028FAD14FF4027000EB4510BDE81F
:101CD0007040FF21FFF77CBD2DE9F0410C460978EB
:101CE00017460546FF2901D051B10FE06078FF2863
:101CF0000CD1A078FF2809D1E078FF285AD005E060
:101D0000607818B9A07808B9E078E8B3E7B340F68E
:101D10000840012600EB4510FFF75AFD40F6085039
:101D2000617800EB4510FFF753FD40F60860A1789D
:101D300000EB4510FFF74CFD40F60870E17800EB32
:101D40004510FFF745FD41F20800390A00EB451048
:101D5000FFF73EFD41F20810F9B200EB4510FFF726
:101D600037FD4FF4847000EB451404212046FFF743
:101D70002FFD2046FFF710FD0028FAD14FF44270E6
:101D800000EB4514204600E014E0FFF705FD1528A0
:101D900011D02046FFF700FD17280CD0284600F090
:101DA00063F80007EED54FF4027000EB45100821F0
:101DB000FFF70EFD00263046BDE8F08110B5044661
:101DC0000420FFF76AFB0148046010BDBC0000203E
:101DD00070B5054600244FF47A7603E0304600F0F3
:101DE00005F8641CAC42F9D370BD000070B54FF02B
:101DF000E02500216C69094AAB6912685043AA6961
:101E00009A42FCD002D2A3EB020302E0A4EB02064A
:101E10003344194413468142F1D370BDBC00002005
:101E200004490A685206FCD5024AC1B2121D11606B
:101E3000704700000038014004220146900101F083
:101E400051BC0000014931F810007047F60800202D
:101E5000014604224FF4706001F044BC01460422A4
:101E60004FF4A06001F03EBC4FF4027101EB401052
:101E7000FFF792BC2DE9F04142F2086101EB4016F8
:101E800042F20871002701EB40153046FFF784FC51
:101E900004462846FFF780FC00EB04200404240CD1
:101EA00009D03046FFF778FC07462846FFF774FC58
:101EB00000EB072087B2A742E7D13846BDE8F081A2
:101EC0004FF4427101EB4010FFF766BC2DE9F04181
:101ED00042F2080101EB401642F20811002701EB23
:101EE00040153046FFF758FC04462846FFF754FCDF
:101EF00000EB04200404240C09D03046FFF74CFC0E
:101F000007462846FFF748FC00EB072087B2A742A8
:101F1000E7D13846BDE8F0810F4E104C4FF4FA750A
:101F2000002220213046FEF77BFE012220212046A0
:101F3000FEF776FE2846FFF74BFF012220213046B0
:101F4000FEF76EFE002220212046FEF769FE28469D
:101F5000FFF73EFFE4E70000000C014000180140DD
:101F60001CB5FEF771FE4FF4E010FFF709FD4820A5
:101F7000FFF724FF4FF4E13000F0A0FFFFF744FC2F
:101F800006490120CDE900010023802204A1074871
:101F900001F01AFF01F062FA00201CBD00000020D1
:101FA00073746172745F7461736B0000692D000853
:101FB0002DE9F041184E0F460446F5683068001DC3
:101FC00000F098FF38B9306890F82C100120884054
:101FD000316981433161601C07D137B13168BDE897
:101FE000F0410E48091D00F0BDBF30682C44AC42E2
:101FF0004460316805D2B06BBDE8F041091D00F0C6
:1020000099BF706B091D00F095FFB06A844200D241
:10201000B462BDE8F08100003C000020800C00208C
:102020002DE9F041054600F0A9FF2D4EB068401C97
:10203000B06030682B4F10B1706930B32BE0356061
:10204000B068012827D1002404EB840007EB80004E
:1020500000F062FF641C202CF6D3234800F05CFFE4
:102060002148143000F058FF1F48283000F054FF7A
:102070001D483C3000F050FF1B48503000F04CFF32
:10208000194870631430B06305E03068E96AC06ACB
:10209000884200D83560706A0121401C7062686413
:1020A000E86A326981401143316100EB800007EB3F
:1020B0008000291D00F056FF00F09CFF7069002889
:1020C0000CD03068E96AC06A884207D207494FF0ED
:1020D00080500860BFF34F8FBFF36F8FBDE8F08172
:1020E0003C000020B0090020300C002004ED00E08E
:1020F00010B500F043FF0E4C2068A0B90D4800F069
:102100000BFF0C48143000F007FF0A48E060143061
:10211000206100221021052001F08CFB206010B10D
:1021200005A101F03DF8BDE8104000F063BF0000DC
:1021300078000020940C0020546D725100000000C3
:1021400070B5124E124D1CE001F0D2F9306820B18A
:10215000002401F093FFA4B901E00124F9E700F0A5
:102160000DFFF068C468201D00F0C4FEA868401E82
:10217000A8606868401E686000F03CFF204600F0E0
:1021800052F868680028DFD170BD00006C0C002098
:102190003C00002030B4026C0B46002A0BD0C16812
:1021A0001144C1604468A14201D30168C16030BCE0
:1021B0001846FEF7B7B930BC70472DE9F041856B82
:1021C000174604460026026C82B1C7B1E068FEF7EC
:1021D000A9F9E168206C091AE1602268914202D2F3
:1021E0006168081AE060022F16D017E02068A8B9CD
:1021F000606801F09DFE0646002060600EE0A06869
:10220000FEF790F9216CA0680844A06061688842DC
:1022100004D32068A06001E005B16D1E6D1CA563AC
:102220003046BDE8F08110B50446006B00F014FFA5
:102230002046BDE8104000F00FBF000010484FF4EA
:10224000A041420706D0C01D0D4920F00700411AE9
:10225000C1F5A0410B4A00230144C2E9000308393B
:10226000103A21F0070111604B600B600B1AC0E9B6
:10227000001393604FF000405360D060704700003F
:10228000BC0C00209C000020074E4FF08054074DEE
:10229000FFF756FF30680128FAD92C60BFF34F8F43
:1022A000BFF36F8FF4E70000B009002004ED00E0F9
:1022B0002DE9F047DDE909840E4617468246910074
:1022C0009946089DA522206BFEF7A3F96FF0030144
:1022D000206B01EB8701084420F00707780705D041
:1022E00040F22B3219A11EA0FDF7E6FF00202218B4
:1022F000315C82F83410315C11B1401C1028F6D3E7
:10230000002684F84360202D00D31F25E562C4E930
:102310001356201D00F00BFE04F1180000F007FE1C
:102320002461C5F120006462A061666584F858608C
:102330004A465146384600F003FB2060B8F1000FD2
:1023400001D0C8F80040BDE8F08700002E2E5C46A2
:1023500072656552544F535C7461736B732E6300E6
:102360004572726F723A25732C25640D0A000000C5
:1023700030B5114900E011460A688242FBD34B6830
:102380005C18844203D1406818444860084643689A
:102390001C18944209D1084C103C2468A24209D070
:1023A00052681A4442600A6812680260814200D092
:1023B000086030BD0460F9E79C00002070B500247F
:1023C00041600B4D0061914206D8D11A8269914259
:1023D00006D2011D286907E09A4203D2994201D32F
:1023E000012403E0011DE86800F0A4FD204670BD53
:1023F0007800002010B5044600F0C0FDA06B20B1AD
:10240000002400F0F7FD204610BD0124F9E700008C
:102410002DE9F34100980F460026846C2CB940F654
:10242000CE1216A11AA0FDF747FFA06BE16B884200
:1024300005D340F6CF1211A115A0FDF73DFFA06B0B
:10244000E16B88420CD294F945503A4669462046E1
:10245000FFF7B3FE0646681C05D06D1C84F8455096
:102460003046BDE8FC81606A0028F9D004F1240000
:1024700001F0B8FD0028F3D00126F1E72E2E5C46CE
:1024800072656552544F535C71756575652E6300B6
:102490004572726F723A25732C25640D0A00000094
:1024A000F8B5054614480E46C068C068C468201DCB
:1024B00000F020FDE069012817D1A0692B464119E1
:1024C00032462046FFF77AFF78B1002003460146E6
:1024D00000902A46204601F0B7FE30B907494FF474
:1024E000027201F11800FDF7E7FE616A01B02046B3
:1024F000BDE8F0400847000078000020AC4100082B
:1025000070B586B02F4E53E00198002806DADDE959
:102510000301029A90470198002849DB039C6069F7
:1025200010B1201D00F0E6FC05A800F0A7F8054654
:1025300001980A283CD2DFE800F00505053B273862
:1025400005053B270298A169034601442A46204617
:10255000FFF734FF00282BD0616A20468847E069E6
:10256000012825D1002000900298A169002342187B
:102570001946204601F068FED0B940F2213212A17E
:1025800017A0FDF799FE13E00298A06128B94FF457
:102590004E720DA112A0FDF78FFEA0692B464119C6
:1025A0001A462046FFF70AFF02E0204600F054FDDD
:1025B00000231A4601A9306801F078F90028A3D158
:1025C00006B070BD780000202E2E5C467265655204
:1025D000544F535C74696D6572732E630000000084
:1025E0004572726F723A25732C25640D0A00000043
:1025F000F8B50D46064600F07BFF684600F03EF851
:102600000446009810B101F039FDF8BD1148ADB194
:1026100001690968D9B10025311B2A46006800F01C
:10262000D1FD01F02BFD0028EFD10B494FF0805078
:102630000860BFF34F8FBFF36F8FF8BDA642EBD892
:1026400001F01CFD21463046FFF72AFFF8BD0125A9
:10265000E2E700007800002004ED00E00648416B4E
:10266000096829B1416BC968C968496881627047C6
:102670004FF0FF31FAE700003C00002070B505463E
:1026800001F0DCFB064E0446B068844203D200F041
:1026900009F8012000E0002028602046B46070BDE9
:1026A00078000020F8B5184E26E0C068C4680568B8
:1026B000201D00F01FFC616A20468847E069012860
:1026C0001AD1A0692844A84206D924616060211D5E
:1026D000F06800F02FFC0FE0002003460146009058
:1026E0002A46204601F0B0FD30B9084940F2923246
:1026F00001F11800FDF7E0FDF06801680029D4D170
:102700003169C6E90310F8BD78000020AC4100082B
:1027100008484068401C04D0F42207A111A0FDF72E
:10272000CBFD502080F31188BFF34F8FBFF36F8F25
:10273000FEE70000A40000202E2E5C467265655264
:10274000544F535C706F727461626C655C52564496
:10275000535C41524D5F434D335C706F72742E6316
:10276000000000004572726F723A25732C25640DCB
:102770000A000000084CE068016839B1002139B155
:102780000020FFF735FFFFF7BBFEF4E70121F6E776
:10279000C0680068F5E70000780000202DE9F041EE
:1027A000044600F0EBFB94F9455004F1240610E0D8
:1027B000A06C20B100212046FFF72AFE04E0606AE9
:1027C00048B1304601F00EFC08B100F083FD6D1EEB
:1027D0006DB2002DECDC4FF0FF3684F8456000F060
:1027E00009FC00F0CBFB94F9445004F1100709E018
:1027F000206948B1384601F0F5FB08B100F06AFDE8
:102800006D1E6DB2002DF3DC84F84460BDE8F0412C
:1028100000F0F0BB2DE9F0410546002600F068FE0F
:10282000324F386808B9FFF709FDF86805424FD103
:10283000002D4DD0083568070BD005F00700C0F11A
:1028400008000544680704D0BF2229A132A0FDF783
:1028500033FD002D3CD07868854239D823491031AA
:102860000846046801E0214604466068A84202D296
:1028700020680028F7D13868B846844228D00E680E
:102880002068086060680836401B10280ED9671958
:10289000780704D0EC2216A11FA0FDF70DFD60689B
:1028A000401B786038466560FFF762FD6168D8F8C4
:1028B00004004246401AC8F80400D8F8083098428C
:1028C00000D29060D8F80C0001430020C4E9000158
:1028D00001F0D4FB700705D04FF4967204A10EA04E
:1028E000FDF7EAFC3046BDE8F08100008C000020D6
:1028F0002E2E5C4672656552544F535C706F727435
:1029000061626C655C4D656D4D616E675C686561AB
:10291000705F342E630000004572726F723A257347
:102920002C25640D0A0000000449086818B10868E5
:10293000026D521C02650868704700003C000020D0
:1029400010B5031F4FF080741C601B1F21F00101A4
:102950001960191F024B0B60143940380A6010BD12
:102960001127000870B5044615004FF0000010D084
:10297000204600F00FF84FF4847000EB441440211F
:102980002046FEF725FF2046FEF706FF0028FAD175
:10299000284670BD2DE9F0475FEA020889460446E3
:1029A00026D042F6080000EB44173846FEF7F4FE46
:1029B000054642F6081000EB44163046FEF7ECFEE2
:1029C00000EB052085B2280200EB44104246494640
:1029D000183000F087FE05EB080084B2210A384663
:1029E000FEF7F6FEE1B23046BDE8F047FEF7F0BE76
:1029F0002146BDE8F04701A0FDF75EBC43483A2000
:102A0000256420556E657870656374656432206C4A
:102A1000656E67746820300D0A0000002DE9F041F2
:102A2000144688460646FFF70DFAA04203D2304608
:102A3000FFF708FA04464FF4427000EB46153046A3
:102A4000FFF744FA07462846FEF7A6FE172803D0EC
:102A50001C2801D0002401E0A742F0D322464146C1
:102A6000304600F03BF84FF4847000EB461720210D
:102A70003846FEF7ADFE3846FEF78EFE0028FAD146
:102A80004FF4027000EB46173846FEF785FEC0068D
:102A90000FD42846FEF780FE1728F5D01C28F3D067
:102AA00009A0FDF709FC3046FFF7FEF80020BDE85D
:102AB000F08138461021FEF78BFE38461021FEF7D4
:102AC00087FE2046F3E7000053454E445F4F4B20FE
:102AD00050726F626C656D21210D0A002DE9F0477F
:102AE0005FEA02088946044626D042F2084000EB1D
:102AF00044173846FEF750FE054642F2085000EBF8
:102B000044163046FEF748FE00EB052085B2280249
:102B100000EB441042464946103000F019FE05EB28
:102B2000080084B2210A3846FEF752FEE1B2304670
:102B3000BDE8F047FEF74CBE2146BDE8F04701A0D6
:102B4000FDF7BABB43483A20256420556E6578707E
:102B5000656374656431206C656E67746820300D40
:102B60000A00000004220146900100F0F1BD014678
:102B70004FF4D850FEF72CBE10B50446010A4FF4AE
:102B8000C850FEF725FEE1B2BDE810404FF4D0502A
:102B9000FEF71EBE014606224FF4106000F0D8BDBD
:102BA000014604224FF4706000F0D2BD01460422B9
:102BB0004FF4A06000F0CCBD4FF4027202EB401065
:102BC000FEF706BE0D490C480A68C2604A680261F9
:102BD0008A6842610A6940F8042F8A8A8280C9683B
:102BE00041610021017701224277C18380F82010E2
:102BF0008271C17170470000C808002010000020D9
:102C000008B52348FFF7C6FF21480C30FFF7CEFF79
:102C10001F481030FFF7A6FF1D480830FFF7C0FF20
:102C20001C49A1F1080000F0D3F84FF4FA60FFF757
:102C3000A3FF0320FFF79BFF16481E38FFF708F994
:102C400014481E38C178009183784278017812A028
:102C5000FDF732FB0F481A38FFF700F90D481A3814
:102C6000C178009183784278017810A0FDF724FBA9
:102C700008481638FFF7E0F806481638C178009182
:102C80008378427801780EA0FDF716FB08BD00009E
:102C9000CC0800202E000020204950203A20256436
:102CA0002E25642E25642E25640D0A0020534E2007
:102CB0003A2025642E25642E25642E25640D0A00F5
:102CC000204757203A2025642E25642E25642E2582
:102CD000640D0A002DE9F041044601F00F001F4683
:102CE00015460E4601280AD0022808D0032806D02F
:102CF000042804D0052802D00020BDE8F081204639
:102D0000FEF7D2FF082046EA070100EB4410FEF769
:102D10005FFD4FF481604FF4A16100EB441001EBC3
:102D2000441625B1290AFEF753FDE9B208E00D4D1E
:102D30002988491C89B22980090AFEF749FD2978AA
:102D40003046FEF745FD4FF4847000EB441401213A
:102D50002046FEF73DFD2046FEF71EFD0028FAD175
:102D60000120CAE7360000201CB500F007F90F4922
:102D70000220CDE90001002332220DA10F4801F00D
:102D800023F80A490320091DCDE90001002340F280
:102D9000DC520BA10D4801F017F80448001F006831
:102DA00000F032FABDE81C4000F024B90400002015
:102DB0006C6564305F7461736B000000191F00085C
:102DC00077353530305F7461736B00007D350008F6
:102DD0002DE9F05F002688468146354634464FF49B
:102DE000806A4FF4805B4FF4006741F6087019F871
:102DF000041000EB4410FEF7EBFC41F6086018F8F5
:102E0000041000EB4410FEF7E3FC2B4A002002F113
:102E1000100122F814004FF4804321F814009E4260
:102E20000FDC19F8040004281BD004DC012812D0A0
:102E3000022804D112E0082816D0102819D021F851
:102E400014709D421EDC18F80400042828D013DCFE
:102E5000012815D121E022F814A0F2E722F814701D
:102E6000EFE722F814B0ECE74FF4005022F814001A
:102E7000E7E722F81430E4E7082814D0102817D028
:102E800021F8147032F81400064431F81400641C60
:102E90000544082CA9DBBDE8F09F21F814A0F1E758
:102EA00021F814B0EEE74FF4005021F81400E9E7E0
:102EB00021F81430E6E70000F60800200B4910B5B1
:102EC000094AC1E9002000208860C8600861886163
:102ED0000C2048610846FEF78FFBBDE81040012238
:102EE00003490248FEF700BC00380140845D002021
:102EF000C0000020D0E9013201699A60D0E90123C5
:102F00005A604A68824201D182684A6000220261A6
:102F10000868401E0860704700F108014FF0FF325A
:102F2000C0E90112C1600161002101607047002108
:102F30000161704730B50C68621C02D000F10802D4
:102F400002E0026904E01A4653681D68A542FAD9F6
:102F500053684B6099608A60516008610168491C40
:102F6000016030BD42684A6093688B609368596025
:102F7000916008610168491C01607047502080F32E
:102F80001188BFF34F8FBFF36F8F09494868401C0A
:102F9000486001280AD10748006810F0FF0F05D0EB
:102FA0004FF4BD7204A10FA0FDF786B97047000071
:102FB000A400002004ED00E02E2E5C4672656552F0
:102FC000544F535C706F727461626C655C5256440E
:102FD000535C41524D5F434D335C706F72742E638E
:102FE000000000004572726F723A25732C25640D43
:102FF0000A00000010B5084C606828B940F2811240
:1030000006A111A0FDF758F96068401E606001D16B
:1030100080F3118810BD0000A40000202E2E5C4615
:1030200072656552544F535C706F727461626C6567
:103030005C525644535C41524D5F434D335C706F5C
:1030400072742E63000000004572726F723A25732D
:103050002C25640D0A00000070B500282AD0164DFA
:10306000A0F108046068E968084205D14FF4A07235
:1030700012A11CA0FDF720F9206828B140F24112EE
:103080000EA118A0FDF718F96068E968084211D090
:103090002268002A0ED18843606000F029FA606837
:1030A0006968084468602046FFF762F9BDE870402F
:1030B00000F0E4BF70BD00008C0000202E2E5C46A6
:1030C00072656552544F535C706F727461626C65C7
:1030D0005C4D656D4D616E675C686561705F342E37
:1030E000630000004572726F723A25732C25640DDF
:1030F0000A00000006484FF47A710068B0FBF1F155
:103100004FF0E020491E4161072101617047000036
:103110000C00002010B5FDF7A9F8104C10280CD3B6
:1031200000F1E02090F8F0032178884205D24FF4B6
:103130002A720BA115A0FDF7BFF818480068A16816
:1031400000F4E060884207D9BDE810404FF42E72C9
:1031500003A10EA0FDF7B0B810BD0000A400002030
:103160002E2E5C4672656552544F535C706F7274BC
:1031700061626C655C525644535C41524D5F434DF5
:10318000335C706F72742E63000000004572726FC2
:10319000723A25732C25640D0A0000000CED00E046
:1031A00010B5074B002253F832401CB1521C082ABC
:1031B000F9D310BD43F8321003EBC201486010BDD3
:1031C0007009002070B515460E460446FFF7D6FE7E
:1031D00094F944100020491C01D184F8440094F96A
:1031E0004510491C01D184F84500FFF703FFA06B8F
:1031F00028B92A46314604F1240000F09BF8204605
:10320000BDE87040FFF7CABA70B50446FFF7B6FED6
:10321000234D04B92C68201DFFF76CFE58B9E06AF5
:10322000204A00EB800152F8211021B90121814090
:10323000286988432861A06A18B104F11800FFF7D3
:1032400059FE686A401C68622868844207D1211DC3
:103250001548FFF787FE6868401C686007E0A868AB
:10326000401EA8602046FEF7DEFFFFF7F7F9FFF7E4
:10327000C1FE6869002812D0286884420FD1286BEB
:1032800028B140F2654209A10DA0FDF715F81049DB
:103290004FF080500860BFF34F8FBFF36F8F70BD4A
:1032A0003C000020B00900206C0C00202E2E5C4653
:1032B00072656552544F535C7461736B732E630077
:1032C0004572726F723A25732C25640D0A00000056
:1032D00004ED00E001490120C86170473C00002076
:1032E00070B50D46040005D140F6063207A10CA0CA
:1032F000FCF7E2FF0E48016820461831FFF71AFE7E
:103300002846BDE870400121FEF752BE2E2E5C46D5
:1033100072656552544F535C7461736B732E630016
:103320004572726F723A25732C25640D0A000000F5
:103330003C00002070B514460E46050005D140F64D
:10334000313209A10DA0FCF7B7FF104801682846EB
:103350001831FFF707FE0CB14FF0FF36214630461B
:10336000BDE87040FEF724BE2E2E5C4672656552A5
:10337000544F535C7461736B732E63004572726FAC
:10338000723A25732C25640D0A0000003C000020D1
:1033900070B5040039D01D4DE06A2968C96A8842B9
:1033A00033D2A069002804DB2868C06AC0F120007D
:1033B000A061E06A164E00EB8000616906EB8000B8
:1033C00081421FD1201DFFF795FD012150B9E06A10
:1033D00000EB800256F8222022B92A6901FA00F097
:1033E00082432A612868C06AE0622A6981401143E9
:1033F000296100EB800006EB8000211DBDE87040D4
:10340000FFF7B0BD2868C06AE06270BD3C000020D4
:10341000B009002010B5040005D140F6C13205A165
:1034200009A0FCF749FF0C48016A2160C068606090
:1034300010BD00002E2E5C4672656552544F535CE1
:103440007461736B732E63004572726F723A2573E9
:103450002C25640D0A0000003C0000201CB5174814
:103460000024CDE900402346822215A1164800F031
:10347000ABFC012803D100F0ADFE01280AD0401CAE
:103480001BD102B040F28472BDE810400FA114A01D
:10349000FCF712BF502080F31188BFF34F8FBFF3AA
:1034A0006F8F06484FF0FF312C3881620121416156
:1034B000C460BDE81C4000F081B91CBD680000205C
:1034C00049444C4500000000892200082E2E5C462D
:1034D00072656552544F535C7461736B732E630055
:1034E0004572726F723A25732C25640D0A00000034
:1034F0000248016B491C0163704700003C0000203A
:1035000070B5134D286B10B10120E86170BD00202B
:10351000E86128690F4EB0FA80F0C0F11F0000EB9F
:10352000800456F8240028B940F6F6220AA10FA01C
:10353000FCF7C2FE06EB840000F10802416849680E
:103540004160914201D149684160C868286070BDFE
:103550003C000020B00900202E2E5C4672656552AA
:10356000544F535C7461736B732E63004572726FBA
:10357000723A25732C25640D0A0000001CB538A092
:1035800041F28835006841F270760190FDF78CF9C0
:10359000FEF752FBFEF772F9FFF714FBFFF730FB63
:1035A0009DF8070000909DF806309DF805209DF8D5
:1035B00004102CA0FCF780FE294632A0FCF77CFE0C
:1035C00036A0FCF779FE3BA0FCF776FE404C0020CD
:1035D000FEF776FCE0B3132807D017280BD01C2881
:1035E000F5D10020FEF760FBF1E72A4601A9002093
:1035F000FEF772FBEBE70020FEF736FCC00703D0B6
:1036000001210020FFF7D8FA0020FEF733FC070065
:103610000DD002462F490020FFF7A4F92D492EA016
:10362000FCF74AFE3A462B490020FFF7F7F92088BD
:103630000104CCD5C0F30D073A4629490020FFF715
:10364000EDF900202080791C2548FCF7EAFFBEE751
:10365000FFE72023324601210020FFF73BFBB6E7BE
:10366000C0A8019754435020536572766572204973
:10367000503A2025642E25642E25642E2564200DC5
:103680000A00000054435020536572766572205042
:103690006F72743A202564200D0A000057353530CA
:1036A0003020496E697420436F6D706C65746521BC
:1036B0000D0A000053746172742054435020436C0F
:1036C00069656E742054657374210D0A0000000052
:1036D000C2000020C800002025730D0A0000000071
:1036E000BC5C00202DE9F04115000E4607464FF066
:1036F000000402D110A0FCF7DFFD0020FEF790FAD5
:10370000C7F30740FEF7D2F8C7F30720FEF7CEF85D
:1037100007F0F800FEF7CAF805E00020FEF756F8BB
:103720003055641CA4B2AC42F7D30120FEF778FAFE
:103730002846BDE8F0810000556E657870656374B9
:10374000656432206C656E67746820300D0A000075
:103750002DE9F04115000E4607464FF0000402D156
:1037600010A0FCF7A9FD0020FEF75AFAC7F30740A6
:10377000FEF79CF8C7F30720FEF798F807F0F8006B
:10378000001DC0B2FEF792F804E0305DFEF78EF83F
:10379000641CA4B2AC42F8D30120FEF741FA2846DB
:1037A000BDE8F081556E657870656374656432209C
:1037B0006C656E67746820300D0A00001CB51A49EC
:1037C00008780190FF20087008788DF800009DF8B7
:1037D0000000164A00F0500010700720906007E0CB
:1037E0009068401E90609DF8000040008DF8000039
:1037F0009DF800000006F3D4107A000200F4E060A7
:103800009060019808700A48016841F470010160F5
:10381000016841F070410160FFF76CFC00205060CE
:10382000FCF7EEFC00201CBD00E400E0A40000203A
:1038300020ED00E02DE9F04117460E46050005D1C8
:103840004FF4C47210A115A0FCF736FDBEB105FB04
:1038500006F05430FEF7DEFF04000ED004F15400F1
:103860007EB12060C4E90F562046012100F0E0F847
:1038700084F8507000212046A164BDE8F08100204A
:10388000E7E72460EEE700002E2E5C467265655285
:10389000544F535C71756575652E63004572726F88
:1038A000723A25732C25640D0A0000002DE9FF4FA4
:1038B00083B09B468A4604004FF0000605D140F2D3
:1038C000DC4251A155A0FCF7F7FCBAF1000F07D17B
:1038D000206C28B140F2DD424BA150A0FCF7ECFC7B
:1038E00000F09EFA38B9059828B14FF49C6246A1C1
:1038F0004AA0FCF7E1FC4FF000094FF08057DFF8D9
:103900002C81FFF73BFBA56B45B351462046E6688B
:10391000FEF740FCBBF1000F13D0E660606A50B1C7
:1039200004F1240000F05EFB28B1C8F80070BFF37A
:103930004F8FBFF36F8FFFF75DFB012007B0BDE82E
:10394000F08F6D1EA563206810B9FEF7EDFF606073
:1039500020690028EFD004F11000E3E7059808B1D2
:103960001EB106E0FFF746FB27E06846FFF752FD71
:103970000126FFF73FFBFFF7BBFDFFF7FFFA94F9C6
:103980004400401C01D184F8449094F94500401C47
:1039900001D184F84590FFF72DFB05A9684600F09A
:1039A000CFF9002820460AD0FEF7F8FE00F066FBAB
:1039B0002046FEF71FFD0028A3D00020BEE7FEF73B
:1039C00019FDD8B1206830B9FFF7D8FA6068FFF761
:1039D000DFFCFFF70FFB04F124000599FFF780FCE3
:1039E0002046FEF7DBFE00F049FB002889D1C8F82D
:1039F0000070BFF34F8FBFF36F8F82E72046FEF753
:103A0000CDFE00F03BFB7CE72E2E5C4672656552D6
:103A1000544F535C71756575652E63004572726F06
:103A2000723A25732C25640D0A00000004ED00E0B5
:103A300070B50D46040005D140F21B121CA121A057
:103A4000FCF73AFCFFF79AFAD4E90F20216802FB51
:103A5000001161600021A1632168A1600A46D4E9D8
:103A60000F01401E00FB0121E16021464FF0FF30B5
:103A700001F8440F487004F110004DB1FFF74CFA03
:103A800004F12400FFF748FAFFF7B4FA012070BDF3
:103A900021690029F8D000F0A5FA0028F4D00D49DA
:103AA0004FF080500860BFF34F8FBFF36F8FEBE78D
:103AB0002E2E5C4672656552544F535C7175657568
:103AC000652E63004572726F723A25732C25640D62
:103AD0000A00000004ED00E02DE9FF4F83B0994695
:103AE0008B4604004FF0000605D140F2D92252A1C6
:103AF00056A0FCF7E1FBBBF1000F07D1206C28B109
:103B000040F2DA224CA151A0FCF7D6FBB9F1020F2A
:103B100008D1E06B012805D040F2DB2246A14BA082
:103B2000FCF7CAFB00F07CF938B9059828B140F2DF
:103B3000DE2241A145A0FCF7BFFB4FF0000A4FF089
:103B40008057DFF81881FFF719FAA06BE16B884204
:103B500006D3B9F1020F03D0059800B316B325E0E0
:103B60004A4659462046FEF728FBA16C21B149463A
:103B70002046FEF74DFC05E0616A19B104F124000E
:103B800000F030FA28B1C8F80070BFF34F8FBFF3D0
:103B90006F8FFFF72FFA012007B0BDE8F08FFFF716
:103BA00029FA21E06846FFF735FC0126FFF722FAE3
:103BB000FFF79EFCFFF7E2F994F94400401C01D1A5
:103BC00084F844A094F94500401C01D184F845A034
:103BD000FFF710FA05A9684600F0B2F830B12046A8
:103BE000FEF7DCFD00F04AFA0020D5E7FFF7C6F942
:103BF000A06BE16B884201D1012500E00025FFF7B1
:103C0000F9F995B104F110000599FFF769FB204619
:103C1000FEF7C4FD00F032FA002894D1C8F8007015
:103C2000BFF34F8FBFF36F8F8DE72046FEF7B6FDD2
:103C300000F024FA87E700002E2E5C46726565527C
:103C4000544F535C71756575652E63004572726FD4
:103C5000723A25732C25640D0A00000004ED00E083
:103C60002DE9F047984615468946040005D140F2F3
:103C70009F322AA12EA0FCF71FFBB9F1000F07D13C
:103C8000206C28B14FF4687224A129A0FCF714FB22
:103C9000B8F1020F08D1E06B012805D040F2A13243
:103CA0001EA123A0FCF708FBFFF734FA5020EFF326
:103CB000118780F31188BFF34F8FBFF36F8FA06B15
:103CC000E16B884207D3B8F1020F04D0002087F3DC
:103CD0001188BDE8F08794F9456042464946204680
:103CE000FEF76BFA701C04D0761C84F84560012046
:103CF000EDE7A06C012620B141462046FEF788FB87
:103D000006E0606A0028F2D004F1240000F06AF9AD
:103D10000028ECD0002DEAD02E60E8E72E2E5C467D
:103D200072656552544F535C71756575652E6300FD
:103D30004572726F723A25732C25640D0A000000DB
:103D400070B50D46040005D140F6CB3214A119A080
:103D5000FCF7B2FA2DB940F6CC3211A115A0FCF750
:103D6000ABFAFFF70BF9174AD06829684B1C0FD044
:103D70002368126A934202D0626882420AD962685A
:103D8000801A884206D2081A28602046FFF742FBB4
:103D9000002400E00124FFF72DF9204670BD00004B
:103DA0002E2E5C4672656552544F535C7461736B82
:103DB000732E63004572726F723A25732C25640D61
:103DC0000A0000003C0000202DE9FF5F8346DDE98A
:103DD0000E87994616468A469000FEF71BFD0500A1
:103DE0001AD05C20FEF716FD040012D025630021D6
:103DF000CDE90241CDE900874B463246514658464F
:103E0000FEF756FA2046FEF70BF9012004B0BDE894
:103E1000F09F2846FFF720F94FF0FF30F6E700004B
:103E20000548416919B1006B18B1002070470120A5
:103E300070470220704700003C0000200148C06825
:103E4000704700003C0000202DE9F0412D4F002676
:103E5000386B40B1B869401CB861F86900B10126FF
:103E60003046BDE8F081FD686D1CFD6011D1786BB6
:103E7000006828B140F6D91223A128A0FCF71CFA4B
:103E8000786BB96B7963B863386A401C3862FEF7A7
:103E9000E5FBB86ADFF89480854209D3786B006847
:103EA00080B1786BC068C468606885420DD2B86222
:103EB0003868C06A00EB800158F821000128CCD98D
:103EC0000126CAE74FF0FF30F1E7201DFFF712F897
:103ED000A06A18B104F11800FFF70CF8E06A01219C
:103EE0003A6981401143396100EB800108EB8100A0
:103EF000211DFFF737F8E06A3968C96A8842CDD3D7
:103F00000126CBE73C0000202E2E5C4672656552F0
:103F1000544F535C7461736B732E63004572726F00
:103F2000723A25732C25640D0A000000B0090020A8
:103F300070B504004FF000063CD01F4D2868844245
:103F400005D040F6C7621DA121A0FCF7B5F9206D90
:103F500028B940F6C96219A11DA0FCF7ADF9206D82
:103F6000401E2065E26CE16A914223D010BB201D07
:103F7000FEF7C0FF1A49012250B9E06A00EB800346
:103F800051F8233023B92B6902FA00F083432B61E7
:103F9000E06CE062C0F12000A061E06A2B69824021
:103FA0001A432A6100EB800001EB8000211DFEF71F
:103FB000D9FF0126304670BD3C0000202E2E5C4605
:103FC00072656552544F535C7461736B732E63005A
:103FD0004572726F723A25732C25640D0A00000039
:103FE000B00900202DE9F041C068C4682CB940F642
:103FF000613216A11AA0FCF75FF904F11800074618
:10400000FEF778FF1A4D286B012660B13946194832
:10401000FEF7A8FFE06A2968C96A884213D901201F
:10402000EE61BDE8F081201DFEF764FFE06A2A69B9
:1040300006FA00F1114329610F4900EB800001EB02
:104040008000211DE4E70020EBE700002E2E5C46F7
:1040500072656552544F535C7461736B732E6300C9
:104060004572726F723A25732C25640D0A000000A8
:104070003C000020580C0020B00900202DE9F0473A
:104080002B4D00242746286B28B94FF4FD6229A147
:104090002DA0FCF711F9FEF771FF286B401E286375
:1040A000286BE8BBA8682C490126C8B3A1F52A797A
:1040B0008846D8F80010E9B1D8F80C00C46804F1BB
:1040C0001800FEF717FF201DFEF714FFE06A2A69AB
:1040D00006FA00F11143296100EB800109EB810030
:1040E000211DFEF73FFFE06A2968C96A8842E0D3D4
:1040F000EE61DEE70CB1FEF7B1FAAC693CB1FFF757
:10410000A3FE00B1EE61641EF9D10020A861E86948
:1041100030B11249012738070860BFF34F8F00E024
:1041200001E0BFF36F8FFEF765FF3846BDE8F0870B
:104130003C0000202E2E5C4672656552544F535C45
:104140007461736B732E63004572726F723A2573DC
:104150002C25640D0A000000580C002004ED00E03E
:104160002DE9F0470746994616460D462C20DDF806
:1041700020A0FEF74FFB040014D0B8464F46D146AE
:104180002DB94FF4C67209A10EA0FCF795F8FDF702
:10419000AFFF04F11801C4F8008081E8E002201D9F
:1041A000FEF7C5FE2046BDE8F08700002E2E5C46D7
:1041B00072656552544F535C74696D6572732E63FA
:1041C000000000004572726F723A25732C25640D51
:1041D0000A0000001CB50024FDF78AFF0C480068A7
:1041E00068B10B491F20091DCDE9000100234FF4E0
:1041F000827208A10948FFF7E7FD040005D140F2EB
:10420000331207A10CA0FCF757F820461CBD000094
:1042100078000020546D72205376630075270008E3
:104220002E2E5C4672656552544F535C74696D6501
:1042300072732E63000000004572726F723A25732C
:104240002C25640D0A0000002DE9FF47DDF830A0A1
:10425000994690460D4606004FF0000705D14FF4F1
:10426000D37212A117A0FCF727F81A4C206880B16E
:10427000CDE900580296062D11DAFFF7D1FD02288C
:104280004FF0000309D0002269462068FFF724FCA4
:10429000074604B03846BDE8F0875246F4E70023ED
:1042A0004A466946FFF7DCFCF2E700002E2E5C462A
:1042B00072656552544F535C74696D6572732E63F9
:1042C000000000004572726F723A25732C25640D50
:1042D0000A0000007800002000000000000000003C
:1042E000010203040607080900000000010203049C
:1042F00004000008000000000000000200010000AF
:10430000100000002443000800000020C800000046
:104310006C010008EC430008C80000206063000046
:1043200088010008000000000000000000000000FC
:104330000024F400C0A8000AFFFFFF00C0A800018D
:10434000080808080008DC11111104020202020228
:10435000020004020202020202000000000000004B
:10436000000000000000000000000000000000004D
:10437000000000000000000000000000000000003D
:10438000000000000000000000000000000000002D
:10439000000000000000000000000000000000001D
:1043A000000000000000000000000000000000000D
:1043B00000000000000000000000000000000000FD
:1043C000000000000000000000000000AAAAAAAA45
:1043D00000000000010000001000000000000000CC
:0C43E000000000000000000000000000D1
:040000050800027578
:00000001FF
