:020000040800F2
:10000000F0170020FD0400080103000803030008A6
:10001000070300080B0300080F030008000000009E
:1000200000000000000000000000000013030008B2
:10003000150300080000000017030008190300085A
:100040001705000817050008170500081705000820
:100050001705000817050008170500081705000810
:100060001705000817050008170500081705000800
:1000700017050008170500081705000817050008F0
:1000800017050008170500081705000817050008E0
:1000900017050008170500081705000817050008D0
:1000A00017050008170500081705000817050008C0
:1000B00017050008170500081705000817050008B0
:1000C00017050008170500081705000817050008A0
:1000D00017050008FF22000817050008170500088B
:1000E0001705000817050008170500081705000880
:1000F0001705000817050008170500081705000870
:10010000170500081705000817050008170500085F
:10011000170500081705000817050008170500084F
:10012000170500081705000817050008170500083F
:1001300000F002F800F090F80AA090E8000C824469
:100140008344AAF10107DA4501D100F085F8AFF246
:10015000090EBAE80F0013F0010F18BFFB1A43F0A5
:10016000010318476066000080660000103A24BF53
:1001700078C878C1FAD8520724BF30C830C144BF0C
:1001800004680C607047000000230024002500264E
:10019000103A28BF78C1FBD8520728BF30C148BFEA
:1001A0000B6070476E2905F05481702904F0658654
:1001B000662906F06D82652906F06A82672906F0D5
:1001C00067826129AFF3008003681B0A28BF41F0F2
:1001D0008001692904F0D685642904F0D385752946
:1001E00004F0D0856F2905F05984782904F0318610
:1001F000E92905F0F383E42905F0F083F52905F0FA
:10020000ED83EF2905F05684F82904F03086036861
:10021000DB0928BF41F08001632905F0628373295F
:1002200005F06783E32905F00985F32905F00E85BC
:10023000002070471FB505F06DFC04000020002170
:1002400006F0FAF9401C60600020002106F00AFA6E
:10025000E0601FBD10B510BD05F0ACFD1146FFF705
:10026000E9FF00F009F805F0CAFD03B4FFF7F2FF5B
:1002700003BC01F0E9FF000000BF00BF00BF482041
:1002800003F02CF802F022F94FF4E13001F0EBFF1B
:1002900002F07AF802F038F902F090F902F04BF926
:1002A00006A004F0FDFC0BA004F0FAFC04E004F04E
:1002B00062FA0DA004F0F4FCF9E700005735353080
:1002C0003020496E697420436F6D706C65746521D0
:1002D0000D0A000053746172742050696E672054D7
:1002E000657374210D0A0000636F6E6E6563746937
:1002F0006E67312E2E2E2E2E2E2E0D0A000000009F
:10030000704700BFFEE700BFFEE700BFFEE700BF8B
:10031000FEE7704770477047704700000CB500203B
:10032000019000906C48006840F480306A49086091
:1003300000BF6948006800F4003000900198401C3C
:100340000190009818B90198B0F5A06FF1D16248FA
:10035000006800F4003010B10120009001E000209E
:1003600000900098012843D15C48006840F01000DC
:100370005A4908600846006820F0030008600846F3
:10038000006840F0020008605348406852494860E5
:100390000846406848600846406840F4806048600D
:1003A0000846406820F47C1048600846406840F4E5
:1003B000E81048600846006840F08070086000BFA0
:1003C0004548006800F000700028F9D042484068B5
:1003D00020F00300404948600846406840F00200B1
:1003E000486000BF3C48406800F00C000828F9D184
:1003F0000CBD10B5FFF792FF10BD10B53648006870
:1004000040F001003449086008464068344908401B
:100410003149486008460068324908402E49086062
:100420000846006820F4802008600846406820F4F0
:10043000FE0048604FF41F008860FFF7DAFF4FF0BE
:1004400000602949086010BD10B50021002000227D
:10045000214B5B6803F00C0121B1042906D0082967
:1004600028D107E0214B224C236027E01F4B204C72
:10047000236023E0184B5B6803F47010164B5B6835
:1004800003F48032022303EB904022B9194B43431B
:10049000174C23600DE0104B5B6803F4003323B16D
:1004A000144B4343124C236003E0104B4343104C66
:1004B000236003E00D4B0E4C236000BF00BF064BD2
:1004C0005B68C3F303130C4CE15C094B1B68CB4026
:1004D000074C236010BD00000010024000200240C5
:1004E0000000FFF8FFFFF6FE08ED00E000127A00C2
:1004F0000000002000093D0004000020094880475A
:1005000009480047FEE7FEE7FEE7FEE7FEE7FEE7F5
:10051000FEE7FEE7FEE7FEE704480549054A064B0D
:1005200070470000FB03000831010008F0110020B3
:10053000F0170020F0130020F01300203149014390
:10054000314A1160704770B5002100230F22C47832
:1005500004B32D4C246804F4E064C4F5E064210A7B
:10056000C1F10403CA40447804FA03F184781440CA
:1005700021430901254C0678A155047804F01F0594
:100580000124AC4005786D11AD0005F1E025C5F8FA
:10059000004109E0047804F01F050124AC401C4D23
:1005A0000678761145F8264070BD1A4A0A40024383
:1005B000154B1B1F1A60704739B1134A121D126880
:1005C0000243114B1B1D1A6006E00F4A121D1268F0
:1005D00082430D4B1B1D1A607047042808D14FF051
:1005E000E021096941F004014FF0E022116107E0C8
:1005F0004FF0E021096921F004014FF0E022116180
:10060000704700000000FA050CED00E000E400E097
:1006100080E100E080FFFF1FDF48006840F001003C
:10062000DD49086008464068DC490840DA4948600E
:1006300008460068DA490840D7490860084600685B
:1006400020F4802008600846406820F4FE004860DE
:100650004FF41F0088607047CF49096821F480314A
:10066000CD4A11601146096821F480211160B0F56E
:10067000803F03D0B0F5802F0ED106E0C64909684F
:1006800041F48031C44A116007E0C349096841F46C
:10069000A021C14A116000E000BF00BF704710B543
:1006A00001460022002300204A11012A02D1BA4C3F
:1006B000236806E0022A02D1B74C236A01E0B64C57
:1006C000636A01F01F02012494401C400CB1012018
:1006D00000E0002010BD38B5002000900024002567
:1006E00000BF3120FFF7DBFF05460098401C00905B
:1006F0000098B0F5A06F01D0002DF2D03120FFF7A7
:10070000CEFF08B1012400E00024204638BD014698
:100710000020A14A106820F0F80040EAC1001060F3
:100720007047A04908607047024600209A4B5868FD
:1007300020F47C1042EA01031843974B586070473D
:1007400098490866704701460020934A506820F097
:1007500003000843506070478F48406800F00C0069
:100760007047014600208C4A506820F0F000084392
:100770005060704701460020874A506820F4E060CE
:1007800008435060704701460020834A506820F4B7
:10079000605040EAC1005060704729B17E4A527AE9
:1007A00002437D4B5A7204E07B4A527A82437A4B71
:1007B0005A7270477B49D831086070470146002063
:1007C000754A506820F4404008435060704700214B
:1007D000714A20321170704A82F82010012802D02C
:1007E00004280AD104E001216B4A2032117005E08F
:1007F0000521694A2032117000E000BF00BF704738
:100800006949086070476449096A0143624A116294
:100810007047654944390860704730B500210022AF
:10082000002400235C4D6D6805F00C0121B1042902
:1008300005D0082923D105E05C4D056022E05B4D21
:1008400005601FE0544D6D6805F47012524D6D68DF
:1008500005F48034022505EB92421CB9544D5543F2
:1008600005600BE04C4D6D6805F400351DB1504D31
:100870005543056002E04D4D5543056002E04B4D88
:10088000056000BF00BF444D6D6805F0F001090927
:10089000484D6B5C0568DD4045603F4D6D6805F473
:1008A000E061090A434D6B5C4568DD4085603A4D67
:1008B0006D6805F46051C90A3E4D6B5C4568DD40CA
:1008C000C560354D6D6805F44041890B3A4D6B5C50
:1008D000C568B5FBF3F5056130BD29B12E4A5269F3
:1008E00002432D4B5A6104E02B4A526982432A4B42
:1008F0005A61704729B1284A92690243264B9A618E
:1009000004E0254A92698243234B9A61704729B1DA
:10091000214AD2690243204BDA6104E01E4AD269BF
:1009200082431D4BDA61704729B11B4AD2680243EA
:10093000194BDA6004E0184AD2688243164BDA6039
:10094000704729B1144A12690243134B1A6104E03B
:10095000114A12698243104B1A617047124940399B
:10096000086070470F49C86470470B49C8717047E9
:100970000948406A40F08070074948627047014664
:100980000020054A92680A400AB1012000E00020D8
:100990007047014988727047001002400000FFF85C
:1009A000FFFFF6FE000042428004424200127A003D
:1009B00000093D00140000202400002010B504466A
:1009C000BE48844208D101218014FFF7ADFF002109
:1009D000A014FFF7A9FF16E0B948844208D101210D
:1009E0000014FFF7AEFF00212014FFF7AAFF0AE072
:1009F000B448844207D10121C013FFF7A2FF0021B0
:100A0000E013FFF79EFF10BD10B50022028802F42C
:100A100041520B884C8823438C882343CC88234342
:100A20000C8923434C8923438C892343CC8923435A
:100A30001A430280838B4FF2FF74234083830B8A17
:100A4000038210BD2DE9F04F85B005460C464FF0EE
:100A5000000902274FF000084FF0010B0026B246B4
:100A6000A88B4FF240010840A88302202884B5F8E3
:100A70001C90A068022801D100BF38E0A08810B9FE
:100A80004FF0010B01E04FF0020B8D48854200D181
:100A900000E000BF6846FFF7C0FEDDF800A0E08878
:100AA000B0F5007F0AD14FEA1A2000EB8000400029
:100AB000A168B0FBF1F0401D86B20BE04FEA4B108D
:100AC000BAFBF0F000EB80004000A168B0FBF1F051
:100AD000401D86B20A20B6FBF0F606F00108A6EB30
:100AE0000800C0F34F074FF6FF7000EA0828022FF6
:100AF00001DBFF2F02DD02274FF00008E08840EA0B
:100B0000080038432884A088A189084361880843E5
:100B10002188084340F4006040EA0909A5F81C90C8
:100B200005B0BDE8F08F0021018041808180C18047
:100B3000018141818181C1810721018270470021AA
:100B4000018041808180C1800221816000218181FA
:100B5000704721B1028842F04002028004E002881E
:100B60004FF6BF731A400280704721B1828B42F466
:100B70008062828304E0828B4FF6FF331A408283C7
:100B8000704730B5002400230C110125A540ABB2FD
:100B90001AB185881D43858002E085889D43858044
:100BA00030BD1AB183880B43838002E083888B4376
:100BB00083807047818170470146888970474FF66E
:100BC000FF62914204D0028842F48072028004E005
:100BD00002884FF6FF631A400280704721B1828875
:100BE00042F00402828004E082884FF6FB731A40D0
:100BF0008280704702884FF2FF731A400280028899
:100C00000A4302807047018841F480510180704797
:100C100021B1028842F40052028004E002884DF6BD
:100C2000FF731A400280704702460020012901D05C
:100C3000108B00E0908A70470146088A7047B1F532
:100C4000804F04D1028842F48042028004E002888E
:100C50004BF6FF731A40028070470246002013894A
:100C60000B400BB1012000E000207047CA43028115
:100C70007047F0B50246002000240023002501F053
:100C80000F070126BE40B4B20B1101269E40B3B23D
:100C9000968806EA03051689264016B10DB1012093
:100CA00000E00020F0BD10B5002201F00F04012388
:100CB000A3409AB2D343038110BD0000003001402D
:100CC00000380040003C004010B50446FB48844218
:100CD00009D101218803FFF727FE00214FF480404E
:100CE000FFF722FE32E0F648844209D10121480490
:100CF000FFF727FE00214FF40030FFF722FE25E02A
:100D0000F048844209D101218804FFF71AFE00212E
:100D10004FF48020FFF715FE18E0EB48844209D11C
:100D20000121C804FFF70DFE00214FF40020FFF75A
:100D300008FE0BE0E548844208D101210805FFF7D1
:100D400000FE00214FF48010FFF7FBFD10BD2DE9E0
:100D5000F04786B005460E460024A24600BFA146D5
:100D60000027B08900B100BF2F462C8A4CF6FF70D7
:100D70000440F08804432C82AC894EF6F310044002
:100D8000B08831890843718908430443AC81AC8A37
:100D90004FF6FF400440B0890443AC8201A8FFF73E
:100DA0003CFDC648874202D1DDF810A001E0DDF825
:100DB0000CA0A88900F4004040B10AEBCA0000EB87
:100DC0000A1031684900B0FBF1F807E00AEBCA00ED
:100DD00000EB0A1031688900B0FBF1F86420B8FB21
:100DE000F0F004012009642101FB1089A88900F4B6
:100DF000004040B1322000EBC900B0FBF1F000F040
:100E00000700044308E0322000EB09106421B0FB26
:100E1000F1F000F00F0004432C8106B0BDE8F0872C
:100E20004FF41651016000218180C18001810C21A5
:100E3000418100218181704710B502460020108A4F
:100E40004FF2FF0318400B884C8823438C882343C0
:100E5000CC8823431843108210BD002101804180BB
:100E60008180C180704721B1828942F40052828121
:100E700004E082894DF6FF731A4082817047F0B515
:100E80000346002400260025002040F66A17B942D8
:100E900000D100BF1846C1F3421401F01F0601271C
:100EA00007FA06F5012C01D10C3004E0022C01D127
:100EB000103000E014301AB107682F43076002E0D9
:100EC0000768AF430760F0BD1AB1838A0B43838282
:100ED00002E0838A8B4383827047028A4FF6F07365
:100EE0001A400282028A0A430282704782894FF2C4
:100EF000FF731A40828182890A438281704721B13F
:100F0000828942F00202828104E082894FF6FD73F9
:100F10001A4082817047028A4FF6DF731A400282BC
:100F2000028A0A430282704721B1028A42F4804257
:100F3000028204E0028A4BF6FF731A400282704775
:100F4000C1F308028280704701468888C0F3080018
:100F50007047818941F0010181817047028BD2B2D3
:100F60000283028B42EA012202837047028B02F461
:100F70007F420283028B0A430283704721B1828A37
:100F800042F02002828204E0828A4FF6DF731A4028
:100F90008282704721B1828A42F01002828204E08C
:100FA000828A4FF6EF731A408282704721B1828A9B
:100FB00042F00802828204E0828A4FF6F7731A40F8
:100FC0008282704721B1828942F40042828103E02B
:100FD0008289C2F30E028281704721B1828A42F473
:100FE0000062828204E0828A4FF2FF731A4082829A
:100FF0007047828A4FF6FB731A408282828A0A43C4
:101000008282704721B1828A42F00202828204E029
:10101000828A4FF6FD731A40828270470246002092
:10102000B1F5007F00D100BF13880B400BB1012048
:1010300000E00020704701F40072B2F5007F00D19B
:1010400000BFCA430280704770B5024600240023E7
:101050000025002040F66A16B14200D100BFC1F35E
:10106000421501F01F03012606FA03F3012D02D1F8
:101070009689334006E0022D02D1168A334001E002
:10108000968A33400C12012606FA04F4168834407E
:1010900013B10CB1012000E0002070BD10B500229A
:1010A000002340F66A14A14200D100BF0A120124B5
:1010B0009440A3B2DC43048010BD0000003801401E
:1010C0000044004000480040004C004000500040F8
:1010D00010B50446CC48844208D101210420FFF712
:1010E00023FC00210420FFF71FFC46E0C748844290
:1010F00008D101210820FFF717FC00210820FFF785
:1011000013FC3AE0C248844208D101211020FFF7C5
:101110000BFC00211020FFF707FC2EE0BD488442A5
:1011200008D101212020FFF7FFFB00212020FFF73D
:10113000FBFB22E0B848844208D101214020FFF7A0
:10114000F3FB00214020FFF7EFFB16E0B348844299
:1011500008D101218020FFF7E7FB00218020FFF765
:10116000E3FB0AE0AE48844207D101218015FFF776
:10117000DBFB0021A015FFF7D7FB10BD10B5012147
:101180000846FFF7D1FB00210120FFF7CDFB10BD82
:101190002DE9F0410246002500260020002300240E
:1011A000002791F803C00CF00F0591F803C00CF074
:1011B000100CBCF1000F03D091F802C04CEA0505F9
:1011C00091F800C0BCF1000F31D0146800202BE072
:1011D0004FF0010C0CFA00F3B1F800C00CEA030662
:1011E0009E4220D183004FF00F0C0CFA03F7BC4352
:1011F00005FA03FC4CEA040491F803C0BCF1280F83
:1012000006D14FF0010C0CFA00FCC2F814C00AE041
:1012100091F803C0BCF1480F05D14FF0010C0CFA56
:1012200000FCC2F810C0401C0828D1D31460B1F8EB
:1012300000C0BCF1FF0F34DD546800202EE000F147
:10124000080C4FF0010808FA0CF3B1F800C00CEAE2
:1012500003069E4221D183004FF00F0C0CFA03F7D6
:10126000BC4305FA03FC4CEA040491F803C0BCF14A
:10127000280F05D100F1080C08FA0CF8C2F8148008
:1012800091F803C0BCF1480F07D100F1080C4FF0F2
:10129000010808FA0CF8C2F81080401C0828CED3C8
:1012A0005460BDE8F0814FF6FF710180022181702A
:1012B0000421C17070470246002093680B400BB1B7
:1012C000012000E0002070470146886880B2704726
:1012D00002460020D3680B400BB1012000E0002043
:1012E00070470146C86880B270470161704741612C
:1012F00070470AB1016100E041617047C160704709
:101300004FF480320A43826181618261826982691D
:10131000704702460020434B18684FF68073184010
:1013200040EA021008433F4B186070473E49C861CD
:101330007047F0B50A46002300240021002500F084
:101340000046B6F1004F02D1364EF16901E0354E4C
:101350007168C0F3034583B200F44016B6F5401F30
:1013600008D121F070612F4E766826F070662D4FFF
:101370007E6012E000F48016B6F5801F06D10326C9
:1013800006FA05F4A14341F0706106E0460D36010E
:1013900003FA06F6B14341F0706122B1460D360101
:1013A00003FA06F6314300F00046B6F1004F02D1D1
:1013B0001C4EF16101E01B4E7160F0BD30B50022A2
:1013C0008B071C0F0F2303FA04F2164B08338C1003
:1013D00053F824309343134C08348D1044F82530CF
:1013E00023468C1053F824308C07240F00FA04F4A1
:1013F00023430C4C08348D1044F8253030BD0A4985
:10140000DC3108607047000000080140000C01401A
:10141000001001400014014000180140001C014070
:1014200000200140000001400000204210B50446A9
:10143000FE48844208D10121C014FFF775FA00214B
:10144000E014FFF771FAC4E0B4F1804F08D1012134
:101450000846FFF776FA00210120FFF772FAB8E09C
:10146000F348844208D101210220FFF76AFA0021E3
:101470000220FFF766FAACE0EE48844208D1012171
:101480000420FFF75EFA00210420FFF75AFAA0E0DB
:10149000E948844208D101210820FFF752FA0021CF
:1014A0000820FFF74EFA94E0E448844208D1012175
:1014B0001020FFF746FA00211020FFF742FA88E0DB
:1014C000DF48844208D101212020FFF73AFA0021A9
:1014D0002020FFF736FA7CE0DA48844208D1012167
:1014E0004014FFF721FA00216014FFF71DFA70E0A5
:1014F000D548844209D10121C804FFF715FA00211B
:101500004FF40020FFF710FA63E0D048844209D17D
:1015100001210805FFF708FA00214FF48010FFF7BA
:1015200003FA56E0CA48844209D101214805FFF771
:10153000FBF900214FF40010FFF7F6F949E0C54828
:10154000844208D101214020FFF7FBF9002140200F
:10155000FFF7F7F93DE0C048844208D1012180201F
:10156000FFF7EFF900218020FFF7EBF931E0BB48EE
:10157000844208D101218015FFF7E3F90021A0156D
:10158000FFF7DFF925E0B648844209D101210804BC
:10159000FFF7CAF900214FF48030FFF7C5F918E0D2
:1015A000B048844209D101214804FFF7BDF9002168
:1015B0004FF40030FFF7B8F90BE0AB48844208D194
:1015C00001218804FFF7B0F900214FF48020FFF7D4
:1015D000ABF910BD00220288944B98420ED0994B73
:1015E00098420BD0B0F1804F08D0914B984205D073
:1015F000904B984202D0904B984204D14FF68F7393
:101600001A404B881A438D4B984207D08C4B984216
:1016100004D04FF6FF431A40CB881A4302808B88D0
:1016200083850B880385814B98420BD0854B98426C
:1016300008D08B4B984205D08A4B984202D08A4BF7
:10164000984201D10B7A038601238382704770B5DB
:10165000002400220023058C4FF6FE7635400584D9
:10166000028C8388048B4FF68F752C40B51E2C405E
:101670000D882C43751E2A400D892A434D882A4324
:101680006A4DA8420BD06F4DA84208D0744DA842B5
:1016900005D0744DA84202D0734DA84213D14FF625
:1016A000F7752A404D892A434FF6FB752A408D88ED
:1016B0002A434FF6FF652B404FF6FF552B408D898F
:1016C0002B43CD892B4383800483CD888586028478
:1016D00070BD70B5002400220023058C4FF6EF7614
:1016E00035400584028C8388048B48F6FF752C40B6
:1016F0004FF6FF452C400D884FF6FF7606EA05258C
:101700002C434FF6DF752A400D8906EA05152A435A
:101710004D8806EA05152A43444DA84202D0494D9A
:10172000A8421DD14FF67F752A404D894FF6FF76AE
:1017300006EA05152A434FF6BF752A408D8806EA4A
:1017400005152A434FF6FF352B404FF2FF752B400E
:101750008D8906EA85052B43CD8906EA85052B434D
:1017600083800483CD880587028470BD70B5002412
:1017700000220023058C4FF6FF6635400584028C5D
:101780008388848B4FF68F752C404FF6FC752C4068
:101790000D882C434FF6FF552A400D894FF6FF76F2
:1017A00006EA05252A434D8806EA05252A431F4DEA
:1017B000A84202D0234DA8421DD14FF2FF752A4006
:1017C0004D894FF6FF7606EA05252A434FF6FF3589
:1017D0002A408D8806EA05252A434EF6FF752B40E0
:1017E0004DF6FF752B408D8906EA05152B43CD89F3
:1017F00006EA05152B4383808483CD888587028480
:1018000070BD70B5002200230024058C4EF6FF76D3
:1018100035400584038C8488828B48F6FF752A4006
:101820004FF6FF452A400D8820E00000002C0140C3
:101830000004004000080040000C00400010004080
:101840000014004000340140004C014000500140B1
:101850000054014000180040001C004000200040DF
:101860000040014000440140004801404FF6FF762F
:1018700006EA05252A434DF6FF752B400D8906EA39
:1018800005352B434D8806EA05352B43FA4DA84212
:1018900002D0FA4DA84208D14BF6FF752C408D8935
:1018A0004FF6FF7606EA85152C4384808283CD8827
:1018B000A0F84050038470BD828B4FF2FF331A4072
:1018C0008283828B4FF6FF7303EA01231A438283DC
:1018D0007047F0B50C461546002200210026078C03
:1018E0004EF6FF7C07EA0C070784828B018C4FF6CB
:1018F000FF7707EA043640F6FF473A404FF6FF7796
:1019000007EA05273A434FF6FF7707EA03373A43DA
:10191000D94FB8420ED0D94FB8420BD0B0F1804F5A
:1019200008D0D74FB84205D0D64FB84202D0D64FD4
:10193000B84206D14DF6FF77394046F48057394317
:1019400005E047F6FF57394044F480573943828316
:101950000184F0BD828B4FF6F3731A408283828B31
:101960000A4382837047F0B50C46154600220021D9
:101970000026078C4FF6FF6C07EA0C070784828B62
:10198000018C4FF6FF7707EA04264FF60C773A40B2
:101990004FF6FF7707EA03172F433A43B64FB84293
:1019A0000ED0B64FB8420BD0B0F1804F08D0B44F34
:1019B000B84205D0B34FB84202D0B34FB84206D1B7
:1019C0004FF6FF57394046F48077394305E04FF230
:1019D000FF57394044F48077394382830184F0BD56
:1019E000028B4FF2FF331A400283028B4FF6FF73D4
:1019F00003EA01231A4302837047F0B50C461546EB
:101A0000002200210026078C4FF6EF7C07EA0C0726
:101A10000784028B018C4FF6FF7707EA041640F625
:101A2000FF473A404FF6FF7707EA03373A434FF64E
:101A3000FF7707EA05273A438F4FB8420ED08F4F02
:101A4000B8420BD0B0F1804F08D08D4FB84205D0CE
:101A50008C4FB84202D08C4FB84206D14FF6DF7798
:101A6000394046F01007394305E04FF65F773940BB
:101A700044F01007394302830184F0BD028B4FF616
:101A8000F3731A400283028B0A4302837047F0B556
:101A90000C46154600220021068C4FF6FE773E408C
:101AA0000684028B018C4FF60C7632407E1C06EACF
:101AB00003162E433243704EB0420ED06F4EB042EA
:101AC0000BD0B0F1804F08D06D4EB04205D06D4EB6
:101AD000B04202D06C4EB04206D14FF6FD76314096
:101AE00044F00106314305E04FF6F576314044F00D
:101AF0000106314302830184F0BD70B505460C46F2
:101B00005D4885420ED05D4885420BD0B5F1804FCF
:101B100008D05B48854205D05A48854202D05A48D1
:101B2000854200D100E000BF208850B92389A288F7
:101B300061882846FFF7ABFFE1882846FFF79EFF44
:101B400025E0208804280AD12389A28861882846B4
:101B5000FFF753FFE1882846FFF742FF17E0208890
:101B600008280AD12389A28861882846FFF7FBFE4E
:101B7000E1882846FFF7EEFE09E02389A288618804
:101B80002846FFF7A6FEE1882846FFF795FE70BDC0
:101B90002DE9F04105460C4600260127608808B96A
:101BA000022600E00026A088012801D1022700E0DB
:101BB00001272088A0B92389A28861882846FFF7D9
:101BC00066FFE1882846FFF759FF23893A463146E8
:101BD0002846FFF712FFE1882846FFF701FF13E0D0
:101BE0002389A28861882846FFF707FFE1882846F5
:101BF000FFF7F6FE23893A4631462846FFF747FFAE
:101C0000E1882846FFF73AFFBDE8F0810A884B8853
:101C10001A438B881A43CB881A430B891A434B8982
:101C20001A438B891A43A0F8442070474FF6FF717E
:101C3000818000210180C1804180017270470021B4
:101C4000018041808180C180018141818181C18188
:101C50007047002101804180012181800021C180E5
:101C6000018170470021018041808180C180018114
:101C70004181818170470000002C01400034014007
:101C80000004004000080040000C004021B1028820
:101C900042F00102028004E002884FF6FE731A400F
:101CA0000280704731B1B0F8442042F40042A0F8FD
:101CB000442005E0B0F84420C2F30E02A0F844200E
:101CC00070471AB183890B43838102E083898B4378
:101CD000838170478182704741EA0203A0F848304F
:101CE00070471AB183890B43838102E083898B4358
:101CF0008381704701894FF6F87211400181704766
:101D00000A46002101894FF68F7319401143018162
:101D1000704730B504460D4629462046FFF7F0FFD0
:101D2000208940F00700208130BD2DE9F0410446B4
:101D30000D4616461F46602D06D13B460122314610
:101D40002046FFF75AFE05E03B4601223146204679
:101D5000FFF79DFE29462046FFF7D2FF208940F07D
:101D600007002081BDE8F08130B50C4600210189D3
:101D7000C9B24FF6FF7505EA0325154325432943EC
:101D8000018130BD2DE9F04105460E4617469846C3
:101D9000002443463A4631462846FFF7E5FF2C89A2
:101DA0004FF6F870044044F007044FF68F7004407B
:101DB00044F070042C81BDE8F081F0B504460D4676
:101DC00016461F463B46324629462046FFF7CCFFC3
:101DD000208940F480402081F0BD018582827047D7
:101DE0000A46002101884FF68F7319401143018084
:101DF0007047F0B50C4615461E4600210022002310
:101E00000189028B038C4FF6F877394021434FF656
:101E1000FC473A4040F201173A434FF6DD773B402A
:101E20004FF6FF7707EA06172F433B4301810283F2
:101E30000384F0BD0A460021018B4FF68F731940D1
:101E40001143018370470A460021018B48F6FF7356
:101E500019404FF6FF7303EA0223194301837047C9
:101E60000A460021818B4FF68F73194011438183FD
:101E700070470A460021818B48F6FF7319404FF6E0
:101E8000FF7303EA022319438183704721B102885B
:101E900042F08002028004E002884FF67F731A400D
:101EA0000280704721B1828842F00402828004E0FF
:101EB00082884FF6FB731A408280704721B1828876
:101EC00042F00802828004E082884FF6F7731A40DD
:101ED0008280704721B1828842F00102828004E052
:101EE00082884FF6FE731A40828070470A460021AE
:101EF000018B4FF6F77319401143018370470A466F
:101F00000021018B4FF2FF7319404FF6FF7303EA74
:101F100002231943018370470A460021818B4FF643
:101F2000F77319401143818370470A460021818B62
:101F30004FF2FF7319404FF6FF7303EA0223194370
:101F4000818370470A460021018B4FF6FB731940CD
:101F50001143018370470A460021018B4FF6FF337E
:101F600019404FF6FF7303EA0223194301837047B8
:101F70000A460021818B4FF6FB7319401143818380
:101F800070470A460021818B4FF6FF3319404FF608
:101F9000FF7303EA02231943818370470A46002135
:101FA000018B4FF67F7319401143018370470A4636
:101FB0000021018BC1F30E014FF6FF7303EA0223E8
:101FC0001943018370470A460021818B4FF67F73C6
:101FD00019401143818370470A460021818BC1F368
:101FE0000E014FF6FF7303EA022319438183704702
:101FF0000A460021018C4FF6FD73194011430184FC
:1020000070470A460021018C4FF6F77319401143BF
:10201000018470470A460021018C4FF6DF73194096
:102020004FF6FF7303EA02131943018470470A460F
:102030000021018C4FF67F7319404FF6FF7303EABE
:1020400002131943018470470A460021018C4FF6A0
:10205000FF5319404FF6FF7303EA0223194301842B
:1020600070470A460021018C4FF2FF7319404FF66A
:10207000FF7303EA02231943018470470A460021D3
:10208000018C4DF6FF7319404FF6FF7303EA0233DC
:1020900019430184704730B5002301248C40A3B25A
:1020A000048C9C430484048C02FA01F5ADB22C43E9
:1020B000048430BD30B5002304248C40A3B2048CCA
:1020C0009C430484048C02FA01F5ADB22C430484D1
:1020D00030BD70B503460020002418461830012595
:1020E0008D40ACB21D8CA5431D8409B1082909D1CE
:1020F00000EB6100056825F0700505600568154373
:1021000005600EE00D1FC5F34E052844056825F453
:10211000E045056005684FF6FF7606EA022635437E
:10212000056070BD21B1028842F00202028004E025
:1021300002884FF6FD731A400280704721B1028871
:1021400042F00402028004E002884FF6FB731A405A
:102150000280704721B1828842F08002828004E0D0
:1021600082884FF67F731A408280704702884FF64C
:10217000F7731A40028002880A43028070478288FF
:102180004FF68F731A40828082880A43828070479C
:1021900002894FF6F8731A40028102890A430281CC
:1021A000704702894FF67F731A40028102890A4301
:1021B00002817047818470478185704781867047AE
:1021C0000187704781877047A0F8401070470288E8
:1021D0004FF6FF431A40028002880A43028070478C
:1021E0000146888E70470146088F70470146888FE8
:1021F00070470146B1F8400070470146888C70472F
:102200000146088D704702460020138A0B400BB12F
:10221000012000E000207047CA430282704730B5B9
:102220000246002000230024158A05EA010395894F
:1022300005EA010413B10CB1012000E0002030BD1B
:10224000CA43028270470000014600BF704700BFCA
:10225000494A128802F04002002AF9D0C2B2464B25
:102260001B1D1A80704710B586B00446012144F248
:102270000400FEF73FFB4FF40070ADF8140003209C
:102280008DF8160018208DF8170005A93B48FEF7B9
:102290007FFF4FF48060ADF8140004208DF8170024
:1022A00005A93648FEF774FF25208DF800000320AD
:1022B0008DF801008DF8020001208DF803006846BA
:1022C000FEF741F901940020ADF80800ADF80A00CE
:1022D000ADF80C00ADF810000C20ADF80E0001A90F
:1022E0002548FEF734FD012240F225512248FEF731
:1022F000C6FD01212048FEF7B6FD06B010BD10B5A1
:1023000040F225511C48FEF79FFE10B31A48FEF715
:102310001BFEC4B21A48008800F40040C8B918482F
:10232000008800F4804060B10A2C03D000201449DA
:10233000088020E01248008840F4004010490880DE
:1023400019E00D2C06D10E48008840F480400C495D
:10235000088010E00A480088C0F30D0009490C54B9
:1023600007480088401C0649088008460088C7289E
:1023700001DD0020088010BD003801400008014048
:102380002C0000200401002000B587B001210820A6
:10239000FEF7B0FA01218803FEF7B9FA4FF4805036
:1023A000ADF8180010208DF81B0003208DF81A00DE
:1023B00006A94448FEF7ECFE4FF480514148FEF771
:1023C00094FF4FF46040ADF8180018208DF81B0002
:1023D00003208DF81A0006A93A48FEF7D9FE4FF4FB
:1023E00060413848FEF781FF0020ADF804004FF44B
:1023F0008270ADF806000020ADF808000220ADF8AC
:102400000A000120ADF80C004002ADF80E003820A3
:10241000ADF810000020ADF812000720ADF8140050
:1024200001A92948FEF7F0FA01212748FEF791FBA0
:1024300007B000BD10B50446234800884FF6C771A9
:10244000084021490880084600882043088001216F
:102450001D48FEF77EFB10BD10B5044624B92021AF
:102460001848FEF744FF05E0012C03D12021154850
:10247000FEF73BFF10BD70B50546002405E0601C6B
:10248000C4B2C82C01DD002070BD02210E48FEF749
:10249000E4FB0028F3D029460B48FEF78BFB002411
:1024A00005E0601CC4B2C82C01DD0020ECE701216E
:1024B0000548FEF7D2FB0028F3D00348FEF77CFB6B
:1024C000C0B2E1E7000C01400038004008B501212E
:1024D0004820FEF70FFA2020ADF8000003208DF809
:1024E000020010208DF8030069464748FEF750FEB1
:1024F00020214548FEF7F9FE0620ADF800006946A8
:102500004248FEF745FE08BD10B502213F48FEF7E0
:10251000EEFE022000F025FF02213C48FEF7E5FE1A
:102520004FF4C86000F0F6FE10BD70B5002044689E
:102530002546A84770BD08B5354800F03BFD344836
:102540000C3000F02EFD3248103000F01AFD3048FB
:10255000083000F038FD2F492F4800F07BFC4FF485
:10256000FA6000F062FD032000F06CFD2B4800F0E3
:102570004DFD2A48C0780090284883784278017839
:1025800027A002F08DFB2B4800F02EFD2948C078D3
:102590000090284883784278017827A002F080FBD9
:1025A0002A4800F019FD2948C07800902748837810
:1025B0004278017826A002F073FB08BD1448001F82
:1025C00016490968C1601B49096801611F4909680A
:1025D000416124490A684260898801812249096869
:1025E000816100200A49091F81F82000012081F83B
:1025F00021000020488481F82400012088720021F5
:102600000348001FC1727047000C014000180140D0
:10261000D0010020360000202E00002044000020C1
:10262000204950203A2025642E25642E25642E252D
:10263000640D0A004800002020534E203A202564F3
:102640002E25642E25642E25640D0A004C000020E2
:10265000204757203A2025642E25642E25642E25F8
:10266000640D0A003E0000205000002010B5044612
:102670004FF4847101EB4410102100F05EFB00BFA9
:102680004FF4847101EB441000F070FB0028F7D187
:102690004FF4027101EB4410FF2100F04EFB10BD1E
:1026A0002DE9F04104460D461646984605F00F0008
:1026B00001280FD005F00F0002280BD005F00F0005
:1026C000032807D005F00F00042803D005F00F0001
:1026D000052841D12046FFF7C9FF45EA0801082235
:1026E00002EB441000F029FB76B1310A4FF481620D
:1026F00002EB441000F021FBF1B24FF4A16202EBB7
:10270000441000F01AFB15E0FE480088401CFD490B
:1027100008800A461288110A4FF4816202EB4410C5
:1027200000F00BFBF74A11784FF4A16202EB441062
:1027300000F003FB4FF4847101EB4410012100F021
:10274000FCFA00BF4FF4847101EB441000F00EFB63
:102750000028F7D1012700E000273846BDE8F081C6
:1027600070B504464FF4427101EB441000F0FEFADC
:10277000132811D14FF4847101EB4410022100F0B1
:10278000DCFA00BF4FF4847101EB441000F0EEFA64
:102790000028F7D1012500E00025284670BD2DE96D
:1027A000F04105460C4616462078FF2808D160788F
:1027B000FF2805D1A078FF2802D1E078FF2808D0B3
:1027C000207828B9607818B9A07808B9E07800B105
:1027D0000EB900275CE00127217840F6084202EBA1
:1027E000451000F0AAFA617840F6085202EB451055
:1027F00000F0A3FAA17840F6086202EB451000F061
:102800009CFAE17840F6087202EB451000F095FA68
:10281000310A41F2080202EB451000F08EFAF1B2E3
:1028200041F2081202EB451000F087FA4FF4847170
:1028300001EB4510042100F080FA00BF4FF48471D1
:1028400001EB451000F092FA0028F7D117E04FF4A1
:10285000427101EB451000F089FA172800D116E00B
:10286000284600F021FC00F0080040B14FF402714E
:1028700001EB4510082100F060FA002707E04FF453
:10288000427101EB451000F071FA1528DFD100BF4D
:102890003846BDE8F08110B504464FF4847101EB71
:1028A0004410082100F049FA00BF4FF4847101EB95
:1028B000441000F05BFA0028F7D110BD2DE9F04775
:1028C00004468846164600250027A946204600F003
:1028D0001FFAB04204DA204600F01AFA074600E078
:1028E000374600BF204600F0F1FB81464FF44271AD
:1028F00001EB441000F03AFA0546172D03D01C2DC9
:1029000001D0002701E0B945ECDB00BF3A46414663
:10291000204600F043FC4FF4847101EB4410202169
:1029200000F00BFA00BF4FF4847101EB441000F08B
:102930001DFA0028F7D113E04FF4427101EB441067
:1029400000F014FA0546172D0AD01C2D08D06EA0F1
:1029500002F0A6F92046FFF789FE0020BDE8F087C7
:102960004FF4027101EB441000F000FA00F0100087
:102970001028E1D14FF4027101EB4410102100F056
:10298000DCF94FF4027101EB4410102100F0D5F98D
:102990003846E3E72DE9F04104460E461546002788
:1029A000002D15DD2A463146204600F031FC4FF45B
:1029B000847101EB4410402100F0BFF900BF4FF4D7
:1029C000847101EB441000F0D1F90028F7D12F46B3
:1029D0003846BDE8F0812DE9F047044689461646A1
:1029E0001D46089F4FF00008204600F091F9B042C4
:1029F00004DA204600F08CF9804600E0B0462878E2
:102A000028B9687818B9A87808B9E87800B117B972
:102A10004FF0000863E0297840F6084202EB4410CA
:102A200000F08BF9697840F6085202EB441000F090
:102A300084F9A97840F6086202EB441000F07DF9B1
:102A4000E97840F6087202EB441000F076F9390A92
:102A500041F2080202EB441000F06FF9F9B241F2C2
:102A6000081202EB441000F068F94246494620463D
:102A700000F094FB4FF4847101EB4410202100F02E
:102A80005CF900BF4FF4847101EB441000F06EF963
:102A90000028F7D112E04FF4027101EB441000F06E
:102AA00065F900F0080048B14FF4027101EB4410E1
:102AB000182100F042F90020BDE8F0874FF40271C0
:102AC00001EB441000F052F900F010001028E2D1A0
:102AD0004FF4027101EB4410102100F02EF9404632
:102AE000EAE72DE9FC5F05468A4691461E46DDF879
:102AF000308000270024A346B9F1000F71DD42F6B3
:102B000008010BE05400002053454E445F4F4B201A
:102B100050726F626C656D21210D0A0001EB45104A
:102B200000F024F9044642F6081101EB451000F0CC
:102B30001DF900EB042084B2200200EB451000F1E7
:102B4000180B082101EB451000F010F900F0070008
:102B5000022804D0032845D0042878D178E0082240
:102B60006946584600F043F904F1080084B29DF824
:102B7000000030709DF8010070709DF80200B07088
:102B80009DF80300F0709DF80400A8F800009DF87F
:102B9000050098F8001000EB0120A8F800009DF84F
:102BA00006709DF8070000EB072087B2200200EBBB
:102BB000451000F1180B3A465146584600F017F9F7
:102BC000E01984B2210A42F6080202EB451000F037
:102BD000B4F8E1B242F6081202EB451000F0ADF88D
:102BE0006AE07AE006226946584600F000F9A01D26
:102BF00084B29DF8000030709DF8010070709DF85F
:102C00000200B0709DF80300F0709DF804709DF80C
:102C1000050000EB072087B2200200EB451000F111
:102C2000180B3A465146584600F0E1F8E01984B2D4
:102C3000210A42F6080202EB451000F07EF8E1B2EC
:102C400042F6081202EB451000F077F834E032E06B
:102C500002226946584600F0CAF8A01C84B29DF8CA
:102C600000709DF8010000EB0720801E87B240F243
:102C7000EA50874204DD1AA002F012F800BFFEE716
:102C8000200200EB451000F1180B3A465146584619
:102C900000F0ADF8E01984B2210A42F6080202EB16
:102CA000451000F04AF8E1B242F6081202EB451076
:102CB00000F043F800E000BF00BF4FF4847101EB67
:102CC0004510402100F039F800BF4FF4847101EB4A
:102CD000451000F04BF80028F7D13846BDE8FC9FBE
:102CE000646174615F6C656E206F7665722031354A
:102CF00031340D0A000000000146FE48405C704778
:102D0000FC4A115470470146FB4830F811007047E7
:102D10000146FA4830F81100704710B50020FFF75F
:102D20009BFB10BD10B50120FFF796FB10BD10B541
:102D300004462046FFF79FFB10BD70B504460D46C4
:102D4000FFF7EBFFC4F30740FFF7F1FFC4F30720E1
:102D5000FFF7EDFF04F0F801091DC8B2FFF7E7FF28
:102D60002846FFF7E4FFFFF7DDFF70BD70B50446AE
:102D70000025FFF7D2FFC4F30740FFF7D8FFC4F3E5
:102D80000720FFF7D4FF04F0F800FFF7D0FF002082
:102D9000FFF7CDFF0546FFF7C5FF284670BD2DE9BB
:102DA000F04104460F461546002615B9D4A001F09F
:102DB00077FFFFF7B2FFC4F30740FFF7B8FFC4F394
:102DC0000720FFF7B4FF04F0F801091DC8B2FFF7B0
:102DD000AEFF002604E0B85DFFF7A9FF701C86B2C5
:102DE000AE42F8DBFFF79EFF2846BDE8F0812DE9F3
:102DF000F04104460F461546002615B9C0A001F063
:102E00004FFFFFF78AFFC4F30740FFF790FFC4F3BB
:102E10000720FFF78CFF04F0F800FFF788FF00267B
:102E200005E00020FFF783FFB855701C86B2AE4264
:102E3000F7DBFFF777FF2846BDE8F08110B50446C1
:102E400021460020FFF779FF10BD10B58020FFF765
:102E5000F5FF10BD2DE9F04105460E460027B846A6
:102E6000002489E0295D41F6087202EB4410FFF767
:102E700064FF315D41F6086202EB4410FFF75DFF2D
:102E800000209E4921F814009B4921F81400B7F551
:102E9000804F32DC285D042816D004DC012807D0DE
:102EA000022823D10AE0082814D010281ED117E0E8
:102EB0004FF48060914921F814001DE04FF4006048
:102EC0008E4921F8140017E04FF480508B4921F807
:102ED000140011E04FF40050884921F814000BE071
:102EE0004FF48040854921F8140005E04FF400605C
:102EF000814921F8140000BF00BFB8F5804F32DCD3
:102F0000305D042816D004DC012807D0022823D124
:102F10000AE0082814D010281ED117E04FF4806072
:102F2000754921F814001DE04FF40060724921F842
:102F3000140017E04FF480506F4921F8140011E09D
:102F40004FF400506C4921F814000BE04FF480401E
:102F5000694921F8140005E04FF40060664921F842
:102F6000140000BF00BF654830F8140007446248F1
:102F700030F814008044641C082CFFF673AFBDE8E1
:102F8000F08110B50446042221469001FFF707FFA7
:102F900010BD10B50446042221469001FFF727FF1B
:102FA00010BD10B50446042221464FF4A060FFF77F
:102FB000F6FE10BD10B50446062221464FF41060FF
:102FC000FFF7EDFE10BD10B50446042221464FF474
:102FD0007060FFF7E4FE10BD10B5044604222146E0
:102FE0009001FFF704FF10BD10B5044604222146EE
:102FF0004FF4A060FFF7FBFE10BD10B5044606229B
:1030000021464FF41060FFF7F2FE10BD10B50446E4
:10301000042221464FF47060FFF7E9FE10BD10B5A1
:103020004FF4A850FFF7A2FE10BD10B50446210AC8
:103030004FF4C850FFF781FEE1B24FF4D050FFF7D4
:103040007CFE10BD10B5044621464FF4D850FFF762
:1030500074FE10BD70B50446FFF7E1FF60EA04009E
:10306000C5B229464FF4A850FFF767FE70BD70B592
:1030700004460D46290A41F2082202EB4410FFF7EC
:103080005CFEE9B241F2083202EB4410FFF755FE54
:1030900070BD70B504460D4641F2086101EB441065
:1030A0002946FFF74AFE70BD10B504464FF4027181
:1030B00001EB4410FFF75AFE10BD10B504464FF463
:1030C000427101EB4410FFF751FE10BD70B504468C
:1030D0000025002600BF42F2080101EB4410FFF773
:1030E00045FE064642F2081101EB4410FFF73EFE92
:1030F00012E0000056000020EC070020DC07002052
:10310000556E657870656374656432206C656E67B2
:10311000746820300D0A000000EB062086B27EB1F4
:1031200042F2080101EB4410FFF720FE054642F28F
:10313000081101EB4410FFF719FE00EB052085B2E2
:10314000B542C8D1284670BD70B50446002500269A
:1031500000BF42F2086101EB4410FFF707FE06468C
:1031600042F2087101EB4410FFF700FE00EB06206D
:1031700086B27EB142F2086101EB4410FFF7F6FD22
:10318000054642F2087101EB4410FFF7EFFD00EB3A
:10319000052085B2B542DCD1284670BD2DE9F0414D
:1031A00004460F4616460025A8462EB921463BA0E8
:1031B00001F076FDBDE8F08142F2084101EB4410D8
:1031C000FFF7D4FD054642F2085101EB4410FFF72A
:1031D000CDFD00EB052085B2280200EB441000F184
:1031E0001008324639464046FFF7D9FDA81985B286
:1031F000290A42F2084202EB4410FFF79EFDE9B2B1
:1032000042F2085202EB4410FFF797FD00BFD1E7EE
:103210002DE9F04104460F4616460025A8462EB972
:10322000214626A001F03CFDBDE8F08142F60801F0
:1032300001EB4410FFF79AFD054642F6081101EB39
:103240004410FFF793FD00EB052085B2280200EB48
:10325000441000F11808324639464046FFF7C7FDD2
:10326000A81985B2290A42F6080202EB4410FFF7BA
:1032700064FDE9B242F6081202EB4410FFF75DFD6F
:1032800000BFD1E770B504460D464FF4027101EB63
:1032900044102946FFF751FD70BD000043483A2015
:1032A000256420556E657870656374656431206CA3
:1032B000656E67746820300D0A00000043483A20AC
:1032C000256420556E657870656374656432206C82
:1032D000656E67746820300D0A0000004FF0E02131
:1032E000096921F004014FF0E0221161C21700EBDF
:1032F0005272C2F3C702F74B1A701946097801EBF4
:103300004102C2EBC1114FF6FF7202EAC101F24A5B
:10331000118070470146F04A12884A434FF0E0237B
:103320005A6100229A6101221A6100BF4FF0E02227
:10333000106900F001021AB100F48032002AF5D0C1
:1033400000224FF0E0231A619A61704710B50446DD
:1033500004E04FF47A70FFF7DDFF641E002CF8D113
:1033600010BD0146DB4A12784A434FF0E0235A6110
:1033700000229A6101221A6100BF4FF0E022106919
:1033800000F001021AB100F48032002AF5D00022C8
:103390004FF0E0231A619A6170470146302905DB3E
:1033A000392903DCA1F13000C0B27047612905DB87
:1033B000662903DCA1F15700C0B2F6E7412905DB1D
:1033C000462903DCA1F13700C0B2EEE70846ECE77E
:1033D00030B502460B46002405E012F8010BFFF75A
:1033E000DCFF04FB030410780028F6D1A0B230BD46
:1033F00030B502460B46002405E012F8010BFFF73A
:10340000CCFF04FB030410780028F6D1204630BD21
:103410002DE9F04104460D461646701EC7B2202223
:103420003146284601F021FF00BF0A2094FBF0F14D
:1034300000FB11403030C2B23846791ECFB22A5458
:103440000A2094FBF0F080B2041EEEDCBDE8F081AF
:103450002DE9F04104460F46904626460CB12078EF
:1034600010B90020BDE8F0810BE03078FFF795FF40
:103470000546002D03DBBD4201DA761C01E0002089
:10348000F0E730780028F0D1B9B22046FFF7A0FF6E
:10349000C8F800000120E5E710B50B46002104E064
:1034A000445C9C4200D14254491C445C002CF7D13E
:1034B00010BD014600200A06100C40EA112070479A
:1034C000014600200806C1F3072240EA0240C1F38A
:1034D000074240EA022040EA116070472DE9F047B8
:1034E00081460E4617461D463146484601F09AFD74
:1034F0000446304601F0CCFD04443946204601F034
:1035000091FD8246AAEB04001FFA80F8424621464C
:10351000284601F0FBFE002005F80800BDE8F08712
:103520002DE9F04188B006460F463146684601F065
:103530008BFD6C4600251BE068A1204601F06CFD68
:1035400004462078302809D16078782806D11021E7
:10355000A01CFFF73DFF00F0FF0805E00A21204610
:10356000FFF736FF00F0FF0807F8058000246D1C08
:10357000042DE1DB08B0BDE8F0811CB50446202134
:10358000574801F07AFEE0B2C4F30721220EC4F3DB
:103590000743CDE9001053A1514801F08DFB50487D
:1035A0001CBD1CB504461021514801F066FEE0B276
:1035B000C4F30721220EC4F30743CDE900104DA147
:1035C0004B4801F061FB4A481CBD70B58EB0054602
:1035D0006C462946684601F037FD002628E03FA1E9
:1035E000204601F019FD044614B900200EB070BD4C
:1035F000207830280AD16078782807D10DAA1021C8
:10360000A01CFFF725FF48B90020EFE70DAA0A210B
:103610002046FFF71DFF08B90020E7E70D980028B6
:1036200002DB0D98FF2801DD0020DFE70024761C77
:10363000042ED4DB0120D9E7F0B58FB006460F4643
:1036400001AC314601A801F0FFFC00252AE023A1CE
:10365000204601F0E1FC044614B900200FB0F0BD93
:10366000207830280AD16078782807D10EAA102156
:10367000A01CFFF7EDFE48B90020EFE70EAA0A21D3
:103680002046FFF7E5FE08B90020E7E70E987855D9
:103690000E98002802DB0E98FF2801DD0020DDE7F0
:1036A00000246D1C042DD2DB0120D7E770B506463F
:1036B0000024002500BF09E0240240F6084101EB88
:1036C00046114819FFF752FB04446D1C042DF3DB2F
:1036D000204670BD5E000020600000202E0000002B
:1036E000FC07002025642E25642E25642E25640009
:1036F0001C080020253033642E253033642E2530FD
:1037000033642E253033640070B5044641F208015D
:1037100001EB4410FFF72AFB05464FF6FF7000EA65
:10372000052541F2080101EB4411481CFFF71EFB7F
:10373000284485B2284670BD00B503461846FFF7F9
:10374000B8FE00BD00B503461846FFF7B9FE00BD40
:1037500010B504462046FFF7EFFF10BD10B5044634
:103760002046FFF7EFFF10BDF1B500246D4600BF06
:1037700015E004F5A060FFF7F9FA295D00EA0107FA
:1037800004F57060FFF7F2FA064604F5A060FFF753
:10379000EDFA0640B74201D00120F8BD641C042CAC
:1037A000E7DB0020F9E770B506460D46032D00DD86
:1037B00000252C4608E02046FFF77FFCB04201D1EF
:1037C000204670BD601CC4B2082CF4DB0820F8E76A
:1037D000F0B502460D46C5F34F06002400210EE069
:1037E00012F811304FF6FF7707EA0323012707EBA2
:1037F0004107D75D1F44BBB21C444F1CB9B2B14254
:10380000EEDB05F001071FB112F8113004EB0324C1
:10381000A0B200EB1447FF43B8B2F0BD70B5044648
:103820000025207A032801D10C2503E0207A042802
:1038300000D10A25D4E90412E06800F020FB801CC6
:103840000544E07E68B1D4E90A12606A00F017FB13
:10385000861CD4E90D12206B00F011FB3044801C53
:103860000544206C08B9A06C30B1D4E91112206C69
:1038700000F005FB801C0544E06C08B9606D30B1B8
:10388000D4E91412E06C00F0FAFA801C05442846D2
:1038900070BD2DE9FE4305460E46144602950020F4
:1038A0000190009000274FF0FF382046FFF7B6FF49
:1038B0000746814600F025FAB04202DD6FF00108AC
:1038C0008FE000208DF80400019820F0F000103007
:1038D00001909DF8041002A800F055FA39460298AC
:1038E00000F0C8F9029908440290207A042808D10F
:1038F00077A102A800F065FA042102A800F043FABB
:1039000007E075A102A800F05CFA032102A800F00C
:103910003AFA00208DF80000A17E009861F3410082
:103920000090E07E08B1012100E00021009861F3E1
:10393000820000900098C0F3800058B194F83D10C8
:10394000009861F3C400009094F83C10009861F373
:1039500045100090206C08B9A06C20B1009820F0B0
:10396000800080300090E06C08B9606D20B1009854
:1039700020F04000403000909DF8001002A800F0B8
:1039800002FA218B02A800F004FA02A8D4E9042369
:10399000E16800F033FAE07E58B102A8D4E90A23C6
:1039A000616A00F02BFA02A8D4E90D23216B00F024
:1039B00025FA0098C0F3C01028B102A8D4E9112359
:1039C000216C00F01BFA0098C0F3801028B102A807
:1039D000D4E91423E16C00F011FA0298A0EB050879
:1039E00000BF4046BDE8FE832DE9FF4704460D4673
:1039F00016469946002003900296002780460090C4
:103A000002A800F0B9F98DF80C000398C0F3031078
:103A1000022800D01FE001A9029800F095F9804625
:103A2000029908440290DDE9011047180298381AFB
:103A3000022800DA0FE002A800F09EF98DF80000DD
:103A40000098C0F3C010207002A800F095F928700B
:103A50004FF0010800BF404604B0BDE8F0872DE9F3
:103A6000FC4104460D46164600200190471E009476
:103A7000022D01DA871E15E000208DF80400019860
:103A800066F3071001909DF80410684600F07BF97A
:103A90000021009800F0EEF800990844009000988A
:103AA000071B00BF3846BDE8FC8170B504460D46D3
:103AB0000E2229462046FFF7D2FF70BD70B504469E
:103AC0000D460C2229462046FFF7C9FF70BD0000B5
:103AD0004D515454000000004D5149736470000072
:103AE0002DE9FF5F07460C4690469946DDE90FAB8E
:103AF0000E9D002003901198029000260020019056
:103B0000009002A800F038F98DF80C000398C0F37B
:103B1000031142A001F0C4F80398C0F30310032876
:103B200000D041E00398C0F3C00038700398C0F3A0
:103B3000410020600398C0F341013DA001F0B0F8BE
:103B4000039800F0010088F800006946029800F030
:103B5000FBF80190029908440290009902984618D7
:103B6000324602A9284600F068F910B10298301ACE
:103B700000D519E034A0A96801F092F837A069686F
:103B800001F08EF82068002804DD02A800F0E7F8B4
:103B9000A9F800000298301ACBF800000298CAF881
:103BA00000000120019000BF019804B0BDE8F09F23
:103BB0002DE9FE4F04460D4616461F46DDF830A09F
:103BC0000020029001978046814601A800F0D4F8B9
:103BD0008DF808000298C0F3C00028700298C0F366
:103BE000031020706946019800F0AEF881460199F3
:103BF00008440190DDE9001000EB01080198A8EBF2
:103C00000000022800DA06E001A800F0A8F83080E1
:103C10004FF0010900BF4846BDE8FE8F686561644A
:103C200065722E627970652069732025780D0A000F
:103C30006865616465722E626974732E716F73209A
:103C400069732025640D0A00746F7069636E616D7D
:103C5000652069732025730D0A000000746F706978
:103C6000636E616D65206C656E20697325640D0A55
:103C70000000000030B50246002300BF0846CD1703
:103C800001EB5565ED11A1EBC515ECB2CD1701EBBC
:103C90005565E911002901DD44F0800418465B1CDC
:103CA00014540029EADC184630BD2DE9F8430546D6
:103CB0000C46012600270020206000BF4FF0FF388F
:103CC000781C0746042801DD00BF17E00121684683
:103CD000A8478046B8F1010F00D00FE09DF8001012
:103CE00001F07F01206801FB06002060F6019DF8CD
:103CF000000000F080000028E0D100BF3846BDE899
:103D0000F883401C802801DA401C0AE0B0F5804F9F
:103D100001DA801C05E0D449884201DAC01C00E0C9
:103D2000001D704710B50246002309E0CF48006827
:103D300000781070CD480068401CCC4C20605B1CA3
:103D40008B42F3DB084610BD70B504460D46C748EC
:103D500004602946AFF23300FFF7A7FF70BD30B50E
:103D600001460A68537814784FF4807505FB0430D7
:103D70000B689B1C0B6030BD01460A6810780A680E
:103D8000521C0A607047026811700268521C02607F
:103D9000704710B50A46CB1701EB13631B0A046882
:103DA00023700268521C02600A46CB1701EB1363B2
:103DB0001B12A1EB0323046823700268521C0260EB
:103DC00010BD70B504460E46304601F061F9054657
:103DD00029462046FFF7DDFF2A463146206801F0DC
:103DE000CDF920682844206070BD10B501464A789E
:103DF0000B784FF4807404FB032010BD1FB50446FC
:103E0000029800280DDD20460299FFF7C2FFDDE988
:103E10000221206801F0B2F920680299084420606C
:103E20000AE0019820B120460199FFF7CAFF03E09C
:103E300000212046FFF7ADFF1FBD2DE9F0410546EB
:103E40000C46164600272068301A012812DD20464D
:103E5000FFF785FF6860206869680844B04206D8AB
:103E60002168A9602068696808442060012780A053
:103E700000F016FF002028603846BDE8F08137B515
:103E80000024009820B1009801F002F9044600E0F7
:103E9000019C20463EBD2DE9F04104460E46002718
:103EA000B846206828B12568206801F0F1F8074677
:103EB00001E0A5686768304601F0EAF880464745AA
:103EC00008D13A463146284601F001F910B90120DF
:103ED000BDE8F0810020FBE72DE9FC4104460F46D8
:103EE00015464FF0FF380020019000260090012178
:103EF0002046A847012800D01CE001266946284634
:103F0000FFF7D3FE601C0099FFF7B4FE064400984B
:103F10003044B84200DD0DE0A0190099A84700998F
:103F2000884200D006E020788DF804000198C0F3A4
:103F3000031800BF4046BDE8FC81F8B504464FF0C9
:103F4000FF36206918B90120A0600020E06000BFA2
:103F50002069401C2061042800DD1FE00122694621
:103F6000D4E9003098470546401C00B916E00DB969
:103F7000002613E09DF8001001F07F01D4E9022033
:103F800001FB0200E060A068C001A0609DF8000095
:103F900000F080000028DBD1266900BF3046F8BD64
:103FA0002DE9F84306460F4614464FF0FF3800202F
:103FB0000090207D30B1012817D002282FD000209A
:103FC000207500BF01223146D4E9003098470546EC
:103FD000401C00B944E015B90020BDE8F88300207A
:103FE0002061207D401C207500BF2046FFF7A5FF03
:103FF0000546401C00B933E00DB90020EDE7701C08
:10400000E168FFF737FE401C2061D4E90301084452
:10401000B84200DD24E0207D401C207500BFD4E9BB
:10402000032C0CEB0601D4E9003098470546401CF0
:1040300000B915E00DB90020CFE7E068401BE06053
:10404000206928442061E06808B10020C5E7307885
:104050008DF800000098C0F3031800BF00BF00BF38
:10406000002020754046B8E7FFFF1F0074000020C5
:10407000000000007FB50546089E002401A807C87F
:10408000FFF7FDFE801C30440444002D00DDA41C1D
:10409000204604B070BD2DE9F04F87B005460F46AD
:1040A00090461C46DDE915B6DDE9109A069500201C
:1040B0000590049003900096204612A90EC9FFF7C0
:1040C000D9FF04900290FFF71CFEB84203DD6FF0A9
:1040D0000100039033E0059820F0F00030300590A7
:1040E000059868F3C3000590059864F342000590B5
:1040F000059869F3000005909DF8141006A8FFF7D5
:1041000042FE04990698FFF7B5FD0699084406900B
:1041100006A812A90EC9FFF771FE002C03DD514657
:1041200006A8FFF736FE32465946069801F026F8F3
:104130000698304406900698401B039000BF0398F1
:1041400007B0BDE8F08F2DE9FC4704460E46154642
:104150001F46DDF828800020019081460094042E3F
:1041600002DA6FF0010924E0019865F3071001906D
:10417000019867F3C3000190062D01D1012100E0F1
:104180000021019861F3420001909DF804106846F7
:10419000FFF7F9FD02210098FFF76CFD0099084434
:1041A000009041466846FFF7F4FD0098A0EB040933
:1041B00000BF4846BDE8FC87F8B505460E461446E4
:1041C00000230422314628460094FFF7BCFFF8BDC7
:1041D000F8B506460F4614461D46234606223946C4
:1041E00030460095FFF7AFFFF8BDF8B505460E461F
:1041F000144600230722314628460094FFF7A3FF08
:10420000F8BD2DE9F04105460E46022700240AE0DC
:1042100004EB440006EB800393E80700FFF72FFE52
:10422000C01C0744641CAC42F2DB3846BDE8F08198
:104230002DE9FF5F05460E4617469846DDE90E9AC2
:1042400003950020029001900090002451464846BA
:10425000FFF7D7FF83460190FFF753FDB04202DD21
:10426000A01E009038E000208DF80800029820F091
:10427000F00080300290029867F3C3000290029829
:1042800020F00600801C02909DF8081003A8FFF79C
:104290007AFD01990398FFF7EDFC03990844039018
:1042A000414603A8FFF775FD00240FE004EB44002E
:1042B0000AEB800C03A89CE80E00FFF79FFD109806
:1042C00010F8241003A8FFF75EFD641C4C45EDDBDD
:1042D0000398401B009000BF009804B0BDE8F09F19
:1042E0002DE9FE4F05460E4614461F46DDE90C9BA0
:1042F00000200290CDF804908046824601A8FFF786
:104300003BFD8DF808000298C0F30310092800D087
:104310002CE069460198FFF717FD82460199084491
:104320000190DDE9001000EB01080198A8EB000006
:10433000022800DA1AE001A8FFF711FD288000200A
:1043400020600DE02068B04202DD4FF0FF3A0DE042
:1043500001A8FFF711FD2268511C216047F82200D7
:1043600001984045EED34FF0010A00BF5046BDE82A
:10437000FE8F000070B504460D46AAB2214600200B
:10438000FEF79CFA70BD70B504460D46AAB22146F0
:104390000220FEF793FA70BD70B504460D46AAB22E
:1043A00021460020FEF7F6FA70BD70B504460D46B2
:1043B000AAB221460220FEF7EDFA70BD10B5002327
:1043C0004CF2503201211846FEF76AF90446012CDE
:1043D00005D0002181A000F063FC00BFFEE70021B2
:1043E00083A000F05DFC09E084A000F059FC40F2DD
:1043F0005B7286490020FEF7D2F904460020FEF7E2
:104400005CFE1728F0D1012C05D0002180A000F01F
:1044100047FC00BFFEE7002184A000F041FC002023
:1044200010BD10B5002341F2893201210220FEF7B0
:1044300037F90446012C05D0022180A000F030FCA1
:1044400000BFFEE7022182A000F02AFC06E040F255
:104450005B726E490220FEF7A2F904460220FEF7C5
:104460002CFE1728F3D1012C05D002217DA000F0ED
:1044700017FC00BFFEE7022181A000F011FC002024
:1044800010BD10B50020FEF706FA81A000F008FC70
:1044900000BF0220FEF711FE0028FAD110BD10B5B2
:1044A0000220FEF7F8F97DA000F0FAFB00BF022021
:1044B000FEF703FE0028FAD110BD2DE9F04F97B0AA
:1044C0008046894692469B46DDE92064229D58221B
:1044D000754901A800F097FE74A00490B420ADF8CF
:1044E0001C0001208DF81E007AA011907FA014906E
:1044F00001AA29462046FFF7CCF9074617B0BDE8C8
:10450000F08F2DE9F041A0B004460D461646012774
:1045100000201F90039004900590204600F0B8FD05
:1045200080464246214606A800F028FE06A80390D1
:104530001FA803A901223B46CDE9002102900022D9
:1045400031462846FFF774FE20B0BDE8F0812DE922
:10455000F043A3B005460E4617461C46204600F021
:1045600097FD8046002007900890099064210AA8D2
:1045700000F0A5FE284600F08BFD81464A462946FC
:104580000AA800F0FBFD0AA80790CDE9054807A896
:1045900007C802AB07C30020009002230246394639
:1045A00001903046FFF777FD23B0BDE8F08370B58A
:1045B00004460D460C2229462046FFF750FA70BDEE
:1045C00008B501464FF0FF30002200920A788DF8BE
:1045D0000020009AC2F3031008BD000025643A537E
:1045E0006F636B6574204572726F720D0A00000074
:1045F00025643A4F70656E65640D0A00636F6E6ED8
:10460000656374696E670D0A000000006800002091
:1046100025643A536F636B657420436F6E6E6563F8
:1046200074204572726F720D0A00000025643A43CF
:104630006F6E6E65637465640D0A000025643A53FD
:104640006F636B657431204572726F72310D0A00B1
:1046500025643A736F636B657431204F70656E65C6
:10466000640D0A0025643A536F636B657420436FD1
:104670006E6E65637431204572726F720D0A0000B0
:1046800025643A436F6E6E6563746564310D0A008C
:10469000636C6F7365300A0D00000000636C6F730C
:1046A00065310A0D000000009466000873746D33D4
:1046B000327C7365637572656D6F64653D332C7311
:1046C00069676E6D6574686F643D686D616373687A
:1046D00061317C0046592D53544D33322661315A95
:1046E000435937414345356B0000000043443232A3
:1046F0004135383434413037323139393838303453
:1047000042354543363931364442393646453638E6
:1047100033313830000000002DE9F0470546884667
:104720001646994600270024444618E03A1B2146C5
:10473000284600F0EBFD0020391B68544946284606
:1047400000F010FD304600F0A3FC00EB070A5146D4
:10475000284600F007FD2946204600F075FC31464A
:10476000204600F05FFC0700E0D12146284600F01B
:104770006BFCBDE8F08730B585B00020FEF79DFCEE
:1047800000287BD0132804D017280CD01C2809D16E
:10479000B6E1E3480288E3490020FEF700F8E2A012
:1047A00000F07EFAB8E10020FEF77EFC00F0010088
:1047B00018B101210020FEF765FD4FF48061DF484C
:1047C00000F07DFD0020FEF7BFFC04003AD1DC487C
:1047D0000078012837D18002D849DAA2E4A3CDE9D4
:1047E000002102900122B421E7A0FFF766FE00201D
:1047F000D34908704FF48062D049FEF75FF8CF4983
:10480000EBA000F04DFA0220FEF7A0FD07E0022029
:10481000FEF79CFD7522C9490020FEF74FF80020E5
:10482000FEF792FC0400F2D0A2B2C4490020FEF7C9
:10483000B1F802E0E1A000F033FAC048FFF7C0FE93
:104840000228F7D1B0E0E048007801283BD181028E
:10485000BA4800F034FD4FF48062B849DB48FFF7F6
:1048600050FE4FF48062B5490020FEF727F8002083
:10487000D54908700220FEF769FD09E044E10220F5
:10488000FEF764FD4FF48062AC490020FEF716F895
:104890000020FEF759FC0400F1D0A2B2A749002085
:1048A000FEF778F802E0CAA000F0FAF9A348FFF793
:1048B00087FE0928F7D101218007FDF7E7F9C8A095
:1048C00000F0EEF970E0C948006842F210718842C9
:1048D0006ADD0020C54908604FF480619748FFF702
:1048E00066FE4FF4806295490020FDF7E7FF02E085
:1048F000BFA000F0D5F90020FEF726FC0400F7D099
:10490000A2B28E490020FEF745F82146BDA000F076
:10491000C7F9022C48DD8948801CFFF751FE0328A7
:1049200042D1BCA000F0BCF9A01E8449891CBC4A3D
:10493000BC4BCDE90132CDE90310BB48BB4BBC4AAF
:10494000BC490090BC48FFF7CBF864219F4800F0B9
:10495000B6FCF021B94800F0B2FCB3484268816867
:104960009A4800F00BFCB6A3B8A29849B948FFF7E3
:10497000D3FE9649B8A000F093F9AA480168AF4861
:1049800000F062FB4FF480616C4800F098FCB5A326
:104990004FF480626949AF48FFF7D9FD4FF4806258
:1049A00066490020FDF78AFF0020FEF7CDFB041EBC
:1049B00050DDA2B261490020FDF7ECFF5F48FFF730
:1049C000FFFD032847D193A000F06AF95B489449A2
:1049D000944ACDE90304CDE901219348934B944ACD
:1049E000944900909448FFF77BF86421774800F0E1
:1049F00066FC8D4842688168744800F0BFFB90A354
:104A000092A272499348FFF787FE704992A000F086
:104A100047F9F021894800F052FC8248006800F014
:104A200037FB05462A467F480168844800F0A6FB0C
:104A30004FF48061414800F042FC8C4B4FF480629F
:104A40003E498448FFF783FD4FF480623B490020D4
:104A5000FDF734FF53E03948FFF7B2FD0D284BD185
:104A6000022C4CDD3548801CFFF7AAFD032846D1F7
:104A700068A000F015F9A01E3049891C684A694BEE
:104A8000CDE90132CDE903106748684B684A6949AE
:104A900000906948FFF724F864214C4800F00FFCAF
:104AA000614842688168494800F068FB64A367A2D6
:104AB00046496848FFF730FE444967A000F0F0F827
:104AC000F0215E4800F0FBFB564801685B4800F0AF
:104AD000BBFA4FF48061194800F0F1FB61A34FF479
:104AE000806216495B48FFF732FD4FF4806213493C
:104AF0000020FDF7E3FE02E05DA000F0D1F80BE03E
:104B00000020FDF7B3FD07E020235D480288012166
:104B10000020FDF7C5FD00BF00BF05B030BD00009F
:104B20007C00002078000020636F6E6E65637469FE
:104B30006E672E2E2E2E2E2E2E0D0A002C080020F3
:104B4000820000204344323241353834344130371A
:104B500032313939383830344235454336393136D7
:104B6000444239364645363833313830000000008B
:104B700046592D53544D33322661315A43593741EA
:104B80004345356B0000000073746D33327C7365F0
:104B9000637572656D6F64653D332C7369676E6D07
:104BA0006574686F643D686D6163736861317C0032
:104BB0006D7174742534730D0A0000007761697497
:104BC0002061636B0D0A0000830000209800002024
:104BD000776169742073756261636B0D0A00000070
:104BE00073656E64207375620D0A0000FC0000207E
:104BF000776169742070696E67726573706F6E7328
:104C00006500000070696E67206C656E203A202593
:104C1000640D0A007075626C6973680D0A0000000B
:104C200090000020940000201C0D00208E00002029
:104C30008C00002088000020850000202C0C002023
:104C4000726573706F6E7365000000007265717538
:104C500065737400280D0020746F7069633A2573C2
:104C60000D0A000068656C6C6F0000008C0D002060
:104C700077616974207075626C6973680D0A000051
:104C80007E000020704700000FB4044910B503AA4D
:104C9000029800F033FE10BC5DF814FB28000020E1
:104CA0000FB4044910B503AA029800F027FE10BC07
:104CB0005DF814FB280000200FB41CB5084B06AAB1
:104CC0007B4469460090059800F0E9FD0446002009
:104CD000694600F0F7FD20461CBC5DF814FB00009F
:104CE000010C000070B5044685690068C10601D555
:104CF000302600E02026C00707D070BDD4E901218E
:104D000030469047206A401C20626D1EF6D570BD6B
:104D100070B5044685690078C00707D170BDD4E935
:104D2000012120209047206A401C20626D1EF6D58C
:104D300070BD70B50C460546012A05D0287880065E
:104D400000D5EA69002302E0012305E05B1C9342E1
:104D500002D2E05C0028F9D1A869E618C01AA8615F
:104D6000286A184428622846FFF7BCFF04E0D5E90A
:104D7000012114F8010B9047B442F8D32846FFF7FD
:104D8000C7FF70BD2DE9F041064600241068752963
:104D9000314616A510D000F0F1FA002802DA4042A0
:104DA00013A507E031688A0701D512A502E049077B
:104DB00004D511A5012401E000F0E9FA00210A223E
:104DC00006F1240709E0B0FBF2FCB0FBF2F302FBB2
:104DD0001C00303078541846491C0028F3D1234673
:104DE0002A463046BDE8F04100F0DABA0000000083
:104DF0002D0000002B00000020000000F0B40D4644
:104E00000188090502D5214C7C4402E01F4C7C44FA
:104E10000E34002100F1240608E002F00F07120909
:104E2000E75D42EA03721B097754491C52EA030703
:104E3000F3D102780023120704D5702D06D009B1F2
:104E4000022311342246F0BC00F0AABA0123103428
:104E5000F8E770B504460D462146106800F097FA51
:104E6000024629462046BDE870400023C6E7D21D11
:104E700022F00703D3E90023C0E70368126843F078
:104E8000200303600823C3610023B7E7E018000094
:104E90002DE9F05F894604464FF0000ADFF874B14F
:104EA000FB44C0F820A02046E1688847002874D061
:104EB000252806D0D4E901219047206A401C2062B1
:104EC000F1E700265F462046E1688847202805462E
:104ED00007DB312D05D2781910F8200C08B10643F4
:104EE000F1E7B00701D526F00406C4F81CA000279E
:104EF000C4F818A02A2D09D0284601F096FB38B333
:104F000004EB8708303DC8F8185019E059F8041B25
:104F1000204604EB87029161E1688847012F05462E
:104F200018D1E069002820DA26F020061DE0D8F824
:104F3000180000EB800005EB40003038C8F818007E
:104F40002046E1688847054601F06FFB0028EED156
:104F5000012F0AD02E2D08D12046E16888477F1CFA
:104F60000546022F46F02006C4DBA069002803DABC
:104F7000404246F00106A061F00701D026F010067D
:104F80006C2D0BD0682D09D04C2D39D06A2D35D021
:104F9000742D35D07A2D33D016E038E0E1682F46F5
:104FA00020468847B842054609D16C2F26D04FF4D9
:104FB0008060E168064320468847054604E06C2F80
:104FC0001AD04FF4807006430DB3A5F141001928A3
:104FD00002D8203546F400664A4629462046266017
:104FE0004E46FBF7DFF880B101280BD0F61D26F006
:104FF000070000F1080956E74020E4E78020D8E7E1
:105000000020D6E706F104094DE7284652E7206A5A
:10501000BDE8F09F70180000014A00F055BD000087
:105020000001002030B505460B462A4613F8014B17
:1050300012F8010B08B1A042F8D01CB1002802D030
:105040006D1CF1E7284630BD40EA0103024630B549
:105050009B0710D14FF0013400E008C208C91D1BA6
:105060009D4315EAC41FF8D013F0FF0102F8011B9D
:105070000DD01B0AF8E711F8013B002B02F8013BA9
:1050800005D011F8013B002B02F8013BF3D130BDF4
:1050900010B5431C02E010F8011B71B18107FAD171
:1050A0004FF0013202C88C1A8C4314EAC211F9D0B5
:1050B000C01A0A0603D0C01E10BDC01A10BD0A04D3
:1050C00001D0801E10BD0902FCD0401E10BD40EA78
:1050D000010370B59B072ED14FF00136042A2AD365
:1050E00008C810C99D1B9D43121F15EAC61517D08D
:1050F000D8B2E1B2401A50EA056110D198B2A1B21B
:10510000401A50EA05410AD123F07F4024F07F4144
:10511000401A50EA052102D1180EA0EB146070BDB0
:10512000A342DBD018BA21BA884201D9012070BD50
:105130004FF0FF3070BD0AB9002070BD10F8013B80
:1051400011F8014B63B1A3420AD1521E08D010F8E6
:10515000013B11F8014B1BB1A34201D1521EEDD10D
:10516000181B70BD421E12F8013F002BFBD111F835
:10517000013B002B02F8013BF9D17047032A40F2B2
:10518000308010F0030C00F0158011F8013BBCF1E9
:10519000020F624498BF11F801CB00F8013B38BF01
:1051A00011F8013BA2F1040298BF00F801CB38BF0F
:1051B00000F8013B11F0030300F02580083AC0F02D
:1051C000088051F8043B083A51F804CBA0E80810D5
:1051D000F5E7121D5CBF51F8043B40F8043BAFF308
:1051E0000080D20724BF11F8013B11F801CB48BF62
:1051F00011F8012B24BF00F8013B00F801CB48BF98
:1052000000F8012B704710B5203AC0F00B80B1E8D0
:105210001850203AA0E81850B1E81850A0E81850EB
:10522000BFF4F5AF5FEA027C24BFB1E81850A0E8F4
:10523000185044BF18C918C0BDE810405FEA827C0E
:1052400024BF51F8043B40F8043B08BF7047D20725
:1052500028BF31F8023B48BF11F8012B28BF20F8C6
:10526000023B48BF00F8012B704702F0FF0343EAFE
:10527000032242EA024200F002B84FF00002042981
:10528000C0F0128010F0030C00F01B80CCF1040C75
:10529000BCF1020F18BF00F8012BA8BF20F8022BA9
:1052A000A1EB0C0100F00DB85FEAC17C24BF00F84F
:1052B000012B00F8012B48BF00F8012B70474FF07D
:1052C000000200B5134694469646203922BFA0E856
:1052D0000C50A0E80C50B1F12001BFF4F7AF090762
:1052E00028BFA0E80C5048BF0CC05DF804EB890053
:1052F00028BF40F8042B08BF704748BF20F8022B96
:1053000011F0804F18BF00F8012B704710B504460C
:1053100010F0030F08BF11F0030F40F015804FF09D
:10532000013E121FC0F20E8051F8043BA3EB0E0C9D
:105330002CEA030C1CEACE1C08BF40F8043BF0D05A
:10534000A1F1040102F10402521E08DB11F8013B35
:10535000002B00F8013BF7D11146FFF78EFF2046E6
:1053600010BD7047704770477047000010B500F0DF
:10537000D1FB001D10BD00BFC112000009684A0525
:1053800001D540B27047C905FCD500B27047096825
:105390004A0501D5C0B27047C905FCD580B2704737
:1053A0002DE9F0470D4699469246044600F124083F
:1053B0000168880604D5E06921F01001216000E051
:1053C0000120A84201DD471B00E00027A1697A19EE
:1053D00002EB0900081AA0612078C00602D420461A
:1053E000FFF780FC002608E0D4E901211AF8060046
:1053F0009047206A401C761C20624E45F4DB2078E2
:10540000C0060AD52046FFF76DFC06E0D4E901216D
:1054100030209047206A401C2062381EA7F1010707
:10542000F4DC07E0D4E9012118F805009047206A70
:10543000401C2062281EA5F10105F3DC2046FFF781
:1054400067FC2078000602D50220BDE8F087012025
:10545000FBE711680268006A530501D508700AE08D
:10546000D30501D5088006E0130603D5C217C1E9AC
:10547000000200E008600120704770472DE9FF4FEF
:105480000C461E464FF0FF378BB0D2E90001DDF825
:1054900060800A908A46C1F30A5505B93D4600214D
:1054A00008464FF00000BAF1000F00F4400005DAA2
:1054B00000EB80004FF4400101EA50004FEA9059A0
:1054C000B9F1010F00DDB9460A9850EA4A000ED042
:1054D00044F61050A5F2FF3545432F14B8F1000FE4
:1054E0001ED07542291E1EDDC9F100021CE0B8F174
:1054F000010F4FF0000001D0302103E0F24305E03E
:105500002154401CB042FBDB3046002200212154D4
:105510000B99C1F80880C1E900200FB0BDE8F08FF9
:10552000BD1B6D1CDEE74A4600DA694206A800F0A2
:1055300091FB06AB93E8070003AB83E807005046F6
:105540000A9900F0A3FC8DE80700A0F500501F3871
:1055500000900398002D09DD42F21F014A460844DD
:1055600003A90390684600F002FF08E0A0F5005090
:105570004A461F3803A90390684600F00CFF8DE8E7
:1055800007000004000C03D04FF0FF30410800E09A
:105590001046B8F1000F03D00022009215461EE01D
:1055A000751E05D400F0BAFA303262556D1EF9D579
:1055B000B3460122084302D000227F1C04E0207879
:1055C000302801D100227F1E002A099786D01DE0D5
:1055D000112D07DA00F0A2FA303262556D1C50EA44
:1055E0000102F5D1084302D00098C8B10EE00021B5
:1055F000681E05E0235C625C63542254401E491C13
:105600008142F7DBAB46A81B401E0990002004F83E
:105610000B000B98099AC0F80880C0E9002B7CE7C2
:1056200011264FF0000859E72DE9F04F884604464F
:10563000D21D22F0070191B0D1E90001CDE90A01A4
:1056400000F0DFFF02460B98C00F01D02D2007E0CD
:105650002068810701D52B2002E0202101EAC0004B
:10566000032A099001D0072A05DB0346414620465C
:1056700000F09AFA0BE12078800601D5E06900E09D
:105680000620B8F1650F814606D0B8F1660F18D034
:10569000B8F1670F70D131E00020B9F1110F00901F
:1056A00001DB112301E009F101030AAA01A90CA8F9
:1056B000FFF7E4FEDDE90C70002609F101058346E1
:1056C00047E001204B4600904FF000470AAA01A98D
:1056D0000CA8FFF7D3FEDDE90DB00C995D4600265E
:1056E00010B909F101000D18B9EB050003D4C0F1A0
:1056F000FF3609F10105A5EB09002BE0B9F1010F17
:1057000001DA4FF001090020B9F1110F009048466D
:1057100001DD112300E003460AAA01A90CA8FFF746
:10572000ADFEDDE90C704D4600268346207800076B
:105730000AD4AB4500DA5D4601A8012D04DD41190C
:1057400011F8011C302907D04F4502DA17F1040F78
:1057500004DA012082460FE06D1EEEE7002F02DC26
:10576000ED1B3E4403E0781CA84200DD7D1CB81B05
:1057700000F1010A4FF000472078000703D4AA4542
:1057800001DB4FF0FF3A0021B7F1004F0DF1430864
:105790008DF8431024D002202B23002F01DA7F4202
:1057A0002D230A21021EA0F1010000DC5FB197FB4E
:1057B000F1FC97FBF1F201FB1C7C17460CF1300C5D
:1057C00008F801CDEEE7A8F1010003702188090572
:1057D00001D5452100E06521A0F1010800F8011C78
:1057E00009980FA9A1EB0807FF1D00B1012041197D
:1057F00001EBEA70A1693844081A401EA0612078C4
:10580000C00602D42046FFF76DFA099828B1D4E902
:1058100001219047206A401C20622078C00622D5D2
:105820002046FFF75FFA1EE0002E04DBB34502DDE1
:1058300001A8805D00E03020D4E901219047206A72
:10584000401C2062761CAAF101005FEA000A0AD11E
:1058500000F060F9C0680168405CD4E9012190471C
:10586000206A401C2062281EA5F10105DCDC07E04F
:10587000D4E9012118F8010B9047206A401C2062EE
:10588000381EA7F10107F3DC2046FFF741FA032099
:1058900011B043E601694A1C02610878704700B5FF
:1058A0008FB0CDE901310021059105497944CDE959
:1058B000031011466846FFF7EBFA0FB000BD000079
:1058C000E5FFFFFF0A6802F8010B0A60704710B598
:1058D000436913B1AFF3008001E0FFF72AFA01201A
:1058E00010BD127800F124010A7000224A700122D2
:1058F000EDE711684FF0FF32E9E70000074B70B5A4
:105900000D467B44FFF7CBFF0446284600F010FA13
:1059100010B14FF0FF3070BD204670BD49C9FFFF88
:105920002DE9FF5F15468A460446DFF8AC80F8444F
:105930000027D8E900103E46CDE9001010E03AF803
:1059400016106A4602A800F0F7F9411C07D021782A
:10595000890603D5E269391891420DD80744761CAF
:105960002078800602D5E069B84205DDAE42E6DB6C
:105970003AF816000028E2D1A069C01BA0612046B9
:10598000FFF7B0F9D8E90010CDE90010002017E0CA
:105990003AF818106A4602A800F0CEF9B0F1FF3FBD
:1059A00081460BD000250DF1080B05E0D4E901215B
:1059B0001BF8050090476D1C4D45F7D308F1010019
:1059C000B0428046E4DB206A384420622046FFF77C
:1059D0009FF9BDE8FF9F0000F60D00002DE9F041A2
:1059E0008046D21D22F007020025D2E90002F529E7
:1059F00015A614D0011E72F1000106DA0023D0EBC7
:105A0000030063EB020211A608E0D8F800108B0730
:105A100001D50FA602E0490701D50EA601251146C2
:105A2000002408F1240704E000F078F830323A55F9
:105A3000641C50EA0102F7D12B463246214640460B
:105A4000BDE8F041FFF7ACBC000000002D000000F5
:105A50002B0000002000000030B4002100F12404DD
:105A600008E002F00705D208303542EA4372DB084D
:105A70006554491C52EA0305F3D10468002310A2BF
:105A8000250708D504F020040C4304D0C469012381
:105A90000CA2641EC46130BCFFF782BC10B5044682
:105AA00021461068FFF773FC02462046BDE810400F
:105AB0000023D1E7D21D22F00701D1E90023CBE773
:105AC00000000000300000002DE9F04115460E46B0
:105AD000040002D12C6804B90BA4204600F05CF944
