:020000040800F2
:1000000030130020DD020008E5020008E7020008C6
:10001000E9020008EB020008ED0200080000000001
:10002000000000000000000000000000EF020008D7
:10003000F102000800000000F3020008F5020008C9
:10004000F7020008F7020008F7020008F7020008AC
:10005000F7020008F7020008F7020008F70200089C
:10006000F7020008F7020008F7020008F70200088C
:10007000F7020008F7020008F7020008F70200087C
:10008000F7020008F7020008F7020008F70200086C
:10009000F7020008F7020008F7020008F70200085C
:1000A000F7020008F7020008F7020008F70200084C
:1000B000F7020008F7020008F7020008F70200083C
:1000C000F7020008F7020008F7020008F70200082C
:1000D000F70200080B2A0008F7020008F7020008E0
:1000E000F7020008F7020008F7020008F70200080C
:1000F000F7020008F7020008F7020008F7020008FC
:10010000F7020008F7020008F7020008F7020008EB
:10011000F7020008F7020008F7020008F7020008DB
:10012000F7020008F7020008F7020008F7020008CB
:10013000DFF80CD002F026FD00480047450100081A
:10014000301300201CB544A00068019041F28835AE
:1001500041F270760024482002F026F902F096FB66
:1001600002F078FA02F0A2F802F0E0FB01F016FCCF
:1001700002F0B3FA02F013FB02F0C8FA002001F01B
:1001800097FA9DF8070000909DF806309DF805202D
:100190009DF8041031A002F007FD294637A002F0B7
:1001A00003FD3CA002F000FD40A002F0FDFC51E088
:1001B000002001F0F8FA002844D0132804D01728B2
:1001C00008D01C2845D139E02A4601A9002001F0B9
:1001D000B6FD3EE0002001F0DDFA00F0010018B1AC
:1001E0000121002001F0BEFB002001F021FB0446AC
:1001F000002C0DDD22463449002001F09BFE3249DF
:1002000032A002F0D1FC22462F49002001F026FE48
:100210003048008800F4004078B12E480088C0F3D0
:100220000D0422462C49002001F018FE0020294927
:100230000880611C284802F034FC0AE0002001F02C
:10024000E5FC06E0202332460121002001F0F8FC05
:1002500000BF00BFACE70000C0A801975443502086
:100260005365727665722049503A2025642E2564C4
:100270002E25642E2564200D0A00000054435020D2
:1002800053657276657220506F72743A202564202F
:100290000D0A0000573535303020496E697420430F
:1002A0006F6D706C657465210D0A00005374617286
:1002B000742054435020436C69656E7420546573F8
:1002C00074210D0A000000005000002025730D0A63
:1002D0000000000046000020660E0020064880470F
:1002E00006480047FEE7FEE7FEE7FEE7FEE7FEE71B
:1002F000FEE7FEE7FEE7FEE7DF0300083101000846
:100300000CB50020019000906C48006840F48030EB
:100310006A49086000BF6948006800F40030009036
:100320000198401C0190009818B90198B0F5A06F91
:10033000F1D16248006800F4003010B10120009053
:1003400001E0002000900098012843D15C4800683B
:1003500040F010005A4908600846006820F0030089
:1003600008600846006840F0020008605348406892
:10037000524948600846406848600846406840F472
:10038000806048600846406820F47C104860084659
:10039000406840F4E81048600846006840F080700B
:1003A000086000BF4548006800F000700028F9D0E0
:1003B0004248406820F003004049486008464068D1
:1003C00040F00200486000BF3C48406800F00C006C
:1003D0000828F9D10CBD10B5FFF792FF10BD10B57C
:1003E0003648006840F0010034490860084640681B
:1003F000344908403149486008460068324908409D
:100400002E4908600846006820F4802008600846ED
:10041000406820F4FE0048604FF41F008860FFF73A
:10042000DAFF4FF000602949086010BD10B50021C7
:1004300000200022214B5B6803F00C0121B104294C
:1004400006D0082928D107E0214B224C236027E061
:100450001F4B204C236023E0184B5B6803F47010A3
:10046000164B5B6803F48032022303EB904022B901
:10047000194B4343174C23600DE0104B5B6803F4AA
:10048000003323B1144B4343124C236003E0104B61
:100490004343104C236003E00D4B0E4C236000BF20
:1004A00000BF064B5B68C3F303130C4CE15C094BC4
:1004B0001B68CB40074C236010BD000000100240B9
:1004C000002002400000FFF8FFFFF6FE08ED00E00C
:1004D00000127A000000002000093D000400002006
:1004E00031490143314A1160704770B50021002342
:1004F0000F22C47804B32D4C246804F4E064C4F5DE
:10050000E064210AC1F10403CA40447804FA03F10B
:100510008478144021430901254C0678A1550478BC
:1005200004F01F050124AC4005786D11AD0005F104
:10053000E025C5F8004109E0047804F01F05012416
:10054000AC401C4D0678761145F8264070BD1A4A1D
:100550000A400243154B1B1F1A60704739B1134AFA
:10056000121D12680243114B1B1D1A6006E00F4A50
:10057000121D126882430D4B1B1D1A607047042820
:1005800008D14FF0E021096941F004014FF0E02269
:10059000116107E04FF0E021096921F004014FF0FB
:1005A000E0221161704700000000FA050CED00E048
:1005B00000E400E080E100E080FFFF1F10B504468A
:1005C000CC48844208D10121042000F02DFB0021F9
:1005D000042000F029FB46E0C748844208D10121ED
:1005E000082000F021FB0021082000F01DFB3AE06C
:1005F000C248844208D10121102000F015FB0021DF
:10060000102000F011FB2EE0BD48844208D10121EA
:10061000202000F009FB0021202000F005FB22E053
:10062000B848844208D10121402000F0FDFA0021A1
:10063000402000F0F9FA16E0B348844208D10121C5
:10064000802000F0F1FA0021802000F0EDFA0AE0AD
:10065000AE48844207D10121801500F0E5FA00215F
:10066000A01500F0E1FA10BD10B50121084600F018
:10067000DBFA0021012000F0D7FA10BD2DE9F0418E
:10068000024600250026002000230024002791F8C0
:1006900003C00CF00F0591F803C00CF0100CBCF176
:1006A000000F03D091F802C04CEA050591F800C094
:1006B000BCF1000F31D0146800202BE04FF0010C8A
:1006C0000CFA00F3B1F800C00CEA03069E4220D1F8
:1006D00083004FF00F0C0CFA03F7BC4305FA03FC40
:1006E0004CEA040491F803C0BCF1280F06D14FF086
:1006F000010C0CFA00FCC2F814C00AE091F803C027
:10070000BCF1480F05D14FF0010C0CFA00FCC2F807
:1007100010C0401C0828D1D31460B1F800C0BCF14F
:10072000FF0F34DD546800202EE000F1080C4FF07C
:10073000010808FA0CF3B1F800C00CEA03069E4267
:1007400021D183004FF00F0C0CFA03F7BC4305FADC
:1007500003FC4CEA040491F803C0BCF1280F05D156
:1007600000F1080C08FA0CF8C2F8148091F803C0E4
:10077000BCF1480F07D100F1080C4FF0010808FA4E
:100780000CF8C2F81080401C0828CED35460BDE895
:10079000F0814FF6FF710180022181700421C17048
:1007A00070470246002093680B400BB1012000E027
:1007B000002070470146886880B2704702460020DA
:1007C000D3680B400BB1012000E0002070470146C8
:1007D000C86880B2704701617047416170470AB1D3
:1007E000016100E041617047C16070474FF48032A1
:1007F0000A4382618161826182698269704702462F
:100800000020434B18684FF68073184040EA0210EE
:1008100008433F4B186070473E49C8617047F0B5C8
:100820000A46002300240021002500F00046B6F10E
:10083000004F02D1364EF16901E0354E7168C0F3C8
:10084000034583B200F44016B6F5401F08D121F0ED
:1008500070612F4E766826F070662D4F7E6012E034
:1008600000F48016B6F5801F06D1032606FA05F4BB
:10087000A14341F0706106E0460D360103FA06F629
:10088000B14341F0706122B1460D360103FA06F61C
:10089000314300F00046B6F1004F02D11C4EF16129
:1008A00001E01B4E7160F0BD30B500228B071C0FBC
:1008B0000F2303FA04F2164B08338C1053F824303C
:1008C0009343134C08348D1044F8253023468C1084
:1008D00053F824308C07240F00FA04F423430C4C03
:1008E00008348D1044F8253030BD0A49DC310860E9
:1008F0007047000000080140000C0140001001405A
:100900000014014000180140001C0140002001407B
:100910000000014000002042DF48006840F0010074
:10092000DD49086008464068DC490840DA4948600B
:1009300008460068DA490840D74908600846006858
:1009400020F4802008600846406820F4FE004860DB
:100950004FF41F0088607047CF49096821F4803147
:10096000CD4A11601146096821F480211160B0F56B
:10097000803F03D0B0F5802F0ED106E0C64909684C
:1009800041F48031C44A116007E0C349096841F469
:10099000A021C14A116000E000BF00BF704710B540
:1009A00001460022002300204A11012A02D1BA4C3C
:1009B000236806E0022A02D1B74C236A01E0B64C54
:1009C000636A01F01F02012494401C400CB1012015
:1009D00000E0002010BD38B5002000900024002564
:1009E00000BF3120FFF7DBFF05460098401C009058
:1009F0000098B0F5A06F01D0002DF2D03120FFF7A4
:100A0000CEFF08B1012400E00024204638BD014695
:100A10000020A14A106820F0F80040EAC1001060F0
:100A20007047A04908607047024600209A4B5868FA
:100A300020F47C1042EA01031843974B586070473A
:100A400098490866704701460020934A506820F094
:100A500003000843506070478F48406800F00C0066
:100A60007047014600208C4A506820F0F00008438F
:100A70005060704701460020874A506820F4E060CB
:100A800008435060704701460020834A506820F4B4
:100A9000605040EAC1005060704729B17E4A527AE6
:100AA00002437D4B5A7204E07B4A527A82437A4B6E
:100AB0005A7270477B49D831086070470146002060
:100AC000754A506820F44040084350607047002148
:100AD000714A20321170704A82F82010012802D029
:100AE00004280AD104E001216B4A2032117005E08C
:100AF0000521694A2032117000E000BF00BF704735
:100B00006949086070476449096A0143624A116291
:100B10007047654944390860704730B500210022AC
:100B2000002400235C4D6D6805F00C0121B10429FF
:100B300005D0082923D105E05C4D056022E05B4D1E
:100B400005601FE0544D6D6805F47012524D6D68DC
:100B500005F48034022505EB92421CB9544D5543EF
:100B600005600BE04C4D6D6805F400351DB1504D2E
:100B70005543056002E04D4D5543056002E04B4D85
:100B8000056000BF00BF444D6D6805F0F001090924
:100B9000484D6B5C0568DD4045603F4D6D6805F470
:100BA000E061090A434D6B5C4568DD4085603A4D64
:100BB0006D6805F46051C90A3E4D6B5C4568DD40C7
:100BC000C560354D6D6805F44041890B3A4D6B5C4D
:100BD000C568B5FBF3F5056130BD29B12E4A5269F0
:100BE00002432D4B5A6104E02B4A526982432A4B3F
:100BF0005A61704729B1284A92690243264B9A618B
:100C000004E0254A92698243234B9A61704729B1D7
:100C1000214AD2690243204BDA6104E01E4AD269BC
:100C200082431D4BDA61704729B11B4AD2680243E7
:100C3000194BDA6004E0184AD2688243164BDA6036
:100C4000704729B1144A12690243134B1A6104E038
:100C5000114A12698243104B1A6170471249403998
:100C6000086070470F49C86470470B49C8717047E6
:100C70000948406A40F08070074948627047014661
:100C80000020054A92680A400AB1012000E00020D5
:100C90007047014988727047001002400000FFF859
:100CA000FFFFF6FE000042428004424200127A003A
:100CB00000093D00140000202400002010B5044667
:100CC000BE48844208D101218014FFF7ADFF002106
:100CD000A014FFF7A9FF16E0B948844208D101210A
:100CE0000014FFF7AEFF00212014FFF7AAFF0AE06F
:100CF000B448844207D10121C013FFF7A2FF0021AD
:100D0000E013FFF79EFF10BD10B50022028802F429
:100D100041520B884C8823438C882343CC8823433F
:100D20000C8923434C8923438C892343CC89234357
:100D30001A430280838B4FF2FF74234083830B8A14
:100D4000038210BD2DE9F04F85B005460C464FF0EB
:100D5000000902274FF000084FF0010B0026B246B1
:100D6000A88B4FF240010840A88302202884B5F8E0
:100D70001C90A068022801D100BF38E0A08810B9FB
:100D80004FF0010B01E04FF0020B8D48854200D17E
:100D900000E000BF6846FFF7C0FEDDF800A0E08875
:100DA000B0F5007F0AD14FEA1A2000EB8000400026
:100DB000A168B0FBF1F0401D86B20BE04FEA4B108A
:100DC000BAFBF0F000EB80004000A168B0FBF1F04E
:100DD000401D86B20A20B6FBF0F606F00108A6EB2D
:100DE0000800C0F34F074FF6FF7000EA0828022FF3
:100DF00001DBFF2F02DD02274FF00008E08840EA08
:100E0000080038432884A088A189084361880843E2
:100E10002188084340F4006040EA0909A5F81C90C5
:100E200005B0BDE8F08F0021018041808180C18044
:100E3000018141818181C1810721018270470021A7
:100E4000018041808180C1800221816000218181F7
:100E5000704721B1028842F04002028004E002881B
:100E60004FF6BF731A400280704721B1828B42F463
:100E70008062828304E0828B4FF6FF331A408283C4
:100E8000704730B5002400230C110125A540ABB2FA
:100E90001AB185881D43858002E085889D43858041
:100EA00030BD1AB183880B43838002E083888B4373
:100EB00083807047818170470146888970474FF66B
:100EC000FF62914204D0028842F48072028004E002
:100ED00002884FF6FF631A400280704721B1828872
:100EE00042F00402828004E082884FF6FB731A40CD
:100EF0008280704702884FF2FF731A400280028896
:100F00000A4302807047018841F480510180704794
:100F100021B1028842F40052028004E002884DF6BA
:100F2000FF731A400280704702460020012901D059
:100F3000108B00E0908A70470146088A7047B1F52F
:100F4000804F04D1028842F48042028004E002888B
:100F50004BF6FF731A400280704702460020138947
:100F60000B400BB1012000E000207047CA43028112
:100F70007047F0B50246002000240023002501F050
:100F80000F070126BE40B4B20B1101269E40B3B23A
:100F9000968806EA03051689264016B10DB1012090
:100FA00000E00020F0BD10B5002201F00F04012385
:100FB000A3409AB2D343038110BD0000003001402A
:100FC00000380040003C004010B50446FB48844215
:100FD00009D101218803FFF727FE00214FF480404B
:100FE000FFF722FE32E0F648844209D1012148048D
:100FF000FFF727FE00214FF40030FFF722FE25E027
:10100000F048844209D101218804FFF71AFE00212B
:101010004FF48020FFF715FE18E0EB48844209D119
:101020000121C804FFF70DFE00214FF40020FFF757
:1010300008FE0BE0E548844208D101210805FFF7CE
:1010400000FE00214FF48010FFF7FBFD10BD2DE9DD
:10105000F04786B005460E460024A24600BFA146D2
:101060000027B08900B100BF2F462C8A4CF6FF70D4
:101070000440F08804432C82AC894EF6F3100440FF
:10108000B08831890843718908430443AC81AC8A34
:101090004FF6FF400440B0890443AC8201A8FFF73B
:1010A0003CFDC648874202D1DDF810A001E0DDF822
:1010B0000CA0A88900F4004040B10AEBCA0000EB84
:1010C0000A1031684900B0FBF1F807E00AEBCA00EA
:1010D00000EB0A1031688900B0FBF1F86420B8FB1E
:1010E000F0F004012009642101FB1089A88900F4B3
:1010F000004040B1322000EBC900B0FBF1F000F03D
:101100000700044308E0322000EB09106421B0FB23
:10111000F1F000F00F0004432C8106B0BDE8F08729
:101120004FF41651016000218180C18001810C21A2
:10113000418100218181704710B502460020108A4C
:101140004FF2FF0318400B884C8823438C882343BD
:10115000CC8823431843108210BD002101804180B8
:101160008180C180704721B1828942F4005282811E
:1011700004E082894DF6FF731A4082817047F0B512
:101180000346002400260025002040F66A17B942D5
:1011900000D100BF1846C1F3421401F01F06012719
:1011A00007FA06F5012C01D10C3004E0022C01D124
:1011B000103000E014301AB107682F43076002E0D6
:1011C0000768AF430760F0BD1AB1838A0B4383827F
:1011D00002E0838A8B4383827047028A4FF6F07362
:1011E0001A400282028A0A430282704782894FF2C1
:1011F000FF731A40828182890A438281704721B13C
:10120000828942F00202828104E082894FF6FD73F6
:101210001A4082817047028A4FF6DF731A400282B9
:10122000028A0A430282704721B1028A42F4804254
:10123000028204E0028A4BF6FF731A400282704772
:10124000C1F308028280704701468888C0F3080015
:101250007047818941F0010181817047028BD2B2D0
:101260000283028B42EA012202837047028B02F45E
:101270007F420283028B0A430283704721B1828A34
:1012800042F02002828204E0828A4FF6DF731A4025
:101290008282704721B1828A42F01002828204E089
:1012A000828A4FF6EF731A408282704721B1828A98
:1012B00042F00802828204E0828A4FF6F7731A40F5
:1012C0008282704721B1828942F40042828103E028
:1012D0008289C2F30E028281704721B1828A42F470
:1012E0000062828204E0828A4FF2FF731A40828297
:1012F0007047828A4FF6FB731A408282828A0A43C1
:101300008282704721B1828A42F00202828204E026
:10131000828A4FF6FD731A4082827047024600208F
:10132000B1F5007F00D100BF13880B400BB1012045
:1013300000E00020704701F40072B2F5007F00D198
:1013400000BFCA430280704770B5024600240023E4
:101350000025002040F66A16B14200D100BFC1F35B
:10136000421501F01F03012606FA03F3012D02D1F5
:101370009689334006E0022D02D1168A334001E0FF
:10138000968A33400C12012606FA04F4168834407B
:1013900013B10CB1012000E0002070BD10B5002297
:1013A000002340F66A14A14200D100BF0A120124B2
:1013B0009440A3B2DC43048010BD0000003801401B
:1013C0000044004000480040004C004000500040F5
:1013D0000146F948405C7047F74A1154704701468E
:1013E000F64830F8110070470146F54830F8110012
:1013F000704710B5002000F0A9FF10BD10B5012006
:1014000000F0A4FF10BD10B50446204600F0AEFF6A
:1014100010BD70B504460D46FFF7EBFFC4F307405F
:10142000FFF7F1FFC4F30720FFF7EDFF04F0F80129
:10143000091DC8B2FFF7E7FF2846FFF7E4FFFFF7F3
:10144000DDFF70BD70B504460025FFF7D2FFC4F381
:101450000740FFF7D8FFC4F30720FFF7D4FF04F0DD
:10146000F800FFF7D0FF0020FFF7CDFF0546FFF79C
:10147000C5FF284670BD2DE9F04104460F461546CC
:10148000002615B9CFA001F08FFBFFF7B2FFC4F320
:101490000740FFF7B8FFC4F30720FFF7B4FF04F0DD
:1014A000F801091DC8B2FFF7AEFF002604E0B85DE1
:1014B000FFF7A9FF701C86B2AE42F8DBFFF79EFF74
:1014C0002846BDE8F0812DE9F04104460F46154657
:1014D000002615B9BBA001F067FBFFF78AFFC4F334
:1014E0000740FFF790FFC4F30720FFF78CFF04F0DD
:1014F000F800FFF788FF002605E00020FFF783FFD4
:10150000B855701C86B2AE42F7DBFFF777FF28466E
:10151000BDE8F08110B5044621460020FFF779FFB1
:1015200010BD10B58020FFF7F5FF10BD2DE9F0418B
:1015300005460E460027B846002489E0295D41F69D
:10154000087202EB4410FFF764FF315D41F6086258
:1015500002EB4410FFF75DFF0020994921F81400C9
:10156000964921F81400B7F5804F32DC285D042835
:1015700016D004DC012807D0022823D10AE008286D
:1015800014D010281ED117E04FF480608C4921F848
:1015900014001DE04FF40060894921F8140017E0A1
:1015A0004FF48050864921F8140011E04FF40050A8
:1015B000834921F814000BE04FF48040804921F862
:1015C000140005E04FF400607C4921F8140000BFCE
:1015D00000BFB8F5804F32DC305D042816D004DC43
:1015E000012807D0022823D10AE0082814D01028A7
:1015F0001ED117E04FF48060704921F814001DE0FF
:101600004FF400606D4921F8140017E04FF480504A
:101610006A4921F8140011E04FF40050674921F89D
:1016200014000BE04FF48040644921F8140005E0F9
:101630004FF40060614921F8140000BF00BF60480A
:1016400030F8140007445D4830F814008044641CEE
:10165000082CFFF673AFBDE8F08110B504460422F4
:1016600021469001FFF707FF10BD10B50446042284
:1016700021469001FFF727FF10BD10B50446042254
:1016800021464FF4A060FFF7F6FE10BD10B50446EA
:10169000062221464FF41060FFF7EDFE10BD10B595
:1016A0000446042221464FF47060FFF7E4FE10BDAB
:1016B00010B5044642F6087101EB44100221FFF711
:1016C000A8FE10BD10B50446042221469001FFF784
:1016D000FAFE10BD10B50446042221464FF4A06066
:1016E000FFF7F1FE10BD10B50446062221464FF467
:1016F0001060FFF7E8FE10BD10B504460422214635
:101700004FF47060FFF7DFFE10BD10B54FF4A85026
:10171000FFF798FE10BD10B50446210A4FF4C850DB
:10172000FFF777FEE1B24FF4D050FFF772FE10BD25
:1017300010B5044621464FF4D850FFF76AFE10BD9D
:1017400070B50446FFF7E1FF60EA0400C5B2294620
:101750004FF4A850FFF75DFE70BD70B504460D460E
:10176000290A41F2082202EB4410FFF752FEE9B2C7
:1017700041F2083202EB4410FFF74BFE70BD70B52A
:1017800004460D4641F2086101EB44102946FFF77B
:1017900040FE70BD10B504464FF4027101EB4410D9
:1017A000FFF750FE10BD10B504464FF4427101EB37
:1017B0004410FFF747FE10BD2800002060080020FD
:1017C00050080020556E657870656374656432203A
:1017D0006C656E67746820300D0A000070B50446B1
:1017E0000025002600BF42F2080101EB4410FFF77C
:1017F00029FE064642F2081101EB4410FFF722FED3
:1018000000EB062086B27EB142F2080101EB4410E3
:10181000FFF718FE054642F2081101EB4410FFF7EE
:1018200011FE00EB052085B2B542DCD1284670BD23
:1018300070B504460025002600BF42F2086101EBA6
:101840004410FFF7FFFD064642F2087101EB441019
:10185000FFF7F8FD00EB062086B27EB142F2086188
:1018600001EB4410FFF7EEFD054642F2087101EB73
:101870004410FFF7E7FD00EB052085B2B542DCD14F
:10188000284670BD2DE9F04104460F461646002556
:10189000A8460EB9BDE8F08142F2084101EB4410C0
:1018A000FFF7D0FD054642F2085101EB4410FFF767
:1018B000C9FD00EB052085B2280200EB441000F1C1
:1018C0001008324639464046FFF7D5FDA81985B2C3
:1018D000290A42F2084202EB4410FFF79AFDE9B2EE
:1018E00042F2085202EB4410FFF793FD00BFD1E72C
:1018F0002DE9F04104460F4616460025A8462EB9AC
:1019000021461EA001F050F9BDE8F08142F6080121
:1019100001EB4410FFF796FD054642F6081101EB76
:101920004410FFF78FFD00EB052085B2280200EB85
:10193000441000F11808324639464046FFF7C3FD0F
:10194000A81985B2290A42F6080202EB4410FFF7F3
:1019500060FDE9B242F6081202EB4410FFF759FDB0
:1019600000BFD1E770B504460D464FF4027101EB9C
:1019700044102946FFF74DFD70BD000043483A2052
:10198000256420556E657870656374656432206CDB
:10199000656E67746820300D0A00000008B580206D
:1019A000ADF8000003208DF8020014208DF803002C
:1019B00069469548FEF762FE4020ADF8000003201E
:1019C0008DF8020010208DF8030069468E48FEF75E
:1019D00055FE08BD10B580218B48FEF7FCFE402166
:1019E0008948FEF7F8FE012000F021FD802186489D
:1019F000FEF7F3FE40218448FEF7EFFE10BD10B560
:101A000080218148FEF7E9FE40217F48FEF7E3FE92
:101A1000012000F00CFD80217B48FEF7DCFE10BDAC
:101A200070B505462E46002421E040217648FEF799
:101A3000D4FE012000F0FBFC06FA04F000F0800068
:101A4000802804D180217048FEF7C5FE03E0802184
:101A50006D48FEF7C2FE012000F0E9FC40216A4813
:101A6000FEF7B9FE012000F0E2FC601CC4B2082CB5
:101A7000DBDB40216448FEF7B0FE012000F0D7FC1C
:101A800080216148FEF7A7FE012000F0D0FC70BD68
:101A900070B5002540215C48FEF79FFE012000F054
:101AA000C6FC80215848FEF796FE00241BE001206A
:101AB00000F0BDFC40215448FEF78DFE012000F0EF
:101AC000B6FC80215048FEF76CFE012801D10126AA
:101AD00000E0002646EA4500C5B240214A48FEF72C
:101AE0007CFE601CC4B2082CE1DB012000F09FFCEE
:101AF000284670BD10B5002440214348FEF76BFE18
:101B0000012000F094FC01E0601C84B280213E487A
:101B1000FEF747FE012801D1FF2CF5DB40213A48B2
:101B2000FEF75BFE012000F082FC10BD70B504469C
:101B30000D4672B6FFF74EFFFE2101EAE41141F0B7
:101B4000A000FFF76DFFFFF7D5FF2046E11704EB7C
:101B500011610912A4EB0121CEB23046FFF760FFFC
:101B6000FFF7C8FF2846FFF75BFFFFF7C3FFFFF74C
:101B700046FF62B6052000F033FC70BD70B5044628
:101B8000E6B272B6FFF726FFFE2101EAE41141F04A
:101B9000A000FFF745FFFFF7ADFF3046FFF740FF1E
:101BA000FFF7A8FFFFF716FFA120FFF739FFFFF7A8
:101BB000A1FFFFF76DFF0546FFF721FF62B628463C
:101BC00070BD2DE9F04105460E46174698460024A3
:101BD00007E03A19B15C2A1990B2FFF7A7FF601C21
:101BE00084B24445F5DBBDE8F08170B504460E468D
:101BF000254605E0FF212846FFF798FF681C85B2BF
:101C0000A019A842F6DC70BD000C014010B50446D6
:101C10004FF4847101EB44101021FFF7FAFB00BF71
:101C20004FF4847101EB4410FFF70CFC0028F7D14E
:101C30004FF4027101EB4410FF21FFF7EAFB10BDE6
:101C40002DE9F04104460D461646984605F00F0072
:101C500001280FD005F00F0002280BD005F00F006F
:101C6000032807D005F00F00042803D005F00F006B
:101C7000052841D12046FFF7C9FF45EA080108229F
:101C800002EB4410FFF7C5FB76B1310A4FF48162D5
:101C900002EB4410FFF7BDFBF1B24FF4A16202EB7F
:101CA0004410FFF7B6FB15E0FE480088401CFD49D4
:101CB00008800A461288110A4FF4816202EB441030
:101CC000FFF7A7FBF74A11784FF4A16202EB44102B
:101CD000FFF79FFB4FF4847101EB44100121FFF7E4
:101CE00098FB00BF4FF4847101EB4410FFF7AAFB8F
:101CF0000028F7D1012700E000273846BDE8F08131
:101D000070B504464FF4427101EB4410FFF79AFBA3
:101D1000132811D14FF4847101EB44100221FFF715
:101D200078FB00BF4FF4847101EB4410FFF78AFB8E
:101D30000028F7D1012500E00025284670BD2DE9D7
:101D4000F04105460C4616462078FF2808D16078F9
:101D5000FF2805D1A078FF2802D1E078FF2808D01D
:101D6000207828B9607818B9A07808B9E07800B16F
:101D70000EB900275CE00127217840F6084202EB0B
:101D80004510FFF746FB617840F6085202EB45101C
:101D9000FFF73FFBA17840F6086202EB4510FFF722
:101DA00038FBE17840F6087202EB4510FFF731FB93
:101DB000310A41F2080202EB4510FFF72AFBF1B2AB
:101DC00041F2081202EB4510FFF723FB4FF4847138
:101DD00001EB45100421FFF71CFB00BF4FF4847199
:101DE00001EB4510FFF72EFB0028F7D117E04FF469
:101DF000427101EB4510FFF725FB172800D116E0D3
:101E00002846FFF7C7FC00F0080040B14FF402710C
:101E100001EB45100821FFF7FCFA002707E04FF41B
:101E2000427101EB4510FFF70DFB1528DFD100BF14
:101E30003846BDE8F08110B504464FF4847101EBDB
:101E400044100821FFF7E5FA00BF4FF4847101EB5D
:101E50004410FFF7F7FA0028F7D110BD2DE9F0473D
:101E600004468846164600250027A9462046FFF767
:101E7000BBFAB04204DA2046FFF7B6FA074600E0A4
:101E8000374600BF2046FFF7A9FC81464FF4427158
:101E900001EB4410FFF7D6FA0546172D03D01C2D91
:101EA00001D0002701E0B945ECDB00BF3A464146CE
:101EB0002046FFF7E7FC4FF4847101EB441020212A
:101EC000FFF7A7FA00BF4FF4847101EB4410FFF74E
:101ED000B9FA0028F7D113E04FF4427101EB441036
:101EE000FFF7B0FA0546172D0AD01C2D08D06EA0BA
:101EF00000F05AFE2046FFF789FE0020BDE8F0877B
:101F00004FF4027101EB4410FFF79CFA00F010004F
:101F10001028E1D14FF4027101EB44101021FFF7BA
:101F200078FA4FF4027101EB44101021FFF771FAB7
:101F30003846E3E72DE9F04104460E4615460027F2
:101F4000002D15DD2A4631462046FFF7D1FC4FF41F
:101F5000847101EB44104021FFF75BFA00BF4FF49E
:101F6000847101EB4410FFF76DFA0028F7D12F467A
:101F70003846BDE8F0812DE9F0470446894616460B
:101F80001D46089F4FF000082046FFF72DFAB0428B
:101F900004DA2046FFF728FA804600E0B0462878A9
:101FA00028B9687818B9A87808B9E87800B117B9DD
:101FB0004FF0000863E0297840F6084202EB441035
:101FC000FFF727FA697840F6085202EB4410FFF752
:101FD00020FAA97840F6086202EB4410FFF719FADC
:101FE000E97840F6087202EB4410FFF712FA390A5A
:101FF00041F2080202EB4410FFF70BFAF9B241F28A
:10200000081202EB4410FFF704FA42464946204604
:10201000FFF738FC4FF4847101EB44102021FFF7E7
:10202000F8F900BF4FF4847101EB4410FFF70AFA8E
:102030000028F7D112E04FF4027101EB4410FFF7D2
:1020400001FA00F0080048B14FF4027101EB4410AE
:102050001821FFF7DEF90020BDE8F0874FF4027188
:1020600001EB4410FFF7EEF900F010001028E2D168
:102070004FF4027101EB44101021FFF7CAF94046FA
:10208000EAE72DE9FC5F05468A4691461E46DDF8E3
:10209000308000270024A346B9F1000F71DD42F61D
:1020A00008010BE03000002053454E445F4F4B20A9
:1020B00050726F626C656D21210D0A0001EB4510B5
:1020C000FFF7C0F9044642F6081101EB4510FFF78F
:1020D000B9F900EB042084B2200200EB451000F1B6
:1020E000180B082101EB4510FFF7ACF900F00700D1
:1020F000022804D0032845D0042878D178E00822AB
:1021000069465846FFF7DFF904F1080084B29DF8EC
:10211000000030709DF8010070709DF80200B070F2
:102120009DF80300F0709DF80400A8F800009DF8E9
:10213000050098F8001000EB0120A8F800009DF8B9
:1021400006709DF8070000EB072087B2200200EB25
:10215000451000F1180B3A4651465846FFF7B3F9BF
:10216000E01984B2210A42F6080202EB4510FFF79B
:1021700050F9E1B242F6081202EB4510FFF749F9B7
:102180006AE07AE0062269465846FFF79CF9A01DEE
:1021900084B29DF8000030709DF8010070709DF8C9
:1021A0000200B0709DF80300F0709DF804709DF877
:1021B000050000EB072087B2200200EB451000F17C
:1021C000180B3A4651465846FFF77DF9E01984B29C
:1021D000210A42F6080202EB4510FFF71AF9E1B2B4
:1021E00042F6081202EB4510FFF713F934E032E033
:1021F000022269465846FFF766F9A01C84B29DF892
:1022000000709DF8010000EB0720801E87B240F2AD
:10221000EA50874204DD1FA000F0C6FC00BFFEE7C5
:10222000200200EB451000F1180B3A465146584683
:10223000FFF749F9E01984B2210A42F6080202EBDD
:102240004510FFF7E6F8E1B242F6081202EB45103E
:10225000FFF7DFF800E000BF00BF4FF4847101EB2F
:1022600045104021FFF7D5F800BF4FF4847101EB12
:102270004510FFF7E7F80028F7D13846BDE8FC9F86
:1022800010B504464FF4847101EB44102221FFF78E
:10229000C0F810BD646174615F6C656E206F766517
:1022A0007220313531340D0A0000000000B587B0CE
:1022B00001218803FEF7ABFC01210920FEF79AFCFF
:1022C0004FF46040ADF8040003208DF8060018209C
:1022D0008DF8070001A93248FEF7D0F94FF480507D
:1022E000ADF8040003208DF8060010208DF80700DB
:1022F00001A92B48FEF7C2F94FF480512848FEF798
:102300006AFA0020ADF808004FF48270ADF80A00B8
:102310000020ADF80C00ADF80E00ADF810004FF441
:102320000070ADF812000820ADF814000020ADF8E0
:1023300016000720ADF8180002A91A48FEF7E4FCC1
:1023400001211848FEF785FD07B000BD10B5044611
:102350002CB94FF480511248FEF73FFA05E0012CEA
:1023600003D121030E48FEF736FA10BD10B504461E
:1023700000BF02210B48FEF7F0FD0028F9D02146EE
:102380000848FEF797FD00BF01210648FEF7E5FD6E
:102390000028F9D00348FEF78FFDC0B210BD000041
:1023A000000C0140003800404FF0E021096921F0A5
:1023B00004014FF0E0221161C21700EB5272C2F328
:1023C000C702A14B1A701946097801EB4102C2EB12
:1023D000C1114FF6FF7202EAC1019C4A1180704799
:1023E00001469A4A12884A434FF0E0235A6100227C
:1023F0009A6101221A6100BF4FF0E022106900F0DB
:1024000001021AB100F48032002AF5D000224FF008
:10241000E0231A619A61704710B5044604E04FF456
:102420007A70FFF7DDFF641E002CF8D110BD014665
:10243000854A12784A434FF0E0235A6100229A619C
:1024400001221A6100BF4FF0E022106900F0010282
:102450001AB100F48032002AF5D000224FF0E023B8
:102460001A619A6170470146302905DB392903DC7E
:10247000A1F13000C0B27047612905DB662903DC99
:10248000A1F15700C0B2F6E7412905DB462903DC7C
:10249000A1F13700C0B2EEE70846ECE730B50246DE
:1024A0000B46002405E012F8010BFFF7DCFF04FBEC
:1024B000030410780028F6D1A0B230BD30B5024632
:1024C0000B46002405E012F8010BFFF7CCFF04FBDC
:1024D000030410780028F6D1204630BD2DE9F041E4
:1024E00004460D461646701EC7B2202231462846C5
:1024F00000F0D0FA00BF0A2094FBF0F100FB11407D
:102500003030C2B23846791ECFB22A540A2094FB2A
:10251000F0F080B2041EEEDCBDE8F0812DE9F04160
:1025200004460F46904626460CB1207810B900208C
:10253000BDE8F0810BE03078FFF795FF0546002DF0
:1025400003DBBD4201DA761C01E00020F0E73078C1
:102550000028F0D1B9B22046FFF7A0FFC8F800006C
:102560000120E5E710B50B46002104E0445C9C42E5
:1025700000D14254491C445C002CF7D110BD0146E7
:1025800000200A06100C40EA112070470146002086
:102590000806C1F3072240EA0240C1F3074240EABD
:1025A000022040EA116070472DE9F04781460E464F
:1025B00017461D463146484600F07EFA044630462E
:1025C00000F098FA04443946204600F075FA824635
:1025D000AAEB04001FFA80F842462146284600F084
:1025E0007DFA002005F80800BDE8F0872DE9F041EC
:1025F00088B006460F463146684600F082FA6C46BF
:1026000000251BE012A1204600F084FA0446207841
:10261000302809D16078782806D11021A01CFFF756
:102620003DFF00F0FF0805E00A212046FFF736FFD6
:1026300000F0FF0807F8058000246D1C042DE1DB85
:1026400008B0BDE8F0810000320000203400002016
:102650002E00000008B501211D20FEF7CBFA0F2047
:10266000ADF8000003208DF8020010208DF8030063
:1026700069469348FEF702F801219148FEF7ADF84C
:1026800002218F48FEF7A9F804218D48FEF7A3F830
:1026900008218B48FEF79FF84FF40070ADF800005A
:1026A00003208DF8020010208DF80300694685484C
:1026B000FDF7E4FF4FF400718248FEF78CF84020EC
:1026C000ADF8000003208DF8020048208DF80300CB
:1026D00069467D48FDF7D2FF08BD10B54FF4007183
:1026E0007848FEF77AF80220FFF7A1FE4FF4007158
:1026F0007448FEF770F84FF4C860FFF771FE10BD24
:1027000070B5002044682546A84770BD1CB56F48C9
:10271000FEF7BCFF6D480C30FEF7AFFF6B48103082
:10272000FEF79BFF69480830FEF7B9FF6849694822
:10273000FEF7FCFE4FF4FA60FEF7EDFF0320FEF714
:10274000F7FF01A8FEF7D8FF9DF8070000909DF85D
:1027500006309DF805209DF804105FA000F024FAD3
:1027600001A8FEF7B7FF9DF8070000909DF806301E
:102770009DF805209DF804105CA000F015FA01A852
:10278000FEF7A0FF9DF8070000909DF806309DF829
:1027900005209DF804105AA000F006FA1CBD86B072
:1027A0005CA103C9CDE904015CA0006803905CA0B2
:1027B000006802905BA0006801905BA00068009038
:1027C0004248001F0399C16002990161019941616A
:1027D00004994160BDF814100181009981610020C5
:1027E0003A49091F0877012048770020C88381F8FB
:1027F00020000120887200213448001FC17206B0F9
:1028000070472DE9F0410027002500260BE02F48F6
:10281000845D21463846FFF789F9781C87B2701C21
:1028200086B2681C85B21D2DF1DBBDE8F08170B564
:102830000025002407E02046FFF7A0F905462348BD
:102840000555601C84B21D2CF5D32048001F00796B
:10285000FF281AD11D48001F4079FF2815D11B48B9
:10286000001F8079FF2810D11848001FC079FF2869
:102870000BD11648001F007AFF2806D11348001F0D
:10288000407AFF2801D1FFF78AFF70BD08B54FF4E9
:10289000C060FDF725FE25208DF8000001208DF891
:1028A000010000208DF8020001208DF80300684629
:1028B000FDF71BFE00214FF00060FDF748FE08BD4C
:1028C00000080140000C0140001001407408002085
:1028D0003E000020360000204950203A2025642E7A
:1028E00025642E25642E25640D0A0000534E203ADF
:1028F0002025642E25642E25642E25640D0A0000F3
:102900004757203A2025642E25642E25642E256401
:102910000D0A00000008DC1111110000C0A801968A
:10292000FFFFFF00C0A801010808080800B585B036
:10293000012144F20500FEF75DF918208DF803002F
:102940004FF40070ADF8000003208DF802006946D6
:102950004C48FDF793FE04208DF803000002ADF80B
:10296000000069464748FDF789FE4FF4E1300190C9
:102970000020ADF80800ADF80A00ADF80C00ADF885
:1029800010000C20ADF80E00012240F225513E4807
:10299000FEF7F5FB01A93C48FEF759FB01213A4837
:1029A000FEF7E1FB05B000BD70B504460D46E1B28F
:1029B0003548FEF745FC00BF80213348FEF7AEFCEA
:1029C0000028F9D0204670BD10B5044621462E4897
:1029D000FEF736FC00BF80212B48FEF79FFC002845
:1029E000F9D010BD10B504460BE014F8011B2648C1
:1029F000FEF726FC00BF80212348FEF78FFC00284D
:102A0000F9D020780028F0D110BD10B540F2255142
:102A10001D48FEF799FC10B31B48FEF715FCC4B225
:102A20001A48008800F40040C8B91848008800F42B
:102A3000804060B10A2C03D000201449088020E0B7
:102A40001248008840F400401049088019E00D2C1D
:102A500006D10E48008840F480400C49088010E000
:102A60000A480088C0F30D0009490C540748008843
:102A7000401C0649088008460088C72801DD002060
:102A8000088010BD000801400038014046000020C9
:102A9000660E0020D2B201E000F8012B491EFBD2E5
:102AA00070470022F6E710B513460A460446194659
:102AB000FFF7F0FF204610BD30B505462A460B460D
:102AC00012F8010B13F8014B08B1A042F8D01CB169
:102AD000002802D06D1CF1E7284630BD10B5044631
:102AE00004E00B7800F8013B03B1491C521EF8D2F8
:102AF000204610BD421C10F8011B0029FBD1801A92
:102B00007047034611F8012B00F8012B002AF9D178
:102B10001846704770B50F4D00B92868002412E0C0
:102B20000A4602E09E4203D0521C1378002BF9D1D2
:102B3000DAB2224305D02BB124B1002100F8011BE9
:102B400004E00446401C0678002EE9D128602046A7
:102B500070BD00004800002030B50B460146002043
:102B60002022012409E021FA02F59D4205D303FA4F
:102B700002F5491B04FA02F52844151EA2F10102D0
:102B8000F1DC30BD064C074D06E0E06840F0010383
:102B900094E8070098471034AC42F6D3FDF7CCFA1E
:102BA000A02D0008C02D00080FB4054B10B503A9D7
:102BB000044A029800F018F810BC5DF814FB0000FD
:102BC000A92900084C00002002E008C8121F08C113
:102BD000002AFAD170477047002001E001C1121F9E
:102BE000002AFBD1704700002DE9FF4F8BB09A46B9
:102BF0000F460546002606E025280BD052460D99C3
:102C000090476D1C761C28780028F5D10FB030460F
:102C1000BDE8F08F0024A0460122604900E0044393
:102C200015F8013F203B02FA03F00842F7D128785B
:102C30002E2817D115F8010F44F004042A280ED0CD
:102C40006FF02F022878A0F1300109290AD808EB8B
:102C5000880102EB410100EB01086D1CF2E757F817
:102C6000048B6D1C287869283ED006DC0028CDD066
:102C700063280BD0642804D136E0732810D075285F
:102C80004BD052460D999047761C85E017F8040BFF
:102C90008DF8000000208DF80100E946012003E0D6
:102CA00057F8049B4FF0FF3061074FF0000401D448
:102CB0000AE0641C44450DDA8442FADB19F804107A
:102CC0000029F6D106E0641C8442FCDB19F80410EC
:102CD0000029F8D1264404E019F8010B52460D9959
:102CE0009047641EF8D257E001CF4FF00A0B00283E
:102CF00002DA40422D2102E0210504D52B218DF876
:102D00002410012103E0E10705D02021F7E70DF1B0
:102D1000200908910CE00021F9E701CF4FF00A0BE0
:102D2000F9E75946FFF718FF01F1300209F8012DC4
:102D30000028F6D1ADEB090000F1200B600701D4AB
:102D40004FF00108D84502DDA8EB0B0000E00020A1
:102D50008046002406E009A85246005D0D99904780
:102D6000641C761C08988442F5DB04E0302052464F
:102D70000D999047761CB8F10001A8F10108F5DC27
:102D800005E019F8010B52460D999047761CBBF1EE
:102D90000001ABF1010BF4DC6D1C34E709280100E4
:102DA000C02D00080000002050000000C82B0008C3
:102DB000102E000850000020E0120000D82B000860
:102DC00000A24A0400000000000000000102030409
:102DD00006070809000000000102030401020304C1
:102DE00006070809020406080000000000000000B1
:102DF00000000000000002020202020202020202BF
:102E000002020202020200000000000000000000B6
:0400000508000131BD
:00000001FF
